:020000040800F2
:1000000000040020B10100089103000891030008DA
:100010009103000891030008910300089103000870
:10002000910300089103000891030008C103000830
:10003000910300089103000891030008A10400083F
:100040009103000891030008910300089103000840
:100050009103000891030008910300089103000830
:10006000910300089103000891030008F1140008AF
:100070002115000861150008A1150008E115000808
:10008000211600086116000891030008910300087A
:1000900091030008910300089103000891030008F0
:1000A00091030008910300089103000891030008E0
:1000B00091030008910300089103000891030008D0
:1000C00091030008910300089103000891030008C0
:1000D00091030008910300089103000891030008B0
:0C00E00091030008910300089103000840
:1000F00010B54FF4006482B0C4F2010401F088F836
:1001000000F056FA20211022204601F0C1FD2046C1
:100110004021102201F0BCFD20468021102201F078
:10012000B7FD10212046062201F0B2FD102341F256
:1001300080112361C2F2000100235A1CCB54023308
:10014000B3F5007F8A54F8D140F6D07041F6916340
:1001500000244FF4D8714122C0F60003C2F200001F
:10016000009400F055FE40F6206041F60163C2F2B3
:1001700000004FF4D8714122C0F60003009400F053
:1001800047FE4FF4FA7000F08BFEFAE7AFF3008001
:10019000704700BFAFF30080AFF30080AFF3008083
:1001A000FEE700BFAFF30080AFF30080AFF3008045
:1001B00072B640F60001C2F2000181F30988022301
:1001C00083F31488BFF36F8F40F2000240F20044C3
:1001D000C2F20002C2F20004A24217D213464FF04C
:1001E0005530D64343F8040BA519A342C5F3800547
:1001F0000CD225B1186002F10803A34206D21A46B8
:1002000042F8040B5860131DA342F8D340F2004299
:10021000C2F200028A4217D213464FF05530D5433E
:1002200043F8040B4C198B42C4F380040CD224B164
:10023000186002F108038B4206D21E4646F8040BF2
:100240005860331D8B42F8D301F0CAFD40F600041C
:1002500040F60001C2F20001C2F20004A14225D220
:1002600042F24050C0F60000024652F8046B0B46C2
:10027000CD4343F8046B04EB050CA342CCF380059B
:1002800014D23DB1166800F108021E6001F10803A6
:10029000A3420BD2114651F8046B1846526840F83D
:1002A000046B5A60031D0A1DA342F3D340F60002FB
:1002B00041F28050C2F20002C2F20000824217D224
:1002C00000211346D44343F8041B00EB040E834281
:1002D000CEF380040CD224B1196002F108038342EA
:1002E00006D21D4645F8041B59602B1D8342F8D3E6
:1002F00040F2EC0540F2EC06C0F60005C0F6000640
:10030000FFF746FFB54219D22C4654F8043BE943A7
:1003100077189847B442C7F380070FD22FB12368EC
:1003200005F108049847B44208D2254655F8042B35
:10033000904760682C1D8047B442F6D340F2EC052C
:1003400040F2EC06C0F60005C0F60006FFF7D0FE4E
:10035000B5421AD22C46EF4354F8043B06EB070C87
:10036000CCF380079847B4420FD22FB1226805F131
:1003700008049047B44208D2254655F8040B80473C
:1003800061682C1D8847B442F6D3FFF709FF00BF10
:10039000FEE700BFAFF30080AFF30080AFF3008053
:1003A00072B6FEE7AFF30080AFF30080AFF30080DA
:1003B00000F096F900F0B4FC00F0B2F900DF00BFE5
:1003C000EFF30983203383F30988002383F3118833
:1003D000704700BFAFF30080AFF30080AFF3008041
:1003E00008B54FF440724FF46D43CEF20003C0F2F3
:1003F000FA520021996007201021DA6000F0A8F875
:100400000A204FF4007100F0A3F80B208021BDE812
:10041000084000F09DB800BFAFF30080AFF300804C
:10042000202383F311884FF46D40CEF2000043681F
:1004300013F4006320D0EFF30982A2F1200181F3CD
:10044000098840F63453C2F2000399694FF0807076
:1004500042F8040C91F8230088B118688B68806812
:10046000984294BF0023012393B140F2B133C0F608
:10047000000342F8083C704783F3118870471868FE
:100480008B688168994234BF00230123002BECD193
:1004900040F2BC31C0F6000142F8081C704700BFB2
:1004A00008B500F0A5F9202383F3118800F058F96E
:1004B00000F0BEF800F074F9002383F3118800F017
:1004C000BFF9BDE80840FFF7ABBF00BFAFF3008046
:1004D0002DE9F04FC1F80CD0D0F80CD0BDE8F08F6A
:1004E00008B500F01DF9002383F311882846A047C2
:1004F00000F01EFD08BD00BFAFF30080AFF3008029
:1005000000F00302F0B4FF23D60003FA06FC00F06B
:100510001F0401FA06F1012505FA04F586084FF4D7
:100520006144CEF20004C03654F82670400927EA30
:100530000C0242EA010300F1600744F8263044F857
:10054000275044F82050F0BC704700BFAFF3008044
:1005500000F0030310B4FF22DC0002FA04FC01FAED
:1005600004F180084FF46D44CEF20004063054F8D4
:10057000203023EA0C0242EA010344F8203010BC88
:10058000704700BFAFF30080AFF30080AFF300808F
:1005900040F63450C2F20000826941F62073C0F682
:1005A00000039361FEE700BFAFF30080AFF300806C
:1005B00030B583B0FFF714FF00F05AFA00F0E8F905
:1005C00000F0C6FD00F014FE00F0A2F940F60000B5
:1005D0004021C2F2000000F0B3FB40F6345540F277
:1005E0000043C2F200030124C2F20005C36180F897
:1005F0002040A86100F054F8002383F3118862B60C
:1006000042F2A002A969C0F600021D4640F6500061
:1006100040F291538A61C0F60003C0212246C2F223
:100620000000009500F0F4FB03B030BDAFF3008094
:10063000F8B500F02DF940F63453C2F200039B697F
:1006400093F8232012B1013A83F823205A6A40F626
:100650002454571CC2F200045F62E1682768481CFA
:10066000A742E06018D0BE68013EBE60A6B93868F7
:10067000FD684460FE60206000F092F8002383F380
:1006800011883869A847202383F3118800F068F89F
:100690002768BB68002BEAD0F8BD00BFAFF300802D
:1006A00040F61010C2F2000003682BB940F61C524D
:1006B000C2F20002116859B140F6205C41F6407068
:1006C000C2F2000CC0F60000CCF80000FFF768BED4
:1006D000704700BFAFF30080AFF30080AFF300803E
:1006E00040F61010C2F20000036810B540F61C542A
:1006F000C2F200040BB9216859B140F6205C41F602
:100700004872C2F2000CC0F60002CCF80020FFF7DD
:1007100047FE0123236010BDAFF30080AFF30080DC
:1007200040F61010C2F20000036810B540F61C54E9
:10073000C2F200042BB92168002902DD00232360E6
:1007400010BD40F6205C41F65072C2F2000CC0F6BB
:100750000002CCF80020FFF723FE0023236010BD29
:1007600040F61010C2F20000036810B5002B40F6EE
:100770001C54C2F2000401DD216859B140F6205C2E
:1007800041F65872C2F2000CC0F60002CCF800200C
:10079000FFF706FE0123236010BD00BFAFF300800A
:1007A00040F61010C2F20000036810B5002B40F6AE
:1007B0001C54C2F2000405DD2168002902DD00237B
:1007C000236010BD40F6205C41F66072C2F2000C5E
:1007D000C0F60002CCF80020FFF7E2FD0023236002
:1007E00010BD00BFAFF30080AFF30080AFF3008017
:1007F00010B5202383F3118840F61014C2F20004D0
:100800002368002B05DB40F61C50C2F20000026892
:100810005AB140F6205341F66871C2F20003C0F6A7
:1008200000011960FFF7BCFD23685A1C22600023F9
:1008300083F3118810BD00BFAFF30080AFF30080D9
:1008400010B5202383F3118840F61014C2F200047F
:100850002368002B05DD40F61C50C2F20000026840
:100860005AB140F6205341F67071C2F20003C0F64F
:1008700000011960FFF794FD23685A1E22600023CF
:1008800083F3118810BD00BFAFF30080AFF3008089
:1008900040F61010C2F200000368002B07DB40F6A0
:1008A0001C52C2F200021168002900DD704740F6B8
:1008B000205C41F67870C2F2000CC0F60000CCF863
:1008C0000000FFF76DBD00BFAFF30080AFF3008005
:1008D00040F61010C2F2000003683BB940F61C520B
:1008E000C2F200021168002900DD704740F6205C6A
:1008F00041F68070C2F2000CC0F60000CCF8000097
:10090000FFF74EBDAFF30080AFF30080AFF3008080
:1009100040F61413C2F200031A46402142F8081BA5
:100920005A607047AFF30080AFF30080AFF30080F0
:1009300010B440F6141340F6245140F6345CC2F271
:100940000003C2F20001C2F2000C5A68CC68DCF865
:10095000181014605160846A02F11001946090F8DC
:10096000204003F581608142147328BF03F108021F
:10097000596028BF5A6010BC704700BFAFF30080B9
:1009800040F62053C2F200031860FFF709BD00BF14
:1009900040F62453C2F200034FF0FF3000225B60A8
:1009A0001B609860DA607047AFF30080AFF300809F
:1009B000F8B5044615461F460E46FFF769FFD4F109
:1009C000010338BF0023002D08BF43F00103EBB93A
:1009D000E6B140F62451C2F200010B6827619A6823
:1009E000E560964204D91B68B61A9A68B242FAD3F7
:1009F0005A68A6608B4262602360146018BF9A68D0
:100A00005C601CBFC6EB02069E60F8BD41F69070AC
:100A1000C0F60000FFF7B4FFDBE700BFAFF30080D4
:100A200010B50446FFF734FF9CB1E368C3B12368F7
:100A300040F62452C2F2000293421FBF9868A26897
:100A400082189A606268002113602068E160426049
:100A500010BD41F6A070C0F60000FFF791FFE4E77B
:100A600041F6B070C0F60000FFF78AFFDFE700BF75
:100A700040F63453C2F2000300225B601B609A60B0
:100A80005B611B61704700BFAFF30080AFF3008074
:100A900010B50446FFF7FCFE94F82000D0F10102E7
:100AA00038BF00220E2814BF134642F0010393B949
:100AB00040F634530020A16884F82000C2F20003FD
:100AC0001B689A688A42FBD25968236061600C6097
:100AD0005C60204610BD41F6D070C0F60000FFF704
:100AE0004FFFE5E7AFF30080AFF30080AFF3008086
:100AF00010B52023044683F31188FFF731FE94F8E4
:100B000020300D2B11D8DFE803F016101007100B62
:100B1000101010101010100BA06A81684A1C82601F
:100B200094E80C001A60226853604FF0FF33A36210
:100B30002046FFF7ADFFFFF733FE002383F3118854
:100B400010BD00BFAFF30080AFF30080AFF30080B3
:100B500070B540F63454C2F200040646FFF7B8FE02
:100B60002368A5691A6814200121546085F8206063
:100B700085F8230083F8201028462260A361FFF740
:100B8000D7FEEA69ADF124039A4205D941F6E47033
:100B9000C0F60000FFF7F4FEA0692946BDE87040EA
:100BA000FFF796BCAFF30080AFF30080AFF3008097
:100BB00070B50E4686B00546FFF78AFE731C18D046
:100BC00040F63454C2F2000440F6F122A3693146E3
:100BD000C0F6000201A8FFF7EBFE2846FFF7B8FFBA
:100BE000049B13B101A8FFF71BFFA069806A06B040
:100BF00070BD284640F63454FFF7AAFFC2F2000445
:100C0000F3E700BFAFF30080AFF30080AFF30080E5
:100C100070B540F63455C2F2000504460E46FFF7A3
:100C200057FEA869A2688368A6629A4213D9FFF7A3
:100C30002FFF0122064684F82020AC61FFF778FEE2
:100C4000F069ADF1240188420AD820463146BDE85A
:100C50007040FFF73DBC2046BDE87040FFF718BF6D
:100C600041F6E470C0F60000FFF78AFEEDE700BF32
:100C700038B540F63454C2F200042368A5691A68F6
:100C800014210120546083F8200085F823102846A1
:100C90002260A361FFF7FCFE2846FFF749FEEA69E0
:100CA000ADF124039A4205D941F6E470C0F6000084
:100CB000FFF766FEA0692946BDE83840FFF708BC8B
:100CC00038B540F63455C2F200052B68AC691A6895
:100CD000012055602A600022A16883F82000AB61E2
:100CE00084F8202000E01B689A688A42FBD8586884
:100CF0002360606004605C602046FFF719FEE169D4
:100D0000ADF12403994205D941F6E470C0F6000024
:100D1000FFF736FEA8692146BDE83840FFF7D8BB8B
:100D200040F63451C2F20001886990F823300BB1CB
:100D3000FFF7C6BFFFF79CBFAFF30080AFF30080A3
:100D40002DE9F00140F63454C2F200046569002236
:100D5000046100F13006816000F12C0C00F14C07B9
:100D600045614FF00208606141641424012180F85C
:100D7000208080F8212080F823400264C263426210
:100D800080F8221082612861C0F82CC04663066397
:100D9000C761BDE8F0017047AFF30080AFF300809A
:100DA0002DE9F04104460D461F461646DDF8188031
:100DB000FFF76EFDD4F1010338BF0023AF2D98BFBC
:100DC00043F0010343B97F2E94BF00230123002F7A
:100DD00008BF43F001032BB142F20000C0F600004F
:100DE000FFF7CEFD243D40F2E1416219C0F600015B
:100DF000E2602046116231466751C2F80480BDE8C6
:100E0000F041FFF79DBF00BFAFF30080AFF300805C
:100E1000F0B504460D461F4600F14C0E431C83B04E
:100E200016464D30FF211A4603F8011C02F8011B3B
:100E3000531C8342F7D16019864517D2552173465A
:100E40006FEA0E0203F8011B00EB020C83420CF068
:100E500001020BD01AB103F8011B834206D01A46D7
:100E600002F8011B5970531C8342F8D1202383F3ED
:100E70001188FFF735FC2046089C3B463246294640
:100E80000094FFF78DFF00210446FFF7C1FEFFF736
:100E900047FC002383F31188204603B0F0BD00BF58
:100EA00010B5044628B942F24000C0F60000FFF732
:100EB00067FD202383F31188FFF712FC21460620EB
:100EC000FFF776FEFFF72CFC002383F3118810BD9B
:100ED00038B540F63453C2F200039C69254655F8F4
:100EE0002C3FA062AB4207D01A681846E262FFF7B7
:100EF000CFFDE36AAB42F7D194F82110880701BF18
:100F0000226960690261226908BF50610E20FFF703
:100F10001FFE42F25000C0F60000BDE83840FFF767
:100F20002FBD00BFAFF30080AFF30080AFF30080B0
:100F300010B52023044683F31188FFF7D1FB204628
:100F4000BDE81040FFF7C4BFAFF30080AFF30080EF
:100F500010B5044620B1002364602460A36010BD76
:100F600042F2C000C0F60000FFF70AFD00236460F3
:100F70002460A36010BD00BFAFF30080AFF300801A
:100F8000F8B540F634530546C2F200039C69FFF7FA
:100F90009FFC002D71D0A86800283CD0A268816811
:100FA000914208D290F820308260042B4BD0052B60
:100FB00036D0002B24D02B461B689D4203D0986866
:100FC000A2689042F8D259682360616004205C6096
:100FD0000C60A562FFF7BCFDAB68A34205D042F2EE
:100FE000E000C0F60000FFF7CBFC206CA84216D052
:100FF00042F2F400C0F60000BDE8F840FFF7C0BCC4
:1010000090E80C001A600268012180F820105360FB
:10101000FFF73EFDCFE7226CAC60EA602564F8BDC7
:1010200041680768866A0F600768334679601B6805
:101030009E4202D099689142F9D25A680360426098
:1010400010605860B7E741680768866A0F600768F4
:10105000334679601B689E420DD099689142F9D25F
:101060005A680360426010605860B068A268836884
:10107000934297D39FE73346F2E742F2D000C0F69F
:101080000000FFF77DFC86E7AFF30080AFF3008040
:1010900010B52023044683F31188FFF721FB204677
:1010A000FFF76EFFFFF73CFB002383F3118810BDB1
:1010B00040F63453C2F2000370B59D69202383F3D8
:1010C0001188FFF70DFB2C6C002C36D0A068A842CD
:1010D00006D042F23010C0F60000FFF751FC2C6C35
:1010E0002368E268A3422A641ED0686C4AB1116882
:1010F000914203D08968884238BF0846D268002AE6
:10110000F5D11A681E6CA860002122601846546050
:10111000A360E6601C64FFF77BFDFFF701FB002383
:1011200083F31188204670BD0023A360FFF7F8FA0F
:10113000002383F31188204670BD42F21C10C0F6D4
:101140000000FFF71DFC2C6CC0E700BFAFF3008070
:10115000094945F2000C40F6545240F65053C2F291
:10116000000C21F00700C2F20002C2F200032CF0D2
:10117000070110601960704787150020AFF30080E9
:1011800010B50446FFF784FB40F6545340F6505C1C
:10119000C2F20003C2F2000C1A68DCF80010E01D75
:1011A00020F00700891A88429ABF101818600022A0
:1011B000104610BDAFF30080AFF30080AFF30080A6
:1011C00010B52023044683F31188FFF789FA2046DF
:1011D000FFF7D6FF0446FFF7A3FA002383F3118835
:1011E000204610BDAFF30080AFF30080AFF3008066
:1011F00040F65853C2F2000341F2C1120021C0F67A
:10120000000203F110001A609960D960FFF7A0BED8
:1012100008B500F0DDFA00F043F942F2C040C0F634
:10122000000000F0EDFC00F00BF8BDE8084000F015
:10123000DFBD00BFAFF30080AFF30080AFF30080ED
:1012400000F0C6BBAFF30080AFF30080AFF30080C7
:10125000002301220270436083600C30FFF778BEE8
:1012600038B5D0F1010338BF0023002908BF43F08F
:10127000010304460D46DBB9202383F31188FFF7F1
:101280002FFA2278511EC8B2012805D942F28010E7
:10129000C0F60000FFF774FB2046656000F0D8FB45
:1012A00002232370FFF73CFA002383F3118838BD33
:1012B00042F27010C0F60000FFF762FBDCE700BFEF
:1012C00010B50446B0B1202383F31188FFF708FA64
:1012D0002378022B05D042F2BC10C0F60000FFF7C5
:1012E0004FFB204600F05CFCFFF71AFA002383F363
:1012F000118810BD42F2AC10C0F60000FFF740FBB1
:10130000E1E700BFAFF30080AFF30080AFF30080F0
:1013100010B50446B0B1202383F31188FFF7E0F93C
:101320002378022B05D042F2DC10C0F60000FFF754
:1013300027FB204600F03CFCFFF7F2F9002383F383
:10134000118810BD42F2CC10C0F60000FFF718FB68
:10135000E1E700BFAFF30080AFF30080AFF30080A0
:10136000F8B50E46D0F1010138BF0021002E08BFAC
:1013700041F00101044617461D46002940D1D2F133
:10138000010338BF0023002D08BF43F00103002BE9
:1013900036D1202383F31188FFF7A2F920780228A1
:1013A00005D042F2F420C0F60000FFF7E9FA6168C8
:1013B0000A682AB142F20830C0F60000FFF7E0FAEE
:1013C000032020702B46204631463A4600F0F8FBB9
:1013D000A3682BB142F2D420C0F60000FFF7D0FA88
:1013E00040F6345CC2F2000CDCF818200220A26047
:1013F000FFF7AEFBFFF794F9002383F31188F8BDE4
:1014000042F2E420C0F60000FFF7BAFAC1E700BFDD
:1014100010B5044628B104F10C00BDE81040FFF7F8
:1014200037BE42F28030C0F60000FFF7A9FAF2E7BB
:1014300008B518B1BDE80840FFF73ABE42F2943053
:10144000C0F60000FFF79CFAF4E700BFAFF300809E
:101450004FF48051CEF200014B688360704700BFAB
:1014600010B44FF48054CEF2000440F6785C646807
:101470008368C2F2000CDCF80010C268E31A5B1A41
:101480009342836088BFC36003D80269934238BF28
:10149000036110BC704700BFAFF30080AFF3008062
:1014A00010B541F2614286B0C0F6000240F67854B1
:1014B00041F251410023C0F60001C2F2000401A82C
:1014C00002924FF0FF32236003930493019105923F
:1014D000FFF7BEFF01A802998847039B236006B06F
:1014E00010BD00BFAFF30080AFF30080AFF300800A
:1014F00010B5FFF77DF940F67C52C2F200020020E1
:101500001368C4F202000F240168446013B15068EC
:1015100021409847FFF794F9BDE81040FEF780BFDF
:1015200010B5FFF765F940F67C52C2F200020020C8
:101530009368C4F20200F024016844601BB1D068D3
:10154000C1F303119847FFF77BF9BDE81040FEF7A0
:1015500067BF00BFAFF30080AFF30080AFF3008040
:1015600010B5FFF745F940F67C52C2F200020020A8
:101570001369C4F202004FF47064016844601BB147
:101580005069C1F303219847FFF75AF9BDE81040AD
:10159000FEF746BFAFF30080AFF30080AFF30080EB
:1015A00010B5FFF725F940F67C52C2F20002002088
:1015B0009369C4F202004FF47044016844601BB1A7
:1015C000D069C1F303319847FFF73AF9BDE81040FD
:1015D000FEF726BFAFF30080AFF30080AFF30080CB
:1015E00010B5FFF705F940F67C52C2F20002002068
:1015F000136AC4F202004FF47024016844601BB106
:10160000506AC1F303419847FFF71AF9BDE810404B
:10161000FEF706BFAFF30080AFF30080AFF30080AA
:1016200010B5FFF7E5F840F67C52C2F20002002048
:10163000936AC4F202004FF47004016844601BB165
:10164000D06AC1F303519847FFF7FAF8BDE810409C
:10165000FEF7E6BEAFF30080AFF30080AFF300808B
:1016600010B5FFF7C5F840F67C52C2F20002002028
:10167000136BC4F202004FF07064016844601BB148
:10168000506BC1F303619847FFF7DAF8BDE81040EB
:10169000FEF7C6BEAFF30080AFF30080AFF300806B
:1016A0002DE9F003002040F6B4514FF0080940F650
:1016B0007C524FF01C084FF0300C442758266C2504
:1016C00080240346C2F20002C2F20001C4F2020901
:1016D000C4F20208C4F2020CC4F20207C4F2020609
:1016E000C4F20205C4F202040B60C4F20200C9F89D
:1016F00000301360C8F800309360CCF800301361FC
:101700003B609361336013622B60936223601363C9
:101710004FF0FF334360BDE8F0037047AFF3008044
:101720002DE9F041044684B0002840D0677A0120BA
:1017300000FA07FC40F6B456C2F2000635681CEA0F
:10174000050F31D14CEA05055FEA456C18BF4FF42F
:10175000805C40F67C50C2F20000356018BFC4F2D5
:10176000020C00EBC70840F8372018BFDCF8140063
:10177000C8F8043018BF40F00100236818BFCCF847
:1017800014001F68606827F001051D60267A0F2786
:1017900007FA06F6002506601D60104622B1A07A01
:1017A0000901FEF7ADFE284604B0BDE8F08142F223
:1017B000B030C0F60000039102920193FFF7E0F809
:1017C000019B029A0399B1E7AFF30080AFF3008069
:1017D0004FF4805370B4C4F2020300214FF0FF3580
:1017E0004EF2100241F63F101C69CEF200021D615C
:1017F000C0F201001961DE684EF6F05CDD60D96070
:10180000506007209160CEF2000C1060DCF80C40B4
:101810004FF4805044F08072CCF80C20CEF20000DF
:1018200004684FF4E04C44F001040460DA69C4F247
:10183000000C42F08050D861DA6942F00060D86153
:10184000DCF8002042F48070CCF800001A6A02F440
:101850004070B0F5407F1EBF4FF4803018621962AF
:101860004FF48053C4F202031A6A120407D4196AAF
:1018700041F4407018621A6A42F40041196270BC67
:10188000FFF70EBFAFF30080AFF30080AFF300802F
:101890004FF48053C4F202031868194640F0010265
:1018A0001A600A684FF480539007C4F20203F8D517
:1018B0001A68002002F0F90119601946586048685A
:1018C0004FF4805310F00C0FC4F20203F7D11868E4
:1018D000194640F480321A600A684FF4805392032C
:1018E000C4F20203F8D55A68194642F4E810586069
:1018F0001A6842F08070186008684FF480538001C5
:10190000C4F20203F8D54FF4C8424FF4005CC0F2B1
:101910001D021221C4F2020C5A60CCF80010586863
:101920001A4640F002015960506800F00C03082B81
:10193000FAD17047AFF30080AFF30080AFF30080BF
:101940000B0700D47047FEF72BBD00BFAFF300803C
:101950000A0770B5044635D4626A236A92E821000A
:1019600006680F2126F001060660127A1E6801FA49
:1019700002F028603268606822F0010535601D7A47
:101980005A6801FA05F103681160C3B1042222709C
:10199000204698472178042911D0A66876B1002501
:1019A000A560202383F31188FEF7DAFE3046FFF7A7
:1019B0006FF8FEF7F5FE2B4683F3118870BD022306
:1019C0002370EAE7FEF7ECFCC6E700BFAFF3008048
:1019D0002DE9F04140F6BC5540F6B858C2F200057A
:1019E000C2F200084FF0FF37154EA8F800702846E5
:1019F00040F6EC54FFF72CFCC2F200044FF44052C6
:101A0000C4F2010206F10C0141F20A0841F2180782
:101A10002046EA612E626962C5F82880EF62FFF70E
:101A200017FC4FF4605306F11802C4F20003243689
:101A3000E36122626662C4F82880E762BDE8F08153
:101A4000FC230008AFF30080AFF30080AFF3008009
:101A500038B503780446012B18BFC36924D06268E7
:101A6000A06AB2F80AC0E16A1CF4006F1BBF20F440
:101A7000506021F4506120F4406040F4A0600CBF3D
:101A800021F4406141F4A061A062E1624CF4417034
:101A9000002207211A80188099801A881FFA82FC78
:101AA0004CF04000188038BD40F6BC55C2F200052D
:101AB000A8420FD040F6EC55C2F20005AC422AD045
:101AC000216A626AE3690868116803F10C028260A6
:101AD0008A60C4E741F65112006A0A21C0F600028A
:101AE0002346FFF71DFE00283ED141F6411240F685
:101AF000BC53686A0A21C0F60002C2F20003FFF775
:101B00000FFE50BB4FF48053C4F20203986940F4B7
:101B100080529A61CEE741F65112206A0A21C0F63E
:101B200000022346FFF7FCFD60BB41F6411240F680
:101B3000EC53686A0A21C0F60002C2F20003FFF704
:101B4000EFFDC0B94FF4805CC4F2020CDCF81C203D
:101B500042F48041CCF81C10B2E742F26440C0F677
:101B60000000FEF70DFFCDE742F25040C0F6000046
:101B7000FEF706FFB9E742F28C40C0F60000FEF720
:101B8000FFFEDFE742F27840C0F60000FEF7F8FE05
:101B9000CBE700BFAFF30080AFF30080AFF300806E
:101BA000426801211089536801FA00F25A617047B6
:101BB000426801211089536801FA00F21A617047E6
:101BC000F0B4046A476A866AC56A2468386846F0D1
:101BD000800645F08005E36061602660C260416078
:101BE0000560236843F001022260016841F00103AF
:101BF0000360F0BC704700BFAFF30080AFF300801C
:101C00004FF48051C4F2020110B48C694FF4006C9F
:101C100044F07D028A610368C4F2010CCCF80C30F8
:101C200084684FF44063CCF804404168C4F2010377
:101C3000CCF80010C2684FF48051DA604469C4F2F5
:101C400001015C6002694FF4A05C1A608369C4F210
:101C5000010CCB60046A4FF4C0534C60C469C4F2F9
:101C600001030C60416ACCF80C10C26ACCF8042065
:101C7000816ACCF80010026BDA60816B5960426BAC
:101C80001A6010BC704700BFAFF30080AFF3008054
:101C9000032AF0B408BF016102D0042A08BF4161E1
:101CA00042F2A047C0F6000717F802C00F2611F055
:101CB00080071CBF674600260F2511F400421CBF99
:101CC000624600254B00340139012E01150113F045
:101CD000800F0CBF44F00F0441EA0C0113F4004FD5
:101CE00014BF45EA0C0546F00F065A0036012301E1
:101CF00009012D0112F0800F0CBF43F00F0341EAE0
:101D00000C0112F4004F0CBF46F00F0645EA0C051B
:101D100052001C01090133012D0112F0800F14BF84
:101D200041EA0C0144F00F0412F4004F14BF45EADD
:101D30000C0543F00F0352001E012D010B0124017D
:101D400012F0800F14BF43EA0C0344F00F0412F4A6
:101D5000004F14BF45EA0C0546F00F06520019016A
:101D600024012B01360112F0800F14BF41EA0C014F
:101D700044F00F0412F4004F14BF43EA0C0346F082
:101D80000F0652001D0124013601090112F0800FD7
:101D900014BF41EA0C0144F00F0412F4004F14BFC9
:101DA00045EA0C0546F00F065300240136010901EF
:101DB0002D0113F0800F0CBF44F00F0441EA0C0119
:101DC0001A04426854BF46F00F0645EA0C05164057
:101DD0003543456003681C4021430160F0BC7047F7
:101DE000FFF756BDAFF30080AFF30080AFF3008084
:101DF000704700BFAFF30080AFF30080AFF3008007
:101E000040F63450C2F2000038B5826942F22053E5
:101E1000C0F600034FF480549361C4F201044FF400
:101E2000805540F6BC50C2F20000FFF7F1FA40F6D0
:101E3000BC5042F20051C0F600012561C2F2000020
:101E4000FFF70EFA40F6BC50C2F20000FFF738FA76
:101E500040F6BC5041F2801241F280334FF40071E1
:101E6000C2F20002C2F20003C2F20000FFF778FAE9
:101E700040F6BC50C2F20000FFF74AFA40F6BC50F0
:101E8000C2F20000FFF7D4FACBE700BFAFF3008047
:101E900040F63450C2F2000038B5826942F2305345
:101EA000C0F600034FF480549361C4F201044FF470
:101EB000805540F6BC50C2F20000FFF7A9FA40F688
:101EC000BC5042F21051C0F600016561C2F2000040
:101ED000FFF7C6F940F6BC50C2F20000FFF7F0F978
:101EE00040F6BC5041F2801241F280334FF4007151
:101EF000C2F20002C2F20003C2F20000FFF730FAA1
:101F000040F6BC50C2F20000FFF702FA40F6BC50A7
:101F1000C2F20000FFF78CFACBE700BFAFF30080FE
:101F200069646C6500000000000000000000000013
:101F300053562331000000005356233200000000A6
:101F40005356233300000000535623340000000092
:101F5000535623350000000053562336000000007E
:101F6000535623370000000053562338000000006A
:101F7000535623390000000053562331300000002F
:101F80005356233131000000000000000000000023
:101F900022636856545365744922282900000000C2
:101FA00022636856545265736574492228290000DB
:101FB0006368565452657365744928292C2023316F
:101FC0000000000000000000000000000000000011
:101FD000636853636852656164794928292C20231A
:101FE00031000000737461636B206F766572666CFC
:101FF0006F770000000000000000000000000000FB
:1020000022636854686443726561746549222829B3
:10201000000000002263685468645365745072695C
:102020006F7269747922282900000000636854687F
:1020300064526573756D6528292C202331000000DA
:10204000226368546864536C656570222829000017
:102050006368546864457869745328292C202331B7
:102060000000000022636854686457616974222884
:102070002900000063685468645761697428292C3A
:102080002023310063685468645761697428292CDF
:1020900020233200000000000000000000000000CB
:1020A0006D61696E0016411104044C080C1014187F
:1020B0001C2021222324000000000000000000005A
:1020C0002263684D7478496E6974222829000000E3
:1020D0002263684D74784C6F636B5322282900008B
:1020E00063684D74784C6F636B5328292C2023311F
:1020F0000000000063684D74784C6F636B532829AF
:102100002C202332000000002263684D7478547242
:10211000794C6F636B5322282900000063684D746B
:1021200078556E6C6F636B28292C202331000000DA
:1021300063684D7478556E6C6F636B28292C20236F
:102140003200000063684D7478556E6C6F636B539A
:1021500028292C202331000063684D7478556E6C5B
:102160006F636B5328292C202332000000000000ED
:102170002273706953746172742228290000000070
:10218000737069537461727428292C202331000004
:102190002273706953746F70222829007370695319
:1021A000746F7028292C202331000000227370697D
:1021B00053656C65637422282900000073706953AD
:1021C000656C65637428292C2023310022737069A3
:1021D000556E73656C6563742228290073706955A8
:1021E0006E73656C65637428292C20233100000010
:1021F00022737069537461727449676E6F726522DD
:1022000028290000737069537461727449676E6F96
:10221000726528292C202331000000002273706988
:10222000537461727445786368616E67652228290A
:1022300000000000737069537461727445786368BC
:10224000616E676528292C20233100002273706994
:10225000537461727453656E642228290000000073
:10226000737069537461727453656E6428292C20ED
:102270002331000022737069537461727452656374
:1022800065697665222829007370695374617274D8
:102290005265636569766528292C2023310000008A
:1022A0002273706949676E6F72655761697422287D
:1022B0002900000073706949676E6F726528292CC8
:1022C0002023310073706949676E6F726528292C6D
:1022D000202332005F7370695F7761697428292C4D
:1022E000202331002273706945786368616E6765E9
:1022F0002228290073706945786368616E676528D4
:10230000292C2023310000007370694578636861CF
:102310006E676528292C2023320000002273706923
:1023200053656E642228290073706953656E6428B2
:10233000292C20233100000073706953656E6428D6
:10234000292C2023320000002273706952656365D6
:102350006976652228290000737069526563656992
:10236000766528292C202331000000007370695203
:1023700065636569766528292C20233200000000FA
:1023800022737069416371756972654275732228A1
:10239000290000002273706952656C6561736542A3
:1023A00075732228290000000000000000000000D2
:1023B00022646D61416C6C6F636174652228290031
:1023C00022646D6152656C65617365222829000085
:1023D000646D6152656C6561736528292C20233119
:1023E00000000000000000000000000000000000ED
:1023F000080002400400024000000B001C000240E4
:102400000400024004010C003000024004000240BD
:1024100008020D0044000240040002400C030E00BC
:10242000580002400400024010040F006C000240FB
:102430000400024014051000800002400400024025
:10244000180611000000000000000000000000005D
:102450007370695F6C6C645F737461727428292C8B
:10246000202331007370695F6C6C645F73746172F8
:102470007428292C202332007370695F6C6C645FB0
:10248000737461727428292C202333007370695F80
:102490006C6C645F737461727428292C202334007F
:1024A00004020408080003070808080808080808C8
:1024B0000B0F000000000000000000000000000002
:1024C000FFFFFFFF844B888888488488FFFFFFFF59
:1024D000888888888888B8B4FFFFFFFF888884448C
:1024E00088338388FFFFFFFF44888888888888882E
:1024F000FFFFFFFF888888888888888800000000A0
:10250000000000000008014004003000000000004E
:10251000000000000008014004000000000000006E
:1025200053504920746872656164203200000000D5
:1025300053504920746872656164203100000000C6
:04000005080000F0FF
:00000001FF
