:020000040800F2
:100000000004002041020008210400082104000827
:10001000210400082104000821040008210400082C
:1000200021040008210400082104000851040008EC
:1000300021040008210400082104000831050008FB
:1000400021040008210400082104000821040008FC
:1000500021040008210400082104000821040008EC
:1000600021040008210400082104000821040008DC
:1000700021040008210400082104000821040008CC
:1000800021040008210400082104000821040008BC
:1000900021040008210400082104000821040008AC
:1000A000210400082104000821040008210400089C
:1000B000210400082104000821040008210400088C
:1000C000210400082104000821040008210400087C
:1000D000210400082104000821040008210400086C
:1000E000210400082104000821040008210400085C
:1000F000210400082104000821040008210400084C
:10010000210400082104000821040008210400083B
:10011000210400082104000821040008210400082B
:10012000210400082104000821040008210400081B
:10013000210400082104000821040008210400080B
:10014000210400082104000821040008E18C0008B3
:1001500070B582B007F0B4FB00F072FA41F61C30C3
:10016000C2F2000007F094FC41F6681441F61C301E
:100170004BF63031C2F20004C0F60001C2F20000BA
:1001800007F0AEFCE56B4FF47A70AA6B002622F400
:100190000021A96300F084FF4BF660012046C0F601
:1001A000000107F0F5FDE36B41F61C35986B344612
:1001B00040F400229A6309F0BBF941F6885049F6F1
:1001C0009153C2F200004FF498714022C0F6000330
:1001D0000096C2F2000500F0BBFE4CB194F820106E
:1001E0000E2916D04FF47A7000F05AFF002CF5D18A
:1001F000D5F8540203681E78042EEFD14BF2E0705C
:10020000C0F600004FF40B61402209F099F9044652
:10021000E8E7204601F03CF80024E3E7AFF3008074
:10022000704700BFAFF30080AFF30080AFF30080F2
:10023000FEE700BFAFF30080AFF30080AFF30080B4
:1002400072B640F60001C2F2000181F30988022370
:1002500083F31488BFF36F8F40F2000240F2004432
:10026000C2F20002C2F20004A24217D213464FF0BB
:100270005530D64343F8040BA519A342C5F38005B6
:100280000CD225B1186002F10803A34206D21A4627
:1002900042F8040B5860131DA342F8D340F2004209
:1002A000C2F200028A4217D213464FF05530D543AE
:1002B00043F8040B4C198B42C4F380040CD224B1D4
:1002C000186002F108038B4206D21E4646F8040B62
:1002D0005860331D8B42F8D309F05AF840F6E044D9
:1002E00040F60001C2F20001C2F20004A14225D290
:1002F0004BF65840C0F60000024652F8046B0B461D
:10030000CD4343F8046B04EB050CA342CCF380050A
:1003100014D23DB1166800F108021E6001F1080315
:10032000A3420BD2114651F8046B1846526840F8AC
:10033000046B5A60031D0A1DA342F3D340F6E0424A
:1003400041F6C860C2F20002C2F20000824217D237
:1003500000211346D44343F8041B00EB040E8342F0
:10036000CEF380040CD224B1196002F10803834259
:1003700006D21D4645F8041B59602B1D8342F8D355
:1003800040F2501540F25016C0F60005C0F60006C7
:10039000FFF746FFB54219D22C4654F8043BE94317
:1003A00077189847B442C7F380070FD22FB123685C
:1003B00005F108049847B44208D2254655F8042BA5
:1003C000904760682C1D8047B442F6D340F2501528
:1003D00040F25016C0F60005C0F60006FFF7B8FE62
:1003E000B5421AD22C46EF4354F8043B06EB070CF7
:1003F000CCF380079847B4420FD22FB1226805F1A1
:1004000008049047B44208D2254655F8040B8047AB
:1004100061682C1D8847B442F6D3FFF709FF00BF7F
:10042000FEE700BFAFF30080AFF30080AFF30080C2
:1004300072B6FEE7AFF30080AFF30080AFF3008049
:1004400000F096F900F0ECFC00F0B2F900DF00BF1C
:10045000EFF30983203383F30988002383F31188A2
:10046000704700BFAFF30080AFF30080AFF30080B0
:1004700008B54FF440724FF46D43CEF20003C0F262
:10048000FA520021996007201021DA6000F0A8F8E4
:100490000A204FF4007100F0A3F80B208021BDE882
:1004A000084000F09DB800BFAFF30080AFF30080BC
:1004B000202383F311884FF46D40CEF2000043688F
:1004C00013F4006320D0EFF30982A2F1200181F33D
:1004D000098841F21423C2F2000399694FF0807039
:1004E00042F8040C91F8230088B118688B68806882
:1004F000984294BF0023012393B140F24143C0F6D8
:10050000000342F8083C704783F31188704718686D
:100510008B688168994234BF00230123002BECD102
:1005200040F24C41C0F6000142F8081C704700BF81
:1005300008B500F0A5F9202383F3118800F058F9DD
:1005400000F0BEF800F074F9002383F3118800F086
:10055000BFF9BDE80840FFF7ABBF00BFAFF30080B5
:100560002DE9F04FC1F80CD0D0F80CD0BDE8F08FD9
:1005700008B500F01DF9002383F311882846A04731
:1005800000F00EFE08BD00BFAFF30080AFF30080A7
:1005900000F00302F0B4FF23D60003FA06FC00F0DB
:1005A0001F0401FA06F1012505FA04F586084FF447
:1005B0006144CEF20004C03654F82670400927EAA0
:1005C0000C0242EA010300F1600744F8263044F8C7
:1005D000275044F82050F0BC704700BFAFF30080B4
:1005E00000F0030310B4FF22DC0002FA04FC01FA5D
:1005F00004F180084FF46D44CEF20004063054F844
:10060000203023EA0C0242EA010344F8203010BCF7
:10061000704700BFAFF30080AFF30080AFF30080FE
:1006200041F21420C2F2000082694AF28003C0F64F
:1006300000039361FEE700BFAFF30080AFF30080DB
:1006400030B583B0FFF714FF00F07AFA00F0E8F954
:1006500002F0B6FA02F014FB00F0A2F940F6E04016
:100660004021C2F2000000F0EBFB41F2142540F201
:100670000043C2F200030124C2F20005C36180F806
:100680002040A86100F054F8002383F3118862B67B
:100690004AF25022A969C0F600021D4640F63050C9
:1006A00040F221638A61C0F60003C0212246C2F2F3
:1006B0000000009500F04CFC03B030BDAFF30080AB
:1006C000F8B500F02DF941F21423C2F200039B6942
:1006D00093F8232012B1013A83F823205A6A41F299
:1006E0000424571CC2F200045F62E1682768481CBA
:1006F000A742E06018D0BE68013EBE60A6B9386867
:10070000FD684460FE60206000F092F8002383F3EF
:1007100011883869A847202383F3118800F068F80E
:100720002768BB68002BEAD0F8BD00BFAFF300809C
:1007300040F6F050C2F2000003682BB941F2FC12FF
:10074000C2F20002116859B141F2002C4AF2A00035
:10075000C2F2000CC0F60000CCF80000FFF768BE43
:10076000704700BFAFF30080AFF30080AFF30080AD
:1007700040F6F050C2F20000036810B541F2FC14DC
:10078000C2F200040BB9216859B141F2002C4AF2BF
:10079000A802C2F2000CC0F60002CCF80020FFF75D
:1007A00047FE0123236010BDAFF30080AFF300804C
:1007B00040F6F050C2F20000036810B541F2FC149C
:1007C000C2F200042BB92168002902DD0023236056
:1007D00010BD41F2002C4AF2B002C2F2000CC0F689
:1007E0000002CCF80020FFF723FE0023236010BD99
:1007F00040F6F050C2F20000036810B5002B41F241
:10080000FC14C2F2000401DD216859B141F2002C50
:100810004AF2B802C2F2000CC0F60002CCF8002086
:10082000FFF706FE0123236010BD00BFAFF3008079
:1008300040F6F050C2F20000036810B5002B41F200
:10084000FC14C2F2000405DD2168002902DD00234A
:10085000236010BD41F2002C4AF2C002C2F2000C2B
:10086000C0F60002CCF80020FFF7E2FD0023236071
:1008700010BD00BFAFF30080AFF30080AFF3008086
:1008800010B5202383F3118840F6F054C2F200041F
:100890002368002B05DB41F2FC10C2F20000026865
:1008A0005AB141F200234AF2C801C2F20003C0F675
:1008B00000011960FFF7BCFD23685A1C2260002369
:1008C00083F3118810BD00BFAFF30080AFF3008049
:1008D00010B5202383F3118840F6F054C2F20004CF
:1008E0002368002B05DD41F2FC10C2F20000026813
:1008F0005AB141F200234AF2D001C2F20003C0F61D
:1009000000011960FFF794FD23685A1E226000233E
:1009100083F3118810BD00BFAFF30080AFF30080F8
:1009200040F6F050C2F200000368002B07DB41F2F2
:10093000FC12C2F200021168002900DD704741F28A
:10094000002C4AF2D800C2F2000CC0F60000CCF82D
:100950000000FFF76DBD00BFAFF30080AFF3008074
:1009600040F6F050C2F2000003683BB941F2FC12BD
:10097000C2F200021168002900DD704741F2002C2C
:100980004AF2E000C2F2000CC0F60000CCF8000011
:10099000FFF74EBDAFF30080AFF30080AFF30080F0
:1009A00040F6F453C2F200031A46402142F8081BF5
:1009B0005A607047AFF30080AFF30080AFF3008060
:1009C00010B440F6F45341F2042141F2142CC2F267
:1009D0000003C2F20001C2F2000C5A68CC68DCF8D5
:1009E000181014605160846A02F11001946090F84C
:1009F000204003F581608142147328BF03F108028F
:100A0000596028BF5A6010BC704700BFAFF3008028
:100A100041F20023C2F200031860FFF709BD00BFD6
:100A200041F20423C2F200034FF0FF3000225B606A
:100A30001B609860DA607047AFF30080AFF300800E
:100A4000F8B5044615461F460E46FFF769FFD4F178
:100A5000010338BF0023002D08BF43F00103EBB9A9
:100A6000E6B141F20421C2F200010B6827619A68E5
:100A7000E560964204D91B68B61A9A68B242FAD366
:100A80005A68A6608B4262602360146018BF9A683F
:100A90005C601CBFC6EB02069E60F8BD4AF2F00027
:100AA000C0F60000FFF7B4FFDBE700BFAFF3008044
:100AB00010B50446FFF734FF9CB1E368C3B1236867
:100AC00041F20422C2F2000293421FBF9868A2685A
:100AD00082189A606268002113602068E1604260B9
:100AE00010BD4AF20010C0F60000FFF791FFE4E7E6
:100AF0004AF21010C0F60000FFF78AFFDFE700BFE0
:100B000041F20423C2F200038142DB6808D8834229
:100B100034BF002001208B4238BF40F001007047F5
:100B2000834234BF002001208B422CBF002000F004
:100B300001007047AFF30080AFF30080AFF3008097
:100B400041F21423C2F2000300225B601B609A6032
:100B50005B611B61704700BFAFF30080AFF30080A3
:100B600010B50446FFF7DCFE94F82000D0F1010236
:100B700038BF00220E2814BF134642F0010393B978
:100B800041F214230020A16884F82000C2F200037F
:100B90001B689A688A42FBD25968236061600C60C6
:100BA0005C60204610BD4AF23010C0F60000FFF72E
:100BB0002FFFE5E7AFF30080AFF30080AFF30080D5
:100BC00010B52023044683F31188FFF711FE94F833
:100BD00020300D2B11D8DFE803F016101007100B92
:100BE000101010101010100BA06A81684A1C82604F
:100BF00094E80C001A60226853604FF0FF33A36240
:100C00002046FFF7ADFFFFF713FE002383F31188A3
:100C100010BD00BFAFF30080AFF30080AFF30080E2
:100C200070B541F21424C2F200040646FFF798FEA4
:100C30002368A5691A6814200121546085F8206092
:100C400085F8230083F8201028462260A361FFF76F
:100C5000B7FEEA69ADF124039A4205D94AF244107D
:100C6000C0F60000FFF7D4FEA0692946BDE8704039
:100C7000FFF776BCAFF30080AFF30080AFF30080E6
:100C800070B50E4686B00546FFF76AFE731C18D095
:100C900041F21424C2F2000440F6C132A369314685
:100CA000C0F6000201A8FFF7CBFE2846FFF7B8FF09
:100CB000049B13B101A8FFF7FBFEA069806A06B090
:100CC00070BD284641F21424FFF7AAFFC2F20004C7
:100CD000F3E700BFAFF30080AFF30080AFF3008015
:100CE00070B541F21425C2F2000504460E46FFF726
:100CF00037FEA869A2688368A6629A4213D9FFF7F3
:100D00002FFF0122064684F82020AC61FFF758FE31
:100D1000F069ADF1240188420AD820463146BDE889
:100D20007040FFF71DBC2046BDE87040FFF718BFBC
:100D30004AF24410C0F60000FFF76AFEEDE700BF7C
:100D400038B541F21424C2F200042368A5691A6878
:100D500014210120546083F8200085F823102846D0
:100D60002260A361FFF7FCFE2846FFF729FEEA692F
:100D7000ADF124039A4205D94AF24410C0F60000AE
:100D8000FFF746FEA0692946BDE83840FFF7E8BBFB
:100D900038B541F21425C2F200052B68AC691A6817
:100DA000012055602A600022A16883F82000AB6111
:100DB00084F8202000E01B689A688A42FBD85868B3
:100DC0002360606004605C602046FFF7F9FDE16924
:100DD000ADF12403994205D94AF24410C0F600004F
:100DE000FFF716FEA8692146BDE83840FFF7B8BBFB
:100DF00008B5FFF7B5FD41F2142CC2F2000CDCF887
:100E00000010DCF818008A6883689A4200D808BD90
:100E1000BDE80840FFF7BCBFAFF30080AFF3008030
:100E200041F21421C2F20001886990F823300BB11D
:100E3000FFF7AEBFFFF784BFAFF30080AFF30080D2
:100E40002DE9F00141F21424C2F200046569002288
:100E5000046100F13006816000F12C0C00F14C07B8
:100E600045614FF00208606141641424012180F85B
:100E7000208080F8212080F823400264C26342620F
:100E800080F8221082612861C0F82CC04663066396
:100E9000C761BDE8F0017047AFF30080AFF3008099
:100EA000884213D2C34300F8012BCB18884203F0C9
:100EB00001030CD01BB100F8012B884208D0034677
:100EC00003F8012B4270581C8842F8D170477047D4
:100ED000704700BFAFF30080AFF30080AFF3008036
:100EE0002DE9F04104460D461F461646DDF81880F0
:100EF000FFF716FDD4F1010338BF0023AF2D98BFD3
:100F000043F0010343B97F2E94BF00230123002F38
:100F100008BF43F001032BB14AF26010C0F6000095
:100F2000FFF776FD243D40F271516219C0F60001D1
:100F3000E2602046116231466751C2F80480BDE884
:100F4000F041FFF77DBF00BFAFF30080AFF300803B
:100F5000F0B504460D461F4600F14C0E431C83B00D
:100F600016464D30FF211A4603F8011C02F8011BFA
:100F7000531C8342F7D16019864517D25521734619
:100F80006FEA0E0203F8011B00EB020C83420CF027
:100F900001020BD01AB103F8011B834206D01A4696
:100FA00002F8011B5970531C8342F8D1202383F3AC
:100FB0001188FFF7DDFB2046089C3B463246294658
:100FC0000094FFF78DFF00210446FFF789FEFFF72D
:100FD000EFFB002383F31188204603B0F0BD00BF70
:100FE0007F2838B504461AD8202383F31188FFF7E9
:100FF000BFFB41F21423C2F200039B695D6C9A6847
:10100000954201D0944200D99C605C64FFF7F0FEE9
:10101000FFF7CEFB002383F31188284638BD4AF240
:101020007410C0F60000FFF7F3FCDDE7AFF30080BB
:1010300010B52023044683F31188FFF799FB94F839
:101040002030022B05D04AF28C10C0F60000FFF7CA
:10105000DFFC20460021FFF743FEFFF7A9FB00233A
:1010600083F31188204610BDAFF30080AFF30080FA
:1010700010B52023044683F31188FFF779FB94F819
:10108000210040F0040384F82130FFF791FB002396
:1010900083F3118810BD00BFAFF30080AFF3008071
:1010A00010B5044628B94AF2A010C0F60000FFF7B8
:1010B000AFFC202383F31188FFF75AFB214606205B
:1010C000FFF7DEFDFFF774FB002383F3118810BDEB
:1010D00010B52023044683F31188FFF749FB41F242
:1010E0000423C2F20003D968611A02D00620FFF778
:1010F000C7FDFFF75DFB002383F3118810BD00BF20
:1011000008B5202383F31188FFF732FB41F2142C3A
:10111000C2F2000CDCF80010DCF818008A68836862
:101120009A4201D3FFF70CFEFFF742FB002383F343
:10113000118808BDAFF30080AFF30080AFF30080EB
:1011400038B541F21423C2F200039C69254655F8D4
:101150002C3FA062AB4207D01A681846E262FFF744
:10116000FFFCE36AAB42F7D194F82110880701BF76
:10117000226960690261226908BF50610E20FFF791
:101180004FFD4AF2B010C0F60000BDE83840FFF74E
:101190003FBC00BFAFF30080AFF30080AFF300802F
:1011A00010B52023044683F31188FFF7E1FA2046A7
:1011B000BDE81040FFF7C4BFAFF30080AFF300807D
:1011C00038B50446002832D0202383F3118841F239
:1011D0001425C2F20005FFF7CBFAAB69A3421FD07A
:1011E00094F82200A8B194F820100E2906D0AD6919
:1011F000E26A07202A60E562FFF712FDA56AFFF7A1
:10120000D7FA002383F31188204600F041F82846DE
:1012100038BD4AF2E410C0F60000FFF7F9FBE2E740
:101220004AF2D410C0F60000FFF7F2FBD8E74AF20A
:10123000C410C0F60000FFF7EBFBC5E7AFF300807A
:1012400010B52023044683F31188FFF791FA94F830
:101250002230FF2B09D0013384F82230FFF7A8FA9F
:10126000002383F31188204610BD4AF20020C0F607
:101270000000FFF7CDFB94F82230013384F82230D0
:10128000FFF796FA002383F31188204610BD00BFB4
:1012900038B50446202383F31188FFF769FA94F8E0
:1012A0002250002D21D0013DEDB284F82250FFF7ED
:1012B0007FFA002383F311881DB994F820300E2B98
:1012C00000D038BD94F8210000F00303012B15D0A5
:1012D000022BF6D163692169A06C1961226921464C
:1012E0005361BDE8384001F03BBE4AF21420C0F61D
:1012F0000000FFF78DFB94F82250D4E76169236961
:1013000020460B6122695161BDE8384001F030BDD3
:101310002DE9F04182B00D4616461F4601F0E0FC73
:10132000044618B300F14C084146FF22FFF7B8FD10
:10133000404661195522FFF7B3FD202383F311883E
:10134000FFF716FA2046089C32463B462946009491
:10135000FFF7C6FD012380F8213000210446FFF786
:10136000BFFCFFF725FA002383F31188204602B063
:10137000BDE8F081AFF30080AFF30080AFF30080F1
:101380002DE9F043044683B00E46174698460028E0
:101390002ED0204601F0B4FD054628B300F14C09DB
:1013A0004946FF22FFF77CFD6168484669185522CF
:1013B000FFF776FD202383F31188FFF7D9F96168E1
:1013C00032463B462846CDF80080FFF789FD0223D0
:1013D00080F82130002184640546FFF781FCFFF787
:1013E000E7F9002383F31188284603B0BDE8F083B2
:1013F0004AF22820C0F60000FFF70AFBC9E700BF49
:1014000010B5202383F31188FFF7B2F941F21421BC
:10141000C2F200010C6994F82200431C84F82230C7
:10142000FFF7C6F9002383F31188204610BD00BFE3
:1014300038B50546202383F31188FFF799F941F267
:1014400014232C69C2F200039C4219D094F8223074
:10145000FF2B0CD0581C84F82200FFF7A9F90023B9
:1014600083F311882846FFF713FF204638BD4AF260
:101470007020C0F60000FFF7CBFA94F82230E9E7BD
:101480000024EAE7AFF30080AFF30080AFF3008001
:1014900038B5D0F1010338BF002353EAD1730446B5
:1014A0000D4605D04AF29020C0F60000FFF7B0FAD2
:1014B00064602460A56038BDAFF30080AFF30080A6
:1014C000F8B504460E46FFF72BFAD4F1010338BFF6
:1014D000002353EAD6733FD1A5682368002D38DB7B
:1014E000A34206D04AF2B020C0F60000FFF790FAFF
:1014F000A5680135002DA6602ADC60686FF0010741
:1015000041686E1C61600C60FFF72AFB05F0010367
:101510008762002D27D04BB1606801364168616059
:101520000C60FFF71DFB012E87621DD06068751CE3
:101530004368023663601C60FFF712FB87626068D5
:10154000426862601460FFF70BFB8762002DEDD1EB
:10155000F8BDA342CDD1C5E74AF2A020C0F60000F5
:10156000FFF756FAB8E7F8BDF8BD00BFAFF300804B
:1015700038B505460C46202383F31188FFF7F8F8A9
:1015800028462146FFF79CFFFFF732FCFFF710F9D2
:10159000002383F3118838BDAFF30080AFF30080E0
:1015A00038B50446FFF7DCF9002C29D0A36822687F
:1015B000002B0EDBA24206D04AF2D420C0F6000077
:1015C000FFF726FAA368013B002BA36007DB00208E
:1015D00038BDA242F0D0013B002BA360F7DA41F204
:1015E0001425C2F20005A96903208C6262680C60B0
:1015F0004A6061601160FFF713FBA869806A38BD1B
:101600004AF2C420C0F60000FFF702FACEE700BF9E
:1016100010B52023044683F31188FFF7A9F820466C
:10162000FFF7BEFF0446FFF7C3F8002383F31188DA
:10163000204610BDAFF30080AFF30080AFF3008011
:1016400038B504460D46FFF78BF9002C2AD0A36865
:101650002268002B0EDBA24206D04AF20030C0F610
:101660000000FFF7D5F9A3685A1E002AA26007DB25
:10167000002038BDA242F0D05A1E002AA260F7DA3C
:10168000BDB141F21420C2F20000836929469C6278
:10169000626803201C605A6063601360BDE83840D4
:1016A000FFF7EEBA4AF2E820C0F60000FFF7B0F903
:1016B000CDE7A3604FF0FF3038BD00BFAFF300802F
:1016C00038B505460C46202383F31188FFF750F800
:1016D00021462846FFF7B4FF0446FFF769F80023C8
:1016E00083F31188204638BDAFF30080AFF300804C
:1016F00010B50446002834D0A368002B236817DBFC
:10170000A34205D04AF22830C0F60000FFF780F966
:10171000202383F31188FFF72BF8A168481C0028C9
:10172000A06011DDFFF744F8002383F3118810BD9A
:10173000A342E7D0202383F31188FFF719F8A168AB
:10174000481C0028A060EDDC2068002102682260AF
:101750005460FFF7C5FAFFF72BF8002383F31188D5
:1017600010BD4AF21830C0F60000FFF751F9C3E788
:1017700010B50446FFF7D4F8002C22D0A3682268E5
:10178000002B0DDBA24206D04AF25030C0F600001A
:10179000FFF73EF9A3680133002BA36006DD10BDFF
:1017A000A242F1D00133002BA360F8DC21680022B3
:1017B0000B68084623605C608A62BDE81040FFF752
:1017C000CFB94AF23C30C0F60000FFF721F9D5E767
:1017D000F8B504460D46FFF7A3F8D4F1010338BF6E
:1017E0000023002DD8BF43F00103002B48D1A0688F
:1017F0002368002841DBA34205D04AF27C30C0F6C2
:101800000000FFF705F9002D36DDA2680026511C07
:101810006F1EB142A16007F0010738DD013D2BD0FA
:1018200077B1A268501C0028A06038DD013D07D1C7
:101830003DE0A3685A1C002AA26013DD013D1AD0C6
:10184000A068013D431C002BA360F2DC2068016806
:1018500021604C60FFF784F98662A3685A1C002A55
:10186000A260EBDC2068016821604C60FFF778F92A
:10187000013D8662E4D1F8BDF8BDA342C3D1BCE707
:101880004AF26430C0F60000FFF7C2F8AFE7206804
:10189000016821604C60FFF763F98662BEE720684B
:1018A000036823605C60FFF75BF98662BEE7F8BD02
:1018B00038B5D0F1010338BF0023002908BF43F039
:1018C000010304460D46002B66D1A068236800285A
:1018D0002CDBA34205D04AF2A830C0F60000FFF787
:1018E00097F8A9682B68002926DBAB4205D04AF29D
:1018F000C030C0F60000FFF78BF8202383F3118877
:10190000FEF736FFA3685A1C002AA26020DDAA68F1
:10191000501E0028A86028DBFFF76AFA0024FEF7B3
:1019200047FF002383F31188204638BDA342D2D05D
:10193000A9682B680029D8DAAB42D8D0202383F3DA
:101940001188FEF715FFA3685A1C002AA260DEDC8E
:101950002068016821604C60FFF702F9002484626E
:10196000AA68501E0028A860D6DA41F2142CC2F2F0
:10197000000CDCF818406B680320256063606C6025
:101980001C60A562FFF74CF9A46AFEF711FF002363
:1019900083F31188204638BD4AF29430C0F6000027
:1019A000FFF736F891E700BFAFF30080AFF3008098
:1019B00010B5044620B1002364602460A36010BD0C
:1019C0004AF2E030C0F60000FFF722F8002364601E
:1019D0002460A36010BD00BFAFF30080AFF30080B0
:1019E000F8B541F214230546C2F200039C69FEF7E4
:1019F000B7FF002D71D0A86800283CD0A26881688C
:101A0000914208D290F820308260042B4BD0052BF5
:101A100036D0002B24D02B461B689D4203D09868FB
:101A2000A2689042F8D259682360616004205C602B
:101A30000C60A562FFF7F4F8AB68A34205D04AF248
:101A40000040C0F60000FEF7E3FF206CA84216D06D
:101A50004AF21440C0F60000BDE8F840FEF7D8BFD7
:101A600090E80C001A600268012180F82010536091
:101A7000FFF776F8CFE7226CAC60EA602564F8BD2A
:101A800041680768866A0F600768334679601B689B
:101A90009E4202D099689142F9D25A68036042602E
:101AA00010605860B7E741680768866A0F6007688A
:101AB000334679601B689E420DD099689142F9D2F5
:101AC0005A680360426010605860B068A26883681A
:101AD000934297D39FE73346F2E74AF2F030C0F6DD
:101AE0000000FEF795FF86E7AFF30080AFF30080BC
:101AF00010B52023044683F31188FEF739FE2046F3
:101B0000FFF76EFFFEF754FE002383F3118810BD2C
:101B100010B50446FEF724FF74B1A3680BB1002092
:101B200010BD41F21420C2F20000816901200A6C4C
:101B3000A160E2600C6410BD4AF22840C0F60000CB
:101B4000FEF766FFE9E700BFAFF30080AFF3008068
:101B500010B52023044683F31188FEF709FE2046C2
:101B6000FFF7D6FF0446FEF723FE002383F3118818
:101B7000204610BDAFF30080AFF30080AFF30080CC
:101B800041F21423C2F2000370B59D69202383F350
:101B90001188FEF7EDFD2C6C002C36D0A068A84211
:101BA00006D04AF25040C0F60000FEF731FF2C6C20
:101BB0002368E268A3422A641ED0686C4AB11168A7
:101BC000914203D08968884238BF0846D268002A0B
:101BD000F5D11A681E6CA860002122601846546076
:101BE000A360E6601C64FFF77BF8FEF7E1FD0023CD
:101BF00083F31188204670BD0023A360FEF7D8FD53
:101C0000002383F31188204670BD4AF23C40C0F6A1
:101C10000000FEF7FDFE2C6CC0E700BFAFF30080B4
:101C200038B541F21423C2F200039D69FEF798FE15
:101C30002C6C002C2BD0A068A84206D04AF2784029
:101C4000C0F60000FEF7E4FE2C6C2368E268A342B5
:101C50002A6418D0686C4AB11168914203D089682F
:101C6000884238BF0846D268002AF5D11A68196C34
:101C7000A860226018465460A360E1601C64FEF70F
:101C80006FFF204638BD0023A360204638BD4AF2CE
:101C90006440C0F60000FEF7BBFE2C6CCBE700BF33
:101CA00041F21423C2F2000370B59C69202383F330
:101CB0001188FEF75DFD236CC3B100251A68D96851
:101CC0009A422164104608BF9D6008D01168166CC6
:101CD00019604B609A60DE601364FEF741FF236C6D
:101CE000002BEBD1606CA060FFF782F8FEF760FD7F
:101CF000002383F3118870BDAFF30080AFF3008041
:101D000010B5044610B16460246010BD4AF29040E2
:101D1000C0F60000FEF77CFE6460246010BD00BFCA
:101D200010B5044698B1202383F31188FEF720FDF7
:101D30002068A04205D00368002123605C60FEF7A4
:101D4000CFFFFEF735FD002383F3118810BD4AF263
:101D5000A040C0F60000FEF75BFEE4E7AFF30080B2
:101D600010B50446FEF7DCFD54B12068A04206D051
:101D7000016821604C60FEF7F3FE0023836210BD12
:101D80004AF2B440C0F60000FEF742FEEDE700BFA5
:101D900038B50446FEF7C4FD74B12068A0420AD0ED
:101DA0006FF00105036823605C60FEF7D9FE856271
:101DB0002068A042F6D138BD4AF2C840C0F6000003
:101DC000FEF726FEE9E700BFAFF30080AFF3008027
:101DD00010B52023044683F31188FEF7C9FC204682
:101DE000FFF7D6FFFFF704F8FEF7E2FC002383F3CA
:101DF000118810BDAFF30080AFF30080AFF3008017
:101E000041F2142370B5C2F2000305469C69FEF747
:101E1000A7FD002D26D0206CE8B1FFF701FFA562D9
:101E200006462B462A4603E09068A168884210D3F4
:101E300012689542F8D15A682360626014605C6051
:101E40000520FEF7EDFEA46A3046FFF7C9FD2046E7
:101E500070BD1346EFE74AF2F040C0F60000FEF70F
:101E6000D7FDDAE74AF2E040C0F60000FEF7D0FD09
:101E7000D1E700BFAFF30080AFF30080AFF3008085
:101E800010B52023044683F31188FEF771FC204629
:101E9000FFF7B6FF0446FEF78BFC002383F311889F
:101EA000204610BDAFF30080AFF30080AFF3008099
:101EB000F8B504460F46FEF753FDD4F1010338BFD1
:101EC0000023002F08BF43F00103002B29D141F26A
:101ED0001426C2F20006B169086C002828D0FFF76A
:101EE0009FFE0546B06923462646846203E0996852
:101EF0008268914213D31B689C42F8D174680660D3
:101F000044602060706039460520FEF7B9FE044643
:101F1000013002D02846FFF763FD2046F8BD1E467B
:101F2000ECE74AF20450C0F60000FEF771FDCEE780
:101F30004AF21C50C0F60000FEF76AFDCFE700BF72
:101F400038B505460C46202383F31188FEF710FCB4
:101F500021462846FFF7ACFF0446FEF729FC002384
:101F600083F31188204638BDAFF30080AFF30080C3
:101F7000F8B5D0F1010338BF0023002908BF43F0B2
:101F8000010304460D4616462BB14AF24050C0F6F6
:101F90000000FEF73DFD202383F31188FEF7E8FBE8
:101FA00041F21421C2F200012268886900272A60E8
:101FB00025606860AE60EF60FEF7FAFB3B4683F396
:101FC0001188F8BDAFF30080AFF30080AFF300805D
:101FD00038B5D0F1010338BF0023002908BF43F012
:101FE000010304460D46D3B9202383F31188FEF77D
:101FF000BFFB224602E09D4209D01A461368A34265
:10200000F9D1FEF7D5FB002383F3118838BD28688A
:102010001060FEF7CDFB002383F3118838BD4AF230
:102020005850C0F60000FEF7F3FCDDE7AFF3008088
:1020300010B52023044683F31188FEF799FB41F283
:102040001420C2F200008269D36B23EA0401D16339
:102050001C40FEF7ADFB002383F31188204610BD22
:1020600010B52023044683F31188FEF781FB41F26B
:102070001420C2F200008369DA6B1443DC63FEF7BC
:1020800097FB002383F31188204610BDAFF3008037
:1020900038B504460D46FEF743FCBCB1E26B94F83C
:1020A00020301543082BE5630CD0092B00D038BD38
:1020B000A06A0540A842FAD12046FEF751FD002152
:1020C000816238BDA36A1D42F6D138BD4AF26C5018
:1020D000C0F60000FEF79CFCE0E700BFAFF3008015
:1020E00038B504460D4680B1202383F31188FEF7EE
:1020F0003FFB20462946FFF7CBFFFEF779FEFEF7B0
:1021000057FB002383F3118838BD4AF28050C0F694
:102110000000FEF77DFCE7E7AFF30080AFF300803F
:1021200070B505460E46FEF7FBFB75B12C68A5425F
:102130000AD0E168606841EA0603E360A168FFF73E
:10214000A7FF2468A542F4D170BD4AF29050C0F6B2
:102150000000FEF75DFCE9E7AFF30080AFF300801D
:1021600038B505460C46202383F31188FEF700FBA3
:1021700028462146FFF7D4FFFEF73AFEFEF718FB8C
:10218000002383F3118838BDAFF30080AFF30080E4
:102190002DE9F04104460E46E0B18EB100273D46E0
:1021A0004FF0010808FA05F3334205D026EA03068A
:1021B000E3593BB12846984701350437002EF1D149
:1021C000BDE8F0814AF2BC50C0F60000FEF720FCEA
:1021D000E359EFE74AF2A850C0F60000FEF718FCFA
:1021E000DBE700BFAFF30080AFF30080AFF3008008
:1021F00038B541F21423C2F200039C69054620233E
:1022000083F31188FEF7B4FAE36B15EA030206D1F3
:10221000A5620820FEF704FDE36B05EA03025542C0
:10222000154023EA0500E063FEF7C2FA002383F3BA
:102230001188284638BD00BFAFF30080AFF300809F
:1022400041F21423C2F2000370B59C6905462023B5
:1022500083F31188FEF78CFAE36B15EA030606D1C7
:10226000A5620820FEF7DCFCE36B05EA030623EA1F
:102270000600E063FEF79CFA002383F311883046E2
:1022800070BD00BFAFF30080AFF30080AFF30080FC
:1022900038B541F21423C2F200039D69044620239D
:1022A00083F31188FEF764FAEB6B04EA0302A2429F
:1022B00004D0AC620920FEF7B3FCEB6B23EA040008
:1022C000E863FEF775FA002383F31188204638BDD2
:1022D000F8B541F21423C2F200039E6905460F4689
:1022E000202383F31188FEF743FAF36B15EA030406
:1022F0000AD1AFB10820B5623946FEF7C1FC00280B
:102300000EDBF36B05EA03046242144023EA040087
:10231000F063FEF74DFA002383F311882046F8BDE1
:10232000FEF746FA234683F311882046F8BD00BF26
:10233000F8B541F21423C2F200039D6904460F462A
:10234000202383F31188FEF713FAEB6B14EA0306DC
:102350000AD19FB10820AC623946FEF791FC0028F3
:102360000CDBEB6B04EA030623EA0600E863FEF7E6
:102370001FFA002383F311883046F8BDFEF718FAE0
:10238000334683F311883046F8BD00BFAFF30080B9
:1023900041F21423C2F2000370B59D6904460E4653
:1023A000202383F31188FEF7E3F9EB6B04EA0302C1
:1023B000A24209D096B10920AC623146FEF760FC1A
:1023C0000028A8BFEB6B11DB23EA0400E863FEF7EB
:1023D000EFF9002383F31188204670BDFEF7E8F97A
:1023E000334683F311883446204670BDFEF7E0F98A
:1023F000002383F311881C46EEE700BFAFF3008093
:1024000041F21423C2F2000370B504460E469D69E2
:1024100000B3202383F31188FEF7AAF904F13002F8
:10242000AA6294F82010606B0C292A60AE63686081
:10243000656305600AD00A20FEF7F2FBAC6AFEF77E
:10244000B7F9002383F31188204670BD2046FEF7BC
:1024500087FBF0E74AF2D050C0F60000FEF7D8FA4A
:10246000D7E700BFAFF30080AFF30080AFF3008089
:1024700038B5202383F3118841F21425C2F20005F8
:10248000FEF776F9AA69134653F8304F9C420CD0F8
:10249000216811634B600B2384F82030FEF788F924
:1024A000002383F31188204638BD0C20FEF7B8FBCB
:1024B000AA69134653F8304FEAE700BFAFF3008034
:1024C00038B504460D46202383F31188FEF750F9F2
:1024D00094F820300B2B05D04AF2E050C0F60000F3
:1024E000FEF796FA20462946FEF7FAFBFEF760F95A
:1024F000002383F3118838BDAFF30080AFF3008071
:10250000D0F1010338BF0023002908BF43F00103C5
:1025100070B504460D4616469BB9002A11DD05EB41
:10252000860204F11C003146E560A560256062600A
:10253000FEF7AEFF04F110000021BDE87040FEF789
:10254000A7BF4AF20060C0F60000FEF761FAE6E7B6
:1025500010B50446D8B1202383F31188FEF708F99B
:1025600023686268E360D11AA36004F11C0089103B
:10257000FEF7A6FF04F110000021FEF7A1FFFEF711
:1025800037FCFEF715F9002383F3118810BD4AF2DA
:102590001060C0F60000FEF73BFADCE7AFF3008006
:1025A00070B504460D461646FEF7DAF9C4B1314659
:1025B00004F11C00FFF744F8064678B9A368626886
:1025C00043F8045B9342A36028BF236804F1100022
:1025D00028BFA360FFF7CCF8FEF70AFC304670BDB9
:1025E0004AF22060C0F60000FEF712FADFE700BFF3
:1025F00070B5202306460D46144683F31188FEF776
:10260000B7F8224629463046FFF7CAFF0446FEF7D0
:10261000CFF8002383F31188204670BDAFF300800C
:1026200038B504460D46FEF77BF9A4B1636A002B6A
:1026300018DDA268013B6168636242F8045B8A426C
:1026400028BF2368A26004F1100028BFA360FFF731
:102650008FF8002038BD4AF23060C0F60000FEF767
:10266000D7F9E3E74FF0FF3038BD00BFAFF300808C
:1026700070B504460D461646FEF772F9CCB13146E8
:1026800004F11C00FEF7DCFF064660B9E36822682F
:10269000043B9342E36008D304F110001D60FFF790
:1026A00067F8FEF7A5FB304670BD6068031FE36066
:1026B000F2E74AF24060C0F60000FEF7A9F9DEE753
:1026C00070B5202306460D46144683F31188FEF7A5
:1026D0004FF8224629463046FFF7CAFF0446FEF768
:1026E00067F8002383F31188204670BDAFF30080A4
:1026F00038B504460D46FEF713F9A4B1636A002B02
:1027000018DDE2682168043A013B8A426362E260B4
:1027100002D26068021FE26004F110001560FFF74A
:1027200027F8002038BD4AF25460C0F60000FEF7DA
:102730006FF9E3E74FF0FF3038BD00BFAFF3008023
:1027400070B504460D461646FEF70AF9D4F10103AA
:1027500038BF0023002D08BF43F00103C3B9314641
:1027600004F11000FEF76CFF064678B9E068626875
:1027700050F8041B90422960E06024BF2068E060AC
:1027800004F11C00FEF7F4FFFEF732FB304670BD8B
:102790004AF26860C0F60000FEF73AF9DFE700BFD2
:1027A00070B5202306460D46144683F31188FDF7C5
:1027B000DFFF224629463046FFF7C2FF0446FDF7F9
:1027C000F7FF002383F31188204670BDAFF300802C
:1027D00038B504460D46FEF7A3F8D4F1010338BF1F
:1027E0000023002D08BF43F00103ABB9A369002B00
:1027F00019DDE268013BA361606852F8041B824264
:1028000028BF20682960E26028BFE06004F11C0056
:10281000FEF7AEFF002038BD4AF27860C0F6000037
:10282000FEF7F6F8E2E74FF0FF3038BDAFF3008077
:1028300010B4024671B141F21420C2F20000836963
:102840000D209A62546883E814005360236010BC22
:10285000FEF716BA4FF0FF3010BC7047AFF30080A0
:1028600010B4C361019B8A1800244060006084603A
:1028700041618161C1600261036210BC704700BFA9
:1028800038B50446FEF74CF82068E1680023A04202
:102890006161A161A3600AD06FF001050268226046
:1028A0005460FEF75DF9856220688442F6D138BD38
:1028B00038B504460D46FEF733F8A26963699342C2
:1028C000A26818D0511CA16003F8015B2069636104
:1028D000834228BFE368206828BF6361A04208D014
:1028E000026822605460FEF73BF9002383621846B9
:1028F00038BD002038BD002AE4D06FF0030038BD99
:10290000F8B504460D46202383F31188FDF730FF08
:10291000E3690BB120469847A6682046294656B978
:10292000FFF786FF071EF7DAFDF742FF334683F312
:1029300011883846F8BDA369013EA66013F8017BF3
:102940002269A361934224BFE368A361FDF730FFCE
:10295000002383F311883846F8BD00BFAFF3008031
:102960002DE9F0470446904689461D46C769002A6E
:1029700037D0202383F31188FDF7FAFE00260FB12C
:102980002046B847D4F808A020462946BAF1000FDF
:102990000BD1FFF74DFF0028F4D0FDF709FF534698
:1029A00083F311883046BDE8F087A3690AF1FF314F
:1029B000A16013F8010B09F806002269A361934294
:1029C00024BFE368A361FDF7F3FE002383F31188BE
:1029D00001364645E6D0202383F31188FDF7C8FE73
:1029E000CDE74AF29060C0F60000FEF711F8C0E7AC
:1029F00010B4C361019B8C1840600060826041612B
:102A00008161C1600461036210BC7047AFF3008054
:102A100038B50446FDF784FFE36821692068CA1AC7
:102A2000A0426361A361A2600AD06FF00105026851
:102A300022605460FEF794F8856220688442F6D1E3
:102A400038BD00BFAFF30080AFF30080AFF300806C
:102A50002DE9F041202304460D46164683F31188E4
:102A6000FDF786FEA7682046314667B9FFF7E0FE0E
:102A7000B0F10008F6DAFDF79BFE3B4683F31188C0
:102A80004046BDE8F0816369013FA76003F8015B40
:102A900022696361934224BFE3686361E3690BB118
:102AA00020469847FDF784FE002383F3118898465B
:102AB0004046BDE8F08100BFAFF30080AFF3008077
:102AC00038B50446FDF72CFF6269A3699A42A268F3
:102AD00016D0511CA16013F8015B2069A3618342E9
:102AE00028BFE368206828BFA361A04206D002681F
:102AF00022605460FEF734F800238362284638BD14
:102B0000002AE6D06FF0020038BD00BFAFF30080AE
:102B10002DE9F047044615460E469946D0F81C802C
:102B2000002A40D0202383F31188FDF721FE0027DF
:102B3000D4F808A020460AF1FF33BAF1000F24D0E0
:102B4000A3603178636903F8011B226963619342D2
:102B500024BFE3686361B8F1000F00D0C047FDF700
:102B600027FE002383F311880137013D18D0013679
:102B7000202383F31188FDF7FBFDD4F808A020463D
:102B80000AF1FF33BAF1000FDAD120464946FFF7C8
:102B90004FFE0028CCD0FDF70BFE534683F311887F
:102BA0003846BDE8F0874AF2A460C0F60000FDF7A1
:102BB0002FFFB7E7AFF30080AFF30080AFF30080E3
:102BC000094940F2000C41F2342241F23023C2F2B2
:102BD000010C21F00700C2F20002C2F200032CF047
:102BE0000701106019607047CF1E0020AFF300800E
:102BF00010B50446FDF794FE41F2342341F2302C27
:102C0000C2F20003C2F2000C1A68DCF80010E01DEA
:102C100020F00700891A88429ABF10181860002215
:102C2000104610BDAFF30080AFF30080AFF300801B
:102C300010B52023044683F31188FDF799FD204643
:102C4000FFF7D6FF0446FDF7B3FD002383F3118899
:102C5000204610BDAFF30080AFF30080AFF30080DB
:102C600041F2302241F23421C2F20002C2F20001EC
:102C700010680B68C01A7047AFF30080AFF3008094
:102C800041F23823C2F2000342F631420021C0F67D
:102C9000000203F110001A609960D960FEF788BE47
:102CA00070B50D4649070446164601D1530705D0B5
:102CB0004AF2C060C0F60000FDF7AAFE0023083EFD
:102CC00004F110002360A560E36085E84800BDE8DA
:102CD0007040FEF76DBE00BFAFF30080AFF3008021
:102CE000F8B541F23824C2F20004002818BF0446A7
:102CF000073104F1100021F0070604F10805FEF782
:102D0000F7FE00E01D462B6803B35A689642F9D8D7
:102D100006F108018A4216D34FF6F877CFF6FF770F
:102D2000D3F800E0C6EB070C0CEB02005F1843F889
:102D300001E078602F605E601D4645F8084BFEF7A5
:102D40001FFF2846F8BD1A682A60F5E7FEF718FF4E
:102D50002568002DF5D006F10800A8470546002893
:102D6000EFD000F1080580E850002846F8BD00BF0C
:102D7000F8B50746002866D057F8086CA7F1080593
:102D800006F11000FEF7B4FE08363446AC4204D813
:102D90006068083023189D4214D3A31B5A4242EBAB
:102DA0000301A54288BF41F00101D9B12368DBB11D
:102DB0009D4219D31C46AC42EFD8606808302318F6
:102DC0009D42EAD24AF2E060C0F60000FDF720FE24
:102DD000A31B5A4242EB0301A54288BF41F0010107
:102DE0000029E3D12468D1E757F8042C47F8083CC0
:102DF000256002F1080357F8080CE91881420AD04F
:102E0000636803F1080E04EB0E0C654512D0BDE8B3
:102E1000F840FEF7B5BE4868EB581118083147F87E
:102E2000041C47F8083C636803F1080E04EB0E0C21
:102E30006545ECD157F8041C57F8082C5B1808338B
:102E400084E80C00E3E74AF2D060C0F60000FDF72A
:102E5000DFFD91E7AFF30080AFF30080AFF30080B8
:102E600038B541F23824C2F20004002818BF0446E5
:102E700004F110000D46FEF73BFEA3681A461C46FF
:102E80003BB10022144659681B6852180134002BCC
:102E9000F9D105B12A60FEF773FE204638BD00BFA8
:102EA000D0F1010338BF0023032998BF43F0010389
:102EB00070B504460D4616462BB14AF20070C0F6B6
:102EC0000000FDF7A5FD002384E8680070BD00BF89
:102ED00010B50446FDF724FD4CB1206810B103681D
:102EE000236010BDA3680BB16068984710BD4AF21B
:102EF0001070C0F60000FDF78BFDEEE7AFF3008029
:102F000010B52023044683F31188FDF731FC2046D9
:102F1000FFF7DEFF0446FDF74BFC002383F3118827
:102F2000204610BDAFF30080AFF30080AFF3008008
:102F300038B504460D46FDF7F3FCD4F1010338BF64
:102F40000023002D08BF43F001032BB14AF2247087
:102F5000C0F60000FDF75CFD20682860256038BDE4
:102F600038B505460C46202383F31188FDF700FC95
:102F700028462146FFF7DCFFFDF71AFC002383F308
:102F8000118838BDAFF30080AFF30080AFF300804D
:102F9000F8B5D0F1010338BF0023002A08BF43F081
:102FA0000103044616460D461BBB20462946771EE4
:102FB000FFF7D6FF60683E462D1807F001070EB3F5
:102FC0003FB129462046FFF7CBFF6368013E1D4411
:102FD00019D029462046FFF7C3FF62682046AD1886
:102FE0002946FFF7BDFF013E6168013E0D44F0D167
:102FF000F8BD4AF23470C0F60000FDF709FD002E5E
:10300000D3D1F5E7F8BDF8BDAFF30080AFF3008092
:1030100041F65003C2F2000301221A60704700BF5C
:1030200070B541F684064C25C2F2000630682D21A9
:103030000468013DA2689047306841F68404016845
:10304000C2F200048B682D219847013DEED1206823
:103050004BF694010268C0F60001136802229847FB
:1030600070BD00BFAFF30080AFF30080AFF300800E
:10307000F0B585B000283AD04CF6CD426F466C468C
:10308000CCF6CC42A2FB0013DB0803EB830CA0EBD5
:103090004C013031C9B2184604F8011B002BF1D1A4
:1030A000BC4222D9013C41F68406E307C2F2000685
:1030B00015D5306803689A689047306814F8011D88
:1030C00003689A689047BC420FD0306814F8011C1E
:1030D0000368651E9A68904715F8011C023C306829
:1030E00003689A689047BC42EFD105B0F0BD41F645
:1030F0008400C2F20000006830210268936898479B
:10310000F3E700BFAFF30080AFF30080AFF30080C0
:1031100038B5017861B141F684050446C2F2000574
:10312000286802689368984714F8011F0029F7D1AE
:1031300038BD00BFAFF30080AFF30080AFF3008075
:1031400008B5FFF7E5FF41F68400C2F20000006811
:103150004BF694010268C0F60001136802229847FA
:1031600008BD00BFAFF30080AFF30080AFF3008075
:1031700010B52023044683F31188FDF7F9FA41F6D0
:103180005403C2F200031A6802F8014B1A60FDF7FB
:103190000FFB002383F3118810BD00BFAFF3008045
:1031A00010B491B941F64C0441F6580141F6480279
:1031B0000123C2F20004C2F20001C2F20002106058
:1031C00023600B60184610BC70470020FBE700BF6F
:1031D0002DE9F00141F65404C2F20004236841F6DF
:1031E0008802C2F200029D1A15F0010F164615D092
:1031F000934218D911F8015B1778561CAF420DD0D5
:1032000016E096F8008015F801CB7E1CE0450FD142
:1032100091F801C03F78691C674509D1B3420D465A
:1032200006F10107EDD80B7813B92260184610E0BB
:1032300041F64C0441F6580141F648020123C2F21E
:103240000004C2F20001C2F20002106023600B60B1
:103250001846BDE8F0017047AFF30080AFF300807F
:1032600010B5044608461146FDF74AFC80B941F600
:103270004C0141F6580241F648030120C2F2000118
:10328000C2F20002C2F20003086010601C6010BDB0
:10329000002010BDAFF30080AFF30080AFF30080DB
:1032A00010B541F67004C2F20004206808B1FDF7C1
:1032B000DFFE606808B1FDF7DBFEA06808B1FDF72E
:1032C000D7FEE06808B1FDF7D3FE206918B1BDE86C
:1032D0001040FDF7CDBE10BDAFF30080AFF300800E
:1032E00038B541F67004C2F20004206818B1FDF749
:1032F00067FF00232360606841F67005C2F2000595
:1033000018B1FDF75DFF00206860A06841F6700508
:10331000C2F2000518B1FDF753FF0021A960E06873
:1033200041F67005C2F2000518B1FDF749FF002211
:10333000EA60206941F67004C2F2000418B1FDF79A
:103340003FFF0023236138BDAFF30080AFF300805F
:1033500030B44FF47A7404FB00F341F21422C2F249
:10336000000244F6D355A3F57A709469C1F2620560
:10337000A5FB0031626A501C00EB9111636A934215
:1033800034BF002001208A4208D28B422CBF002388
:1033900000F00103002BF1D130BC70478B422CBFF1
:1033A000034640F00103002BE8D1F5E7AFF30080BE
:1033B00008B50120FDF774FE41F20423C2F20003B8
:1033C000D86808BDAFF30080AFF30080AFF3008092
:1033D00038B541F65005C2F2000500242C602023C8
:1033E000054683F31188FDF7C3F94FF47A7101FBA9
:1033F00005FC44F6D352ACF57A70C1F26202A2FB2E
:10340000002341F65C00990943F211022346C2F2FF
:1034100000000131C0F60002FDF712FBFDF7C8F90C
:10342000234683F3118838BDAFF30080AFF30080EB
:103430002DE9F04F41F68406C2F2000630604BF2EF
:10344000487085B0C0F60000FFF77AFE4AF270704F
:10345000C0F60000FFF774FE4AF28C70C0F6000060
:10346000FFF76EFE4AF29070C0F60000FFF750FEC4
:103470004AF2A470C0F60000FFF762FE4AF2B47090
:10348000C0F60000FFF744FE4AF2C870C0F6000024
:10349000FFF756FE4AF2E070C0F60000FFF738FE74
:1034A0004AF2F470C0F60000FFF74AFE4AF6000048
:1034B000C0F60000FFF72CFE4AF61400C0F600002C
:1034C000FFF73EFE4AF61C00C0F60000FFF720FEA4
:1034D0004AF63000C0F60000FFF732FE4AF63C0024
:1034E000C0F60000FFF714FE4AF65000C0F60000D8
:1034F000FFF726FE4AF66800C0F60000FFF708FE58
:103500004AF67C00C0F60000FFF71AFE4AF6980063
:10351000C0F60000FFF7FCFD4AF6AC00C0F6000064
:10352000FFF70EFE4BF24870C0F6000041F658055A
:103530000395FFF705FE039B4AF63011C2F2000324
:103540000393039800224AF6A01341F6540541F66E
:10355000880B41F64C0A41F67007C0F60001026084
:10356000C0F6000302910192C2F20005C2F2000B04
:10357000C2F2000AC2F20007019998464A1C019261
:103580004FF0000958F8041B002971D0FFF748FDDF
:103590004AF6C400C0F60000FFF7BAFD0198FFF735
:1035A00067FD4AF6D400C0F6000009F10109FFF7F3
:1035B000AFFD4846FFF75CFD4AF6D800C0F60000B4
:1035C000FFF7A6FD58F8044C2068FFF7A1FD4AF26A
:1035D000C440C0F60000FFF7B3FDC820FDF760FD52
:1035E00058F8044C00223A607A60BA60FA603A6196
:1035F0006368C5F800B0CAF8002003B19847E168D5
:103600008847A36803B19847FFF76AFEDAF800001D
:10361000002850D04AF6DC00C0F60000FFF778FD25
:1036200041F6480CC2F2000CDCF80000FFF720FD68
:103630004AF6F400C0F60000FFF76AFD2B685B4510
:103640000CD941F68804C2F20004306814F8011B5A
:103650000268936898472A68A242F6D84AF6F800AA
:10366000C0F60000FFF76CFD58F8041B00298DD14F
:10367000029850F8043F0290002B7FF47DAFFFF7D3
:10368000CFFC4BF24870C0F60000FFF759FD4AF638
:103690001010C0F60000FFF73BFD039803688BB9DC
:1036A0004AF60810C0F60000FFF74AFD039A1068BA
:1036B00005B0BDE8F08F4AF6FC00C0F60000FFF749
:1036C0003FFD5FE74AF62010C0F60000FFF738FD27
:1036D000ECE700BFAFF30080AFF30080AFF30080F2
:1036E000F8B541F21424C2F20004A06985686E1C8A
:1036F0003046FDF775FC431B594241EB0301074679
:103700000120FFF74DFD00B1F8BDA26902209368CA
:10371000F11A4A4242EB0101FFF742FD0028F3D1C2
:103720003846FDF75DFC311A484240EB01010320A9
:10373000FFF736FD0028E7D1A16904208A68571BEE
:103740007B4243EB0701FFF72BFD07460028DBD147
:10375000202383F31188FDF70BF8A3699A68911C65
:103760009960FDF725F83B4683F31188A069AF1CEB
:1037700082680520C7EB020CDCF1000343EB0C016F
:10378000FFF70EFD0028BFD13046FDF729FC411B95
:10379000484240EB01010620FFF702FD0028B3D1AB
:1037A000A369072099687A1A534243EB0201FFF795
:1037B000F7FC0028A8D1A2690820536CF11A4A42EC
:1037C00042EB0101FFF7ECFC00289DD1EF1C3846CD
:1037D000FDF706FC301AD0F1000C4CEB000109207B
:1037E000FFF7DEFC00288FD1A2690A209368F91A3E
:1037F000D1F1000E4EEB0101FFF7D2FC002883D17E
:10380000A4690B20636C41F21424F91A4E4246EB72
:103810000101FFF7C5FCC2F20004064600287FF450
:1038200073AF202383F31188FCF7A2FFA0698560A2
:103830004564FCF7BDFF334683F3118864E700BF9E
:10384000F0B541F21427C2F20007B8694AF2507687
:10385000836843F63125C0F60006C0F600054BF636
:103860009C1483B01A1F70682B46C0F600044FF4F6
:1038700098710094FDF76CFBBC693168A26841F651
:103880007004C2F200044AF6D01E6060C0F6000E5A
:10389000053A2B4608464FF49871CDF800E0FDF745
:1038A00057FBBB6931699A684AF6C01C2060C0F6B4
:1038B000000C013A2B4608464FF49871CDF800C031
:1038C000FDF746FBBB69F1689A684AF6C41E2061A1
:1038D000C0F6000E2B460846023A4FF49871CDF818
:1038E00000E0FDF735FB2023E06083F31188FCF74F
:1038F0003FFFBB69B0689A684AF6C8162B464FF47A
:103900009871033AC0F600060096FDF7E9FAA06048
:10391000FCF74EFF002383F31188A068FDF788FBB6
:10392000FFF7DEFC4AF6CC110120C0F6000103B01F
:10393000BDE8F040FFF74CBCAFF30080AFF3008070
:10394000F0B541F21427C2F20007B8694AF2507686
:10395000826843F63125C0F60006C0F600054AF637
:10396000D01483B0053A2B463068C0F600044FF4FB
:1039700098710094FDF7ECFABC69D6F804C0A3680E
:1039800041F67004C2F200044BF69C1E20601A1F20
:10399000C0F6000E2B464FF498716046CDF800E05B
:1039A000FDF7D6FABA69D6F808C093684AF6C81E79
:1039B0006060DA1EC0F6000E2B464FF49871604628
:1039C000CDF800E0FDF7C4FAB969D6F80CC08A68F2
:1039D0004AF6C41EC0F6000EA060023A60462B46AE
:1039E0004FF49871CDF800E0FDF7B2FABB69376982
:1039F0009A684AF6C016E0604FF49871013A2B4677
:103A0000C0F6000638460096FDF7A2FA2061FFF7DF
:103A100067FC4AF6CC110120C0F6000103B0BDE8F6
:103A2000F040FFF7D5BB00BFAFF30080AFF30080DD
:103A300008B50078FFF79CFB002008BDAFF30080BD
:103A400038B541F20424C2F20004FFF7B1FCE56886
:103A50006420FDF725FB012005F1640105F16502F5
:103A6000FFF7FEFB00B138BDE5686420FDF718FBE9
:103A7000022005F1640105F16502FFF7F1FB002862
:103A8000F1D1E5684FF47A70FDF70AFB05F57A711C
:103A900003204A1CFFF7E4FB0028E4D1E46804F1AA
:103AA00064052846FDF714FB0420294604F165024D
:103AB000BDE83840FFF7D4BBAFF30080AFF3008020
:103AC00040F60000C2F200000021FDF7E1BC00BF9B
:103AD00040F60000C2F200000021FDF7D9BC00BF93
:103AE00040F60000C2F200000021FDF7D1BC00BF8B
:103AF00010B586B0002103A8FDF7CAFC002103A879
:103B0000FDF736FD059901200029CCBF00210121D8
:103B1000FFF746FB08B106B010BD41F21424C2F213
:103B20000004A1694AF250708A68C0F6000043F6AA
:103B300011434FF49871013AC0F60003006803ACDA
:103B40000094FDF705FA41F67003C2F20003186015
:103B500003A8FDF75DFD059902200029CCBF0021D7
:103B60000121FFF71DFB0028D5D1202383F3118805
:103B7000FCF7FEFD059B002B3FDDFDF739F9FCF757
:103B800017FE002383F31188059903209942D4BFBF
:103B900000210121FFF704FB0028BCD1059A042075
:103BA000A2F1010EDEF1000C4CEB0E01FFF7F8FA6A
:103BB0000028B0D1202383F31188FCF7D9FD0598A4
:103BC00000281EDDFDF714F9FCF7F2FD002383F356
:103BD0001188059903209942D4BF00210121FFF7E4
:103BE000DFFA002897D1059A0520A2F10103594276
:103BF00041EB0301FFF7D4FA8DE703A8FDF7B8FD09
:103C0000BBE703A8FDF7B4FDDCE700BFAFF300801E
:103C100010B52023044683F31188FCF7A9FDA3689F
:103C2000002B08DDFDF7E4F8FCF7C2FD002383F369
:103C30001188184610BD2046FDF79AFDFDF7D8F80B
:103C4000FCF7B6FD002383F31188184610BD00BFB2
:103C500010B540F60004C2F200042046FDF7D8FC7F
:103C60002046FDF745FD002010BD00BFAFF30080EA
:103C700010B5044640F60000C2F20000FDF7C8FC93
:103C80002078FFF775FA002010BD00BFAFF3008069
:103C900008B53220FDF704FA202383F31188FCF7DE
:103CA00067FD40F60000C2F20000FDF761FDFDF780
:103CB0009FF8FCF77DFD002383F31188184608BDAB
:103CC0002DE9F04341F21426C2F20006B7694AF228
:103CD0005078C0F60008B868D8F800904AF6C017C7
:103CE00043F6714383B0421D4FF49871C0F6000350
:103CF000C0F6000748460097FDF72AF9B569D8F8DD
:103D000004C0AC6841F67005C2F200054AF6C41E54
:103D100043F671432860C0F6000E621C4FF49871A0
:103D2000C0F600036046CDF800E0FDF711F9B36975
:103D3000D8F808C09A684AF6C81E43F6714368600E
:103D4000C0F6000E4FF498710332C0F600036046CF
:103D5000CDF800E0FDF7FCF8B169D8F80CC08C682C
:103D60004BF69C1E43F67143A860C0F6000E6046F9
:103D7000221D4FF49871C0F60003CDF800E0FDF766
:103D8000E7F8B369D8F810E09A684AF6D01443F619
:103D900071434FF498710232C0F60003E860C0F638
:103DA000000470460094FDF7D3F840F60004C2F218
:103DB000000428612046FDF79BFC2046FDF798FC97
:103DC0002046FDF795FC2046FDF792FC2046FDF7C6
:103DD0008FFCFFF785FA4AF6CC110120C0F60001EE
:103DE000FFF7F6F9804610B103B0BDE8F083B06983
:103DF00043F6714382684FF4987148460532C0F625
:103E000000030097FDF7A4F82023286083F31188AE
:103E1000FCF7AEFC20460221FDF7DAFCFCF7C8FCFB
:103E2000434683F31188FFF75BFAA2680220A2F1F0
:103E3000010EDEF1000141EB0E0103B0BDE8F043DD
:103E4000FFF7AEB9AFF30080AFF30080AFF30080AF
:103E500010B541F2142EC2F2000EDEF818104AF22C
:103E600050708A68C0F6000043F6514382B00132B8
:103E7000C0F6000300244FF4987100680094FDF729
:103E800067F840F6000441F6700CC2F20004C2F27A
:103E9000000CCCF8000021462046FDF709FD226801
:103EA0000120131B594241EB0301FFF779F908B1D7
:103EB00002B010BDA3680220D3F1010138BF002178
:103EC000FFF76EF90028F3D121462046FDF7F0FCFC
:103ED00023680320191B4A4242EB0101FFF760F9F6
:103EE0000028E5D1A2680420D2F1010138BF0021E9
:103EF00002B0BDE81040FFF753B900BFAFF3008038
:103F000070B540F60004C2F2000482B000212046E1
:103F1000FDF7D6FBA0F1FF33594241EB030101202D
:103F2000FFF73EF908B102B070BD23680220191BEB
:103F30004A4242EB0101FFF733F90028F3D1A568AB
:103F40000320D5F1010138BF0021FFF729F905460B
:103F50000028E8D141F2142EC2F2000EDEF818104B
:103F60004AF250708A68C0F6000043F69143013A65
:103F7000C0F600034FF4987100680095FCF7E8FF65
:103F800041F6700CC2F2000C4FF4FA71CCF800004C
:103F90002046FDF795FB0546FFF7A2F90420D5F171
:103FA000010138BF0021FFF7FBF80028BBD12168D1
:103FB00005200A1B534243EB0201FFF7F1F80028EA
:103FC000B1D1A3680620D3F1010138BF0021FFF76A
:103FD000E7F80028A7D141F20426FFF7E9F9C2F279
:103FE00000064120F668FFF7C3F84FF4FA71204647
:103FF000FDF766FBA0F1FF3CDCF1000040EB0C019B
:104000000720FFF7CDF800288DD123680820191B61
:104010004A4242EB0101FFF7C3F8002883D1A268AE
:104020000920D2F1010138BF0021FFF7B9F80028BB
:104030007FF479AF4220FFF79BF84FF4FA712046E6
:10404000FDF73EFBA0F1FF31484240EB01010720A4
:10405000FFF7A6F800287FF466AF216808200A1B46
:10406000534243EB0201FFF79BF800287FF45BAF5C
:10407000A3680920D3F1010138BF0021FFF790F8B0
:1040800000287FF450AF4320FFF772F84FF4FA7125
:104090002046FDF715FBA0F1FF3CDCF1000040EBF2
:1040A0000C010720FFF77CF800287FF43CAF236861
:1040B0000820191B4A4242EB0101FFF771F8002862
:1040C0007FF431AFA2680920D2F1010138BF00218D
:1040D000FFF766F800287FF426AF4420FFF748F882
:1040E0004FF4FA712046FDF7EBFAA0F1FF31484298
:1040F00040EB01010720FFF753F800287FF413AFCE
:10410000216808200A1B534243EB0201FFF748F8DD
:1041100000287FF408AFA3680920D3F1010138BF5C
:104120000021FFF73DF800287FF4FDAE4520FFF7A2
:104130001FF84FF4FA712046FDF7C2FAA0F1FF3CD8
:10414000DCF1000242EB0C010720FFF729F8002800
:104150007FF4E9AE23680820191BD1F1000E4EEB65
:104160000101FFF71DF800287FF4DDAEA2680920E9
:10417000D2F1010138BF0021FFF712F800287FF4C7
:10418000D2AE4AF6CC110A20C0F60001FFF720F8A3
:1041900000287FF4C8AE06F51C62111D0B20093201
:1041A00002B0BDE87040FFF75BB800BFAFF300801E
:1041B00041F21420F0B5C2F2000083694AF2507552
:1041C0009E68C0F600054AF6C01444F2E12383B0AD
:1041D000721C2868C0F600044FF49871C0F6000302
:1041E0000094FCF7B5FE41F67004D5F804E0C2F285
:1041F00000044AF6C81744F2B1232060B21C70468E
:10420000C0F600074FF49871C0F600030097FCF762
:104210009FFEAF6844F271234AF6C4154FF49871BB
:10422000F21CC0F600036060C0F600053846009539
:10423000FCF78EFE40F62C05C2F20005A060284671
:10424000FDF76EFD2846FDF76BFDFFF749F84AF6CE
:1042500050310120C0F6000103B0BDE8F040FEF788
:10426000B7BF00BFAFF30080AFF30080AFF30080B3
:1042700010B5044640F61C00C2F20000FDF738FC01
:104280002078FEF775FFFDF77BFC002010BD00BF16
:1042900010B5044640F60C00C2F20000FDF728FC01
:1042A0002078FEF765FFFDF76BFC002010BD00BF16
:1042B00010B5044640F60C00C2F20000FDF718FCF1
:1042C00040F62C00C2F20000FDF7DAFD2078FEF780
:1042D0004FFFFDF755FC002010BD00BFAFF300807D
:1042E00010B5044640F61C00C2F20000FDF700FCC9
:1042F00040F60C00C2F20000FDF7FAFB40F62C007D
:104300004FF0FF31C2F20000FDF71AFE2078FEF7F1
:104310002FFFFDF735FCFDF733FC002010BD00BF7B
:1043200040F62C0008B5C2F20000FDF7E9FC40F6AB
:104330000C00C2F20000FDF73BFB40F61C00C2F28D
:104340000000BDE80840FDF733BB00BFAFF30080BD
:1043500040F62C0008B5C2F20000FDF7D1FC40F693
:104360000C00C2F20000BDE80840FDF721BB00BF11
:1043700040F62C0008B5C2F20000FDF7C1FC40F683
:104380000C00C2F20000BDE80840FDF711BB00BF01
:1043900040F60C00C2F20000FDF70ABBAFF300804C
:1043A00040F60C0008B5C2F20000FDF701FB40F634
:1043B0001C00C2F20000BDE80840FDF7F9BA00BFDA
:1043C00040F60C0008B5C2F20000FDF7F1FA40F625
:1043D0001C00C2F20000BDE80840FDF7E9BA00BFCA
:1043E00040F60C00C2F20000FDF7E2BAAFF3008025
:1043F00040F60C00C2F20000FDF7DABAAFF300801D
:1044000041F21420F0B5C2F2000083694AF25076FE
:104410009F6844F2B125C0F60006C0F600054AF6D2
:10442000D01483B07A1C2B463068C0F600044FF4D9
:1044300098710094FCF78CFD41F67004D6F804C026
:10444000C2F200044BF69C1E2060C0F6000EBA1C9F
:104450002B464FF498716046CDF800E0FCF778FDEC
:10446000D6F808C04AF6C81E6060C0F6000EFA1CF6
:104470002B464FF498716046CDF800E0FCF768FDDC
:10448000D6F80CC04AF6C41EA060C0F6000E604606
:104490003A1D2B464FF49871CDF800E0FCF758FD1B
:1044A000D6F810E04AF6C0164FF498717A1D2B46E4
:1044B000E060C0F6000670460096FCF749FD2061FA
:1044C00040F62C00C2F20000FDF782FCFEF708FF68
:1044D0004AF6CC110120C0F6000103B0BDE8F0405F
:1044E000FEF776BEAFF30080AFF30080AFF300803D
:1044F00041F21420F0B5C2F2000083694AF250760E
:104500009F6844F2B125C0F60006C0F600054AF6E1
:10451000D01483B07A1C2B463068C0F600044FF4E8
:1045200098710094FCF714FD41F670047168C2F2B2
:1045300000044BF69C1E2060C0F6000EBA1C2B46F1
:1045400008464FF49871CDF800E0FCF701FDB16822
:104550004AF6C81CC0F6000C6060FA1C2B460846E0
:104560004FF49871CDF800C0FCF7F2FCF1684AF600
:10457000C41EA060C0F6000E3A1D2B4608464FF43C
:104580009871CDF800E0FCF7E3FC32694AF6C016FA
:10459000E0602B46C0F6000610464FF498717A1D75
:1045A0000096FCF7D5FC2023206183F3118840F6A8
:1045B0002C04C2F20004FCF7DBF82046FDF7D0FB28
:1045C0002046FDF7CDFB2046FDF7CAFB2046FDF750
:1045D000C7FB2046FDF7C4FBFCF70AFCFCF7E8F834
:1045E000002383F31188FEF77BFE4AF6CC110120ED
:1045F000C0F6000103B0BDE8F040FEF7E9BD00BF22
:10460000F0B541F21427C2F20007BE6940F60C0073
:1046100083B0B668C2F200004AF25075FDF768FA3E
:10462000C0F600054AF6D01444F29123721C2868A3
:10463000C0F600044FF49871C0F600030094FCF734
:1046400087FC41F67004D5F804C0C2F200044BF6B2
:104650009C1E44F291232060C0F6000EB21C4FF461
:104660009871C0F600036046CDF800E0FCF770FCDE
:10467000D5F808C04AF6C81E44F291236060C0F61F
:10468000000EF21C4FF49871C0F600036046CDF89E
:1046900000E0FCF75DFCD5F80CC04AF6C41E44F2FD
:1046A0009123A060C0F6000E6046321D4FF4987151
:1046B000C0F60003CDF800E0FCF74AFCD5F810E0A6
:1046C00044F291234AF6C015721D4FF49871C0F65A
:1046D0000003E060C0F6000570460095FCF738FC6A
:1046E0002061FDF74DFAFEF7FBFDB96901208A68EC
:1046F000931B594241EB0301FEF752FD08B103B091
:10470000F0BD4AF6CC110220C0F6000103B0BDE8AE
:10471000F040FEF75DBD00BFAFF30080AFF3008057
:10472000F8B541F21425C2F2000540F60C04AB695D
:10473000C2F2000420469E68FDF70AFA01460120F5
:10474000FEF72EFD00B1F8BD2046FDF701FAD0F1CD
:10475000010138BF00210220FEF722FD0746002894
:10476000F1D1202383F31188FCF702F8FDF758FA02
:10477000FCF71EF83B4683F31188236803201A1BBD
:10478000514241EB0201FEF70BFD0028DBD1A1688D
:104790000420D1F1010138BF0021FEF701FD0028FE
:1047A000D1D1AA69052091688B1B5A4242EB0301C3
:1047B000FEF7F6FC0028C6D12046FDF799F9FDF773
:1047C0006FFA22680620111B4B4243EB0101FEF7F2
:1047D000E7FC0028B7D1A3680720D3F1010138BF57
:1047E0000021BDE8F840FEF7DBBC00BFAFF300805E
:1047F0002DE9F04741F21424C2F20004A0694AF204
:1048000050768768C0F60006D6F8009007F10108D8
:104810004AF6C41544F6C12382B0C0F600054FF431
:1048200098714246C0F6000348460095FCF790FB9D
:1048300041F67005D6F804A0C2F20005BE1C4AF687
:10484000C01E44F6A1234FF498712860C0F6000EF4
:104850003246C0F600035046CDF800E0FCF778FB86
:10486000686040F61C00C2F20000FDF741F9A16942
:1048700001208B68DA1B514241EB0201FEF790FCEC
:1048800010B102B0BDE8F0876420FCF709FCA16913
:1048900002208B68C8EB030CDCF1000242EB0C0138
:1048A000FEF77EFC0028ECD140F60C00C2F20000BE
:1048B000FDF71EF9A26903209168C8EB01035A4273
:1048C00042EB0301FEF76CFC0028DAD16420FCF710
:1048D000E7FBA36904209A68911B4B4243EB01015B
:1048E000FEF75EFC0028CCD1FDF74AF9A36905204C
:1048F0009A68C8EB0201D1F1000C4CEB0101FEF704
:104900004FFC0028BDD16420FCF7CAFBA369062038
:104910009A68C8EB0201D1F1000C4CEB0101FEF7E3
:104920003FFC0028ADD1FDF7BBF9A16907208B68DA
:10493000DA1B514241EB0201FEF732FC0028A0D104
:10494000FEF7CEFC4BF69C1C44F6C123C0F6000CCF
:104950004FF498714246C0F600034846CDF800C0B7
:10496000FCF7F6FA4AF6C81E44F6A1234FF49871F4
:104970002860C0F6000E3246C0F600035046CDF85F
:1049800000E0FCF7E5FA686040F61C00C2F20000A7
:10499000FDF7AEF8A26908209168CB1B5A4242EBA2
:1049A0000301FEF7FDFB00287FF46BAF6420FCF7EA
:1049B00077FBA36909209A68C8EB02014B4243EBDD
:1049C0000101FEF7EDFB00287FF45BAF40F60C0021
:1049D000C2F20000FDF78CF8A3690A209A68C8EBC0
:1049E0000201D1F1000C4CEB0101FEF7D9FB0028CC
:1049F0007FF447AF6420FCF753FBA4690B20A26847
:104A000041F21424911B4D4245EB0101FEF7C8FB16
:104A1000C2F20004054600287FF433AF202383F35D
:104A20001188FBF7A5FEFDF7FBF8FBF7C1FE2B464F
:104A300083F31188A3690C209A68C8EB02014B42EA
:104A400043EB0101FEF7ACFB00287FF41AAF6420B2
:104A5000FCF726FBA3690D209A68C8EB0201D1F18F
:104A6000000C4CEB0101FEF79BFB00287FF409AF23
:104A7000FDF716F9A3690E209A68D11BD1F1000C3D
:104A80004CEB0101FEF78CFB00287FF4FAAE02B07C
:104A9000BDE8F047FEF724BCAFF30080AFF3008021
:104AA00008B59620FCF7FCFA40F60C00C2F20000B4
:104AB000FDF71EF8FDF764F8002008BDAFF3008095
:104AC00008B53220FCF7ECFA40F61C00C2F20000F8
:104AD000FDF70EF8FDF754F8002008BDAFF3008095
:104AE0002DE9F04141F2142682B0C2F20006FEF731
:104AF0005FFCB0694AF250758268C0F6000541F269
:104B0000042844F67153002728684FF49871053A39
:104B1000C0F60003C2F20008D8F80C800097FCF73A
:104B200017FAB469D5F804E0A26841F67004C2F23D
:104B3000000444F6215320604FF498717046043A03
:104B4000C0F600030097FCF703FAB369D5F808C074
:104B50009A6844F6F14360604FF498716046033AF6
:104B6000C0F600030097FCF7F3F9B169D5F80CE043
:104B70008A6844F6D143A0604FF498717046023AB7
:104B8000C0F600030097FCF7E3F9B3692D699A6852
:104B900044F6A1434FF49871E060013AC0F6000377
:104BA00028460097FCF7D4F92061FEF799FB4AF6F6
:104BB000CC110120C0F60001FEF70AFB10B102B0D3
:104BC000BDE8F081022008F16E0108F1730202B025
:104BD000BDE8F041FEF744BBAFF30080AFF30080C7
:104BE0002DE9F04141F2142682B0C2F20006FEF730
:104BF000DFFBB0694AF250758268C0F6000541F2E9
:104C0000042444F6F15300272868C2F200044FF44C
:104C10009871013AC0F60003D4F80C800097FCF7B5
:104C200097F9B169D5F804E08A6841F67004C2F2D8
:104C3000000444F6D15320604FF498717046023A54
:104C4000C0F600030097FCF783F9B369AD689A6872
:104C500044F6A1534FF498716060033AC0F6000324
:104C600028460097FCF774F9A060FEF739FB4AF676
:104C700050310120C0F60001FEF7AAFA10B102B0CF
:104C8000BDE8F081022008F1640108F1690202B078
:104C9000BDE8F041FEF7E4BAAFF30080AFF3008067
:104CA00008B53220FCF7FCF940F61C00C2F2000007
:104CB000FCF71EFF0A20FEF74BFBFCF761FF4120CB
:104CC000FEF756FA002008BDAFF30080AFF3008076
:104CD00008B52820FCF7E4F91420FEF739FB422040
:104CE000FEF746FA002008BDAFF30080AFF3008066
:104CF00008B51420FCF7D4F940F61C00C2F20000FD
:104D0000FCF7F6FE0A20FEF723FBFCF739FF4320F1
:104D1000FEF72EFA002008BDAFF30080AFF300804D
:104D200008B50A20FCF7BCF940F61C00C2F20000EE
:104D3000FCF7DEFE1420FEF70BFB40F60C00C2F27F
:104D40000000FCF7D5FE0A20FEF702FBFCF718FF77
:104D50000A20FEF7FDFAFCF713FF4420FEF708FADD
:104D6000002008BDAFF30080AFF30080AFF30080F8
:104D700040F60C0008B5C2F20000FCF7B9FE1E2098
:104D8000FEF7E6FAFCF7FCFE4520FEF7F1F90020FD
:104D900008BD00BFAFF30080AFF30080AFF3008029
:104DA00040F60C0008B5C2F20000FCF7A1FE282076
:104DB000FEF7CEFAFCF7E4FE0A20FEF7C9FA43201C
:104DC000FEF7D6F9002008BDAFF30080AFF30080F6
:104DD00008B51420FCF764F92820FEF7B9FA422040
:104DE000FEF7C6F9002008BDAFF30080AFF30080E6
:104DF00008B52820FCF754F940F60C00C2F2000078
:104E0000FCF776FE0A20FEF7A3FAFCF7B9FE412074
:104E1000FEF7AEF9002008BDAFF30080AFF30080CD
:104E200041F2142110B5C2F200018C694AF25070AF
:104E3000A268C0F6000044F6B16382B001324FF4BC
:104E40009871C0F6000300680094FCF781F841F601
:104E50007003C2F200031860FDF70AFB846B214661
:104E6000FDF72EFBE0B2FEF783F9FDF701FB846B43
:104E70002146FDF725FBE0B2FEF77AF9FDF7F8FAD7
:104E8000846B2146FDF71CFBE0B2FEF771F94AF690
:104E900050310120C0F6000102B0BDE81040FEF71D
:104EA00097B900BFAFF30080AFF30080AFF300808D
:104EB00010B541210446FDF7A3FA42212046FDF733
:104EC0009FFA20464321FDF79BFA002010BD00BF4A
:104ED00040F6340041F25821C2F20000C2F2000153
:104EE0000522FDF70DBB00BFAFF30080AFF30080DC
:104EF00070B540F63404C2F20004636A0120A3F1E5
:104F00000502514282B041EB0201FEF749F9002847
:104F100045D1422120464FF0FF32FDF769FBD0F129
:104F2000010138BF00210220FEF73AF9B8BB432146
:104F300020464FF0FF32FDF75BFBD0F1010138BF97
:104F400000210220FEF72CF948BB442120464FF0F7
:104F5000FF32FDF74DFBD0F1010138BF00210220E7
:104F6000FEF71EF9D8B9452120464FF0FF32FDF774
:104F70003FFBD0F1010138BF00210220FEF710F9FC
:104F800068B9412120464FF0FF32FDF799FBD0F17F
:104F9000010138BF00210320FEF702F908B102B079
:104FA00070BD582101222046FDF722FBA0F1FF35FC
:104FB000684240EB05010420FEF7F2F805460028A0
:104FC000EDD1202383F31188FBF7D2FB5821204633
:104FD000FDF726FB0646FBF7EBFB2B4683F3118818
:104FE000A6F1FF310520D1F1000C4CEB0101FEF7D9
:104FF000D7F80028D3D1582101222046FDF760FBC5
:10500000A0F1FF335A4242EB03010620FEF7C8F835
:1050100005460028C3D1202383F31188FBF7A8FBA2
:1050200058212046FDF764FB0646FBF7C1FB2B46E3
:1050300083F31188A6F1FF310720D1F1000C4CEB6E
:105040000101FEF7ADF80028A9D1202383F31188D0
:10505000FBF78EFB646A0820D4F1010138BF002100
:10506000FEF79EF840F634040646C2F2000400281B
:1050700040F02F83FBF79CFB334683F311882023FA
:1050800083F31188FBF774FBA3690920A3F10505DD
:105090006A4242EB0501FEF783F80546002840F01E
:1050A0001E83FBF785FB2B4683F31188202383F3B4
:1050B0001188FBF75DFBE268A3680A20D11A4E4213
:1050C00046EB0101FEF76CF80646002840F00D8320
:1050D000FBF76EFB334683F311884FF0FF3201A9D3
:1050E0002046FDF75DFBD0F1010138BF00210B2008
:1050F000FEF756F800287FF452AF9DF80400FEF743
:1051000037F801A920464FF0FF32FDF749FBD0F1F7
:10511000010138BF00210B20FEF742F800287FF480
:105120003EAF9DF80400FEF723F801A920464FF09A
:10513000FF32FDF735FBD0F1010138BF00210B2014
:10514000FEF72EF800287FF42AAF9DF80400FEF742
:105150000FF801A920464FF0FF32FDF721FBD0F1F7
:10516000010138BF00210B20FEF71AF800287FF458
:1051700016AF9DF80400FDF7FBFF01A920464FF094
:10518000FF32FDF70DFBD0F1010138BF00210B20EC
:10519000FEF706F800287FF402AF9DF80400FDF743
:1051A000E7FF4AF6CC110C20C0F60001FEF710F81C
:1051B00000287FF4F4AE472120464FF0FF32FDF780
:1051C00017FAD0F1010138BF00210D20FDF7E8FFEB
:1051D00000287FF4E4AE40F63404C2F2000401A9D2
:1051E00020464FF0FF32FDF7DBFAD0F1010138BF66
:1051F00000210E20FDF7D4FF00287FF4D0AE2368F5
:10520000A2680F20991AD1F1000E4EEB0101FDF7B3
:10521000C7FF00287FF4C3AE2268E3681020D11ACC
:10522000D1F1000E4EEB0101FDF7BAFF00287FF42B
:10523000B6AE012201A92046FDF7B2FAA0F1FF3572
:10524000684240EB05011120FDF7AAFF0546002842
:105250007FF4A5AE202383F31188FBF789FA01A917
:105260002046FDF7B5FA0646FBF7A2FA2B4683F374
:105270001188A6F1FF311220D1F1000C4CEB010195
:10528000FDF78EFF054600287FF489AE202383F3C7
:105290001188FBF76DFA636A1320A3F105025642E9
:1052A00046EB0201FDF77CFF0646002840F01D8218
:1052B000FBF77EFA334683F31188202383F31188AA
:1052C000FBF756FAA5691420D5F1010138BF00217A
:1052D000FDF766FF0546002840F00182FBF768FAFB
:1052E0002B4683F31188202383F31188FBF740FAC0
:1052F000A668E2681520911BD1F1000C4CEB01016E
:10530000FDF74EFF0646002840F0EF81FBF750FA0C
:10531000334683F31188202383F31188FBF728FA9F
:1053200041212046FDF77CF9D0F1010138BF002171
:105330001620FDF735FF00287FF431AE42212046CC
:10534000FDF76EF9D0F1010138BF00211720FDF7FC
:1053500027FF00287FF423AE40F63404C2F2000495
:1053600043212046FDF75CF9D0F1010138BF00214F
:105370001820FDF715FF00287FF411AE44212046C8
:10538000FDF74EF9D0F1010138BF00211920FDF7DA
:1053900007FF054600287FF402AE45212046FDF7B1
:1053A0003FF90646FBF704FA2B4683F311881A20CF
:1053B000D6F1010138BF0021FDF7F2FE00287FF48D
:1053C000EEADA368E2681B20D11A4B4243EB01010A
:1053D000FDF7E6FE00287FF4E2AD0525202383F3E8
:1053E000118840F63404C2F20004FBF7C1F901A9A8
:1053F0002046FDF7EDF90646FBF7DAF9002383F3C3
:105400001188F11A1C20D1F1000C4CEB0101FDF7C1
:10541000C7FE00287FF4C3AD9DF80400FDF7A8FE89
:10542000013DDBD14AF6CC111D20C0F60001FDF78D
:10543000CFFE00287FF4B3AD202383F31188FBF760
:1054400097F9616A1E20A1F10502534243EB020164
:10545000FDF7A6FE002840F04881FBF7A9F92B468E
:1054600083F31188202383F31188FBF781F9A36963
:105470001F20D3F1010138BF0021FDF791FE002864
:1054800040F03381FBF794F92B4683F31188E268EF
:10549000A3682020D11A4A4242EB0101FDF780FEA9
:1054A00000287FF47CAD202383F31188FBF760F99B
:1054B00045212046FDF71CF9D0F1010138BF00213C
:1054C0002120FDF76DFE00287FF469AD44212046C0
:1054D000FDF70EF9D0F1010138BF00212220FDF7C0
:1054E0005FFE00287FF45BAD43212046FDF700F905
:1054F000D0F1010138BF00212320FDF751FE002823
:105500007FF44DAD42212046FDF7F2F8D0F10101C4
:1055100038BF00212420FDF743FE00287FF43FAD73
:1055200040F63404C2F2000441212046FDF7E0F8C1
:105530000546FBF73DF9002383F31188EB1A25207C
:10554000594241EB0301FDF72BFE00287FF427AD04
:10555000E268A3682620D11A4A4242EB0101FDF716
:105560001FFE00287FF41BAD0525202383F311883F
:1055700040F63404C2F20004FBF7FAF801A9204611
:10558000FDF726F90646FBF713F9002383F311888C
:10559000F11A2720D1F1000C4CEB0101FDF700FEC0
:1055A00000287FF4FCAC9DF80400FDF7E1FD013D0F
:1055B000DBD14AF6CC112820C0F60001FDF708FE29
:1055C00000287FF4ECAC202383F31188FBF7D0F89C
:1055D000616A2920A1F105035A4242EB0301FDF75C
:1055E000DFFD002840F08180FBF7E2F82B4683F3D3
:1055F0001188202383F31188FBF7BAF8A2692A20C7
:10560000D2F1010138BF0021FDF7CAFD00286CD19D
:10561000FBF7CEF82B4683F31188A368E2682B20B2
:10562000D11A4B4243EB0101FDF7BAFD00287FF48C
:10563000B6AC2046FCF78CFF202383F31188FBF7E0
:1056400097F8626A2C20A2F10501D1F1000C4CEB15
:105650000101FDF7A5FD002847D1FBF7A9F82B466E
:1056600083F31188202383F31188FBF781F8A36962
:105670002D20D3F1010138BF0021FDF791FDA0BB22
:10568000FBF796F82B4683F31188202383F31188C8
:10569000FBF76EF82268A3682E20D11AD1F1000C16
:1056A0004CEB0101FDF77CFDF8B9FBF781F82B46C7
:1056B00083F31188202383F31188FBF759F82368BB
:1056C000E2682F20991AD1F1000C4CEB0101FDF793
:1056D00067FDFBF76DF8002383F311885FE4FBF7A8
:1056E00067F8334683F3118859E4FBF761F82B46DA
:1056F00083F3118853E400BFAFF30080AFF3008061
:105700004FF0FF30FCF794BCAFF30080AFF30080A4
:105710004FF0FF30FCF78CBCAFF30080AFF300809C
:105720004FF0FF30FCF784BCAFF30080AFF3008094
:1057300040F65C0008B50021C2F20000FCF710FD45
:105740003220FBF7ADFC40F66000C2F20000002101
:10575000FCF706FD002008BDAFF30080AFF300802A
:1057600010B504463220FBF79BFC20460121FCF7D4
:10577000B7FC002010BD00BFAFF30080AFF3008086
:1057800010B540F65C0488B0C2F200040122204645
:1057900069462460FCF7ECFB204604A90222FCF7D2
:1057A000E7FB21680120091B18BF0121FDF7F8FC68
:1057B00008B108B010BD20466946FCF709FC226814
:1057C0000220111B18BF0121FDF7EAFC0028F0D1CF
:1057D000204604A9FCF7FCFB216803200B1BD3F136
:1057E000000C4CEB0301FDF7DBFC0028E1D14AF68D
:1057F000B0500721C0F60000FCF7CAFC4AF6503151
:105800000420C0F60001FDF7E3FCD2E7AFF300800F
:105810004320FDF7ADBC00BFAFF30080AFF30080C5
:105820004220FDF7A5BC00BFAFF30080AFF30080BE
:105830004120FDF79DBC00BFAFF30080AFF30080B7
:1058400008B500214FF0FF30FCF742FDD0F1010117
:1058500038BF00210120FDF7A3FC00B108BD0146BF
:105860004FF0FF30FCF764FDD0F1010138BF00219B
:105870000220FDF795FC0028F0D101464FF0FF30E3
:10588000FCF786FDD0F1010138BF00210320FDF7B0
:1058900087FC0028E2D10A214FF0FF30FCF718FD09
:1058A000D0F1010138BF00210420FDF779FC002868
:1058B000D4D10A214FF0FF30FCF73AFDD0F10101BD
:1058C00038BF00210520FDF76BFC0028C6D10A2156
:1058D0004FF0FF30FCF75CFDD0F1010138BF002133
:1058E0000620BDE80840FDF75BBC00BFAFF30080B9
:1058F0002DE9F04305208BB0FCF7B2FB4FF0FF30F1
:10590000FCF776FCA0F10100414241EB00010120CF
:10591000FDF746FC10B10BB0BDE8F0834FF0FF304F
:10592000FCF766FCA0F104035A4242EB030102209B
:10593000FDF736FC0028EED14FF0FF30FCF778FB86
:10594000D0F1010138BF00210320FDF729FC002818
:10595000E1D141F21426C2F20006FDF729FD4AF218
:105960005075B469C0F60005A768D5F8008045F207
:10597000617341F204257A1E4FF49871C0F600035A
:10598000C2F200054046EF680094FBF7E1FA41F6E9
:105990007004C2F2000420604FF0FF30FCF728FCD6
:1059A00007F13201814607F137020420FDF758FC68
:1059B0000028B0D1A9F101010520D1F1000C4CEB78
:1059C0000101FDF7EDFB0028A5D14FF0FF30FCF7FA
:1059D0002FFBD0F1010138BF00210620FDF7E0FBCD
:1059E000002898D1FDF77CFC0520FCF739FB4FF02F
:1059F000FF30FCF725FCA0F10502504240EB02010C
:105A00000720FDF7CDFB002885D14FF0FF30FCF7D4
:105A10000FFBD0F1010138BF00210820FDF7C0FBCA
:105A200000287FF478AFFDF7C3FCD6F818E045F204
:105A30006173DEF808704FF498717A1EC0F60003A7
:105A40004046EF68CDF800E0FBF782FA20604FF0A7
:105A5000FF30FCF7F5FB07F13201814607F1370211
:105A60000920FDF7FDFB00287FF455AFA9F10101E6
:105A70000A204B4243EB0101FDF792FB00287FF423
:105A80004AAF4FF0FF30FCF7D3FAD0F1010138BF35
:105A900000210B20FDF784FB00287FF43CAF40F68B
:105AA0005C0740F66009C2F20007C2F20009FDF788
:105AB00017FC384602A901223F60C9F80090FCF7A4
:105AC00057FA06A904224846FCF752FAFDF770FC83
:105AD000B26945F2317390684AF6C016421E4FF41F
