:020000040800F2
:10000000000400208101000861030008610300086A
:100010006103000861030008610300086103000830
:100020006103000861030008610300088103000800
:10003000610300086103000861030008610400080F
:100040006103000861030008610300086103000800
:1000500061030008610300086103000861030008F0
:10006000610300086103000861030008816E000855
:10007000B16E0008E16E0008116F0008416F0008C2
:10008000716F0008A16F0008610300081175000876
:10009000217500086103000861030008610300087E
:1000A00061030008610300086103000861030008A0
:1000B0006103000861030008610300086103000890
:1000C0006103000861030008610300086103000880
:1000D0006103000861030008E17100086103000882
:0C00E000610300086103000861030008D0
:1000F00010B582B006F0C4FA00F02AFA41F20C20E2
:1001000048F6A051C2F20000C0F6000106F0F0FB74
:10011000002441F2902047F691630094C2F200005F
:100120004FF498714022C0F600034FF4006400F0D1
:1001300067FCC4F2010403E04FF47A7000F0B0FCF5
:10014000A368DB07F8D541F26010C2F2000002F0AC
:100150007FF9F1E7AFF30080AFF30080AFF30080E9
:10016000704700BFAFF30080AFF30080AFF30080B3
:10017000FEE700BFAFF30080AFF30080AFF3008075
:1001800072B640F60001C2F2000181F30988022331
:1001900083F31488BFF36F8F40F2000240F20044F3
:1001A000C2F20002C2F20004A24217D213464FF07C
:1001B0005530D64343F8040BA519A342C5F3800577
:1001C0000CD225B1186002F10803A34206D21A46E8
:1001D00042F8040B5860131DA342F8D340F20042CA
:1001E000C2F200028A4217D213464FF05530D5436F
:1001F00043F8040B4C198B42C4F380040CD224B195
:10020000186002F108038B4206D21E4646F8040B22
:100210005860331D8B42F8D307F0DAFD40F6B8047E
:1002200040F60001C2F20001C2F20004A14225D250
:1002300048F64860C0F60000024652F8046B0B46D0
:10024000CD4343F8046B04EB050CA342CCF38005CB
:1002500014D23DB1166800F108021E6001F10803D6
:10026000A3420BD2114651F8046B1846526840F86D
:10027000046B5A60031D0A1DA342F3D340F6B80273
:1002800041F2C030C2F20002C2F20000824217D234
:1002900000211346D44343F8041B00EB040E8342B1
:1002A000CEF380040CD224B1196002F1080383421A
:1002B00006D21D4645F8041B59602B1D8342F8D316
:1002C00040F2EC0540F2EC06C0F60005C0F6000670
:1002D000FFF746FFB54219D22C4654F8043BE943D8
:1002E00077189847B442C7F380070FD22FB123681D
:1002F00005F108049847B44208D2254655F8042B66
:10030000904760682C1D8047B442F6D340F2EC055C
:1003100040F2EC06C0F60005C0F60006FFF7E8FE66
:10032000B5421AD22C46EF4354F8043B06EB070CB7
:10033000CCF380079847B4420FD22FB1226805F161
:1003400008049047B44208D2254655F8040B80476C
:1003500061682C1D8847B442F6D3FFF709FF00BF40
:10036000FEE700BFAFF30080AFF30080AFF3008083
:1003700000F0D6FA00DF00BFAFF30080AFF30080DB
:10038000EFF30983203383F30988002383F3118873
:10039000704700BFAFF30080AFF30080AFF3008081
:1003A00008B54FF440724FF46D43CEF20003C0F233
:1003B000FA520021996007201021DA6000F098F8C5
:1003C0000A204FF4007100F093F80B208021BDE863
:1003D000084000F08DB800BFAFF30080AFF300809D
:1003E000202383F311884FF46D40CEF20000436860
:1003F00013F400631FD0EFF30982A2F1200181F30F
:10040000098840F6D013C2F2000399694FF080705A
:1004100042F8040CC87F88B118688B6880689842DD
:1004200094BF0023012393B140F27133C0F600035F
:1004300042F8083C704783F31188704718688B684E
:100440008168994234BF00230123002BECD140F294
:100450007431C0F6000142F8081C7047AFF3008009
:1004600008B5202383F3118800F0AAF8002383F352
:100470001188BDE80840FFF7B3BF00BFAFF30080AD
:100480002DE9F04FC1F80CD0D0F80CD0BDE8F08FBA
:10049000002383F311882846A04700F069FB7047CA
:1004A00000F00302F0B4FF23D60003FA06FC00F0CC
:1004B0001F0401FA06F1012505FA04F586084FF438
:1004C0006144CEF20004C03654F82670400927EA91
:1004D0000C0242EA010300F1600744F8263044F8B8
:1004E000275044F82050F0BC704700BFAFF30080A5
:1004F00000F0030310B4FF22DC0002FA04FC01FA4E
:1005000004F180084FF46D44CEF20004063054F834
:10051000203023EA0C0242EA010344F8203010BCE8
:10052000704700BFAFF30080AFF30080AFF30080EF
:1005300040F6D010C2F20000826947F61073C0F690
:1005400000039361FEE700BFAFF30080AFF30080CC
:1005500030B583B0FFF724FF00F0FAF800F060F840
:1005600001F0DEFB01F024FC40F6B8004021C2F2AD
:10057000000000F0E5F940F6D014C2F20004A061DA
:1005800001220277002383F3118862B647F62071B7
:10059000A569C0F600011C4640F6001040F2315338
:1005A000A961C0F60003C021C2F20000009400F06F
:1005B00027FA03B030BD00BFAFF30080AFF3008077
:1005C00038B540F6D013C2F200039B69DA7F0AB156
:1005D000013ADA771A6A40F6C014511CC2F20004DC
:1005E0001962E3682168581CA142E06014D08D684C
:1005F000013D8D6085B90B68CA685C602360CD6081
:10060000002383F3118808699047202383F311881E
:10061000216888680028EED038BD00BFAFF30080A5
:1006200040F6C013C2F200034FF0FF3000225B60BF
:100630001B609860DA607047AFF30080AFF3008012
:1006400070B440F6C015C2F200052C680361A668BC
:10065000C260B14204D92468891BA6688E42FAD3CD
:1006600063688160AC4243600460186018BFA3688F
:1006700060601CBFC1EB0301A16070BC704700BF8C
:10068000036840F6C012C2F2000293421FBF99688D
:1006900082688A189A604268002113600368C1600A
:1006A0005A607047AFF30080AFF30080AFF3008073
:1006B00040F6C013C2F200038142DB6808D88342CF
:1006C00034BF002001208B4238BF40F0010070474A
:1006D000834234BF002001208B422CBF002000F059
:1006E00001007047AFF30080AFF30080AFF30080EC
:1006F000202383F31188037F0D2B11D8DFE803F04B
:1007000023101007100B101010101010100B416A5E
:100710008B685A1C8A6090E80C001A60026853606B
:100720004FF0FF3240F6D013426281680022027718
:10073000C2F200031B689A688A42FBD259680360C0
:10074000416008605860002383F31188704700BF40
:1007500040F6D013C2F2000300225B601B609A6077
:100760005B611B61704700BFAFF30080AFF3008097
:1007700040F6D013002281680277C2F200031B68A2
:100780009A688A42FBD259680360416008605860E9
:10079000704700BFAFF30080AFF30080AFF300807D
:1007A00040F6D013C2F2000310B499691A680877B2
:1007B00014201468C87701201077104663601C600D
:1007C0009A6110BCFFF75CBEAFF30080AFF300800E
:1007D00030B54B1C87B0054617D040F6D014C2F296
:1007E000000440F2F162A369C0F6000201A8FFF71D
:1007F00027FF2846FFF7D4FF049B13B101A8FFF79A
:100800003FFFA069406A07B030BD40F6D014FFF743
:10081000C7FFC2F20004F4E7AFF30080AFF300803B
:1008200040F6D012C2F2000230B4946903468568E3
:10083000A06859620021854284BF217711460BD8F8
:100840001977126891688D42FBD950681A60586018
:100850000360536030BC704709688D68A842FBD9BB
:100860004868216060604C60012104601977184677
:100870002146936130BCFFF703BE00BFAFF3008099
:1008800040F6D013C2F2000318689969026830B4C8
:1008900053601A608C680125986114220023057743
:1008A000CA770B77034600E01B689A68A242FBD226
:1008B0005A680B604A601160596030BCFFF7E0BDB8
:1008C00040F6D013C2F2000318689969026830B488
:1008D00053608C6801251A609861002305770B77B7
:1008E000034600E01B689A68A242FBD85A680B6076
:1008F0004A601160596030BCFFF7C2BDAFF30080A1
:1009000040F6D01CC2F2000CDCF80010DCF8180035
:100910008A6883689A4200D87047FFF7D1BF00BF4A
:1009200040F6D011C2F200018869C37F0BB1FFF716
:10093000C7BFFFF7A5BF00BFAFF30080AFF30080D4
:10094000F0B440F6D014C2F20004656900220461DC
:1009500000F12C06816000F12807456102236061E7
:1009600001641424012103774277C477C263826350
:10097000026281778261286187620663C662F0BC89
:10098000704700BFAFF30080AFF30080AFF300808B
:100990002DE9F007A1F1240C40F6D015C2F20005B4
:1009A00000EB0C07D5F81490C76040F80C30079B9B
:1009B00040F291417B60C0F60001022339620026BB
:1009C000904600F1280A00F12C020377142101233C
:1009D0000561C0F80880C0F8149046776861C17757
:1009E000C0F84080C6638663066283778661C9F873
:1009F0001000C0F828A00263C262BDE8F00770478B
:100A000010B59C4682B0202383F31188049C634672
:100A10000094FFF7BDFF00210446FFF701FF00230C
:100A200083F31188204602B010BD00BFAFF30080F1
:100A300010B5202383F3118840F6D013C2F20003CF
:100A40009B691C6C9A68944201D0824200D29860E3
:100A50001864FFF755FF002383F31188204610BD6B
:100A600010B52023044683F311880021FFF7D8FE38
:100A7000002383F31188204610BD00BFAFF3008030
:100A8000202383F31188417F002341F00402427741
:100A900083F31188704700BFAFF30080AFF300808D
:100AA00008B50146202383F311880620FFF790FE46
:100AB000002383F3118808BDAFF30080AFF30080FB
:100AC00008B5202383F3118840F6C013C2F2000357
:100AD000D968411A02D00620FFF77AFE002383F37B
:100AE000118808BDAFF30080AFF30080AFF3008042
:100AF00008B5202383F3118840F6D01CC2F2000C05
:100B0000DCF80010DCF818008A6883689A4201D388
:100B1000FFF7B6FE002383F3118808BDAFF3008012
:100B200038B540F6D013C2F200039C69254655F84B
:100B3000283F6062AB4207D01A681846A262FFF7EE
:100B400017FEA36AAB42F7D1617F880701BF226914
:100B500060690261226908BF50610E20BDE838401B
:100B6000FFF71EBEAFF30080AFF30080AFF300804D
:100B7000202383F31188FFF7D3BF00BFAFF30080BA
:100B800038B50446202383F31188037F0E2B0AD047
:100B900040F6D015C2F20005826AA96907200A60F2
:100BA000A162FFF7FDFD656A002383F311882046EB
:100BB00000F016F8284638BDAFF30080AFF3008090
:100BC000202383F31188817F00230131817783F310
:100BD00011887047AFF30080AFF30080AFF300805F
:100BE0000146202383F31188827F0023013AD2B289
:100BF000827783F3118812B9037F0E2B00D07047E0
:100C0000427F02F00303012B09D0022BF7D1436985
:100C10000269406C1A610A69536101F009BA4369BB
:100C200002691A6101694B6101F02AB9AFF30080D2
:100C300070B582B00C4615461E4601F0D9F8A8B131
:100C4000202383F311882146069C33462A460094CC
:100C5000FFF79EFE0123437700210446FFF7E0FDE6
:100C6000002383F31188204602B070BD0446FAE7E2
:100C7000F0B583B004460E4617461D4601F0C0F994
:100C8000A8B1202383F3118861683B463246009562
:100C9000FFF77EFE02234377446400210546FFF7F9
:100CA000BFFD002383F31188284603B0F0BD05463D
:100CB000FAE700BFAFF30080AFF30080AFF300802E
:100CC000202383F3118840F6D013C2F20003186981
:100CD0000023817F4A1C827783F31188704700BF0D
:100CE00010B5202383F3118840F6D0130469C2F2B3
:100CF00000039C4209D0A27F511CA177002383F3FB
:100D00001188FFF76DFF204610BD0024F6E700BFF5
:100D10004060006081607047AFF30080AFF30080F7
:100D2000F8B5856804460135002D816029DC4068EE
:100D30006FF0010743686E1C63601C60FFF718FDCD
:100D400005F001034762EDB14BB1606801364368BD
:100D500063601C60FFF70CFD012E476213D06068D2
:100D6000751C4268023662601460FFF701FD47623D
:100D70006068416861600C60FFF7FAFC4762002D13
:100D8000EDD1F8BDF8BDF8BDAFF30080AFF3008042
:100D900008B5202383F31188FFF7C2FFFFF7B0FDEA
:100DA000002383F3118808BDAFF30080AFF3008008
:100DB000816810B54A1E002A0346826001DB0020CC
:100DC00010BD40F6D014C2F20004A26903205362A1
:100DD0005968136051605A600A60FFF7E1FCA3692B
:100DE000586A10BDAFF30080AFF30080AFF300800E
:100DF00008B5202383F31188FFF7DAFF002383F37C
:100E0000118808BDAFF30080AFF30080AFF300801E
:100E10000346806810B4421E002A9A6002DB00205C
:100E200010BC704771B140F6D010C2F20000826968
:100E3000032053625C6882E818005A60226010BC8C
:100E4000FFF7C6BC98604FF0FF30E9E7AFF30080D2
:100E500008B5202383F31188FFF7DAFF002383F31B
:100E6000118808BDAFF30080AFF30080AFF30080BE
:100E700008B50246202383F3118881684B1C002BA0
:100E8000836003DD002383F3118808BD006800211F
:100E9000036813605A60FFF7C3FC002383F31188D3
:100EA00008BD00BFAFF30080AFF30080AFF3008058
:100EB00003468068421C002A9A6000DD70471A6869
:100EC0001168104619604B6000235362FFF750BC55
:100ED000F8B50D1E044636DD816800264B1C6F1EDA
:100EE000B342836007F001072EDD013D2BD077B1BF
:100EF000A1684B1C002BA3602EDD013D07D133E020
:100F0000A068411C0029A16013DD013D1AD0A26830
:100F1000013D501C0028A060F2DC206803682360BB
:100F20005C60FFF725FC4662A068411C0029A160B7
:100F3000EBDC2068036823605C60FFF719FC013D6F
:100F40004662E4D1F8BDF8BD0068026822605460D2
:100F5000FFF70EFC4662C8E7206802682260546012
:100F6000FFF706FC4662C8E7F8BD00BFAFF300809C
:100F700010B5024682B0202383F3118883680133C1
:100F8000002B83601CDD8A68501E0028886007DB08
:100F9000FFF7B6FC0020002383F3118802B010BDD8
:100FA00040F6D014C2F20004A4694B68032084E820
:100FB0000A004C601C606162FFF7F2FB606AEAE7BE
:100FC0000068036813605A600191FFF7D1FB0021AC
:100FD00041620199D7E700BFAFF30080AFF3008013
:100FE0000023406000608360704700BFAFF3008063
:100FF000F8B540F6D0128368C2F200020546946943
:10100000002B51D0A1689868814206D91A7F996057
:10101000042A31D0052A1CD092B12B461B689D4270
:1010200003D09868A2689042F8D2596804202360DF
:1010300061600C605C606562BDE8F840FFF7B0BBC2
:1010400093E80600116018461B685A60FFF790FB92
:10105000E3E758681F685E6A07601F683246786079
:101060001268964202D090688842F9D251681A609C
:1010700059600B605360D0E758681F685E6A07606C
:101080001F68324678601268964212D09068884293
:10109000F9D251681A6059600B605360B368A16857
:1010A0009A688A42B2D3B8E7E36B8460C360E063B6
:1010B000F8BD3246EDE700BFAFF30080AFF300802C
:1010C00008B5202383F31188FFF792FF002383F3F1
:1010D000118808BDAFF30080AFF30080AFF300804C
:1010E0000246202383F31188836800201BB100236C
:1010F00083F31188704740F6D010C2F20000836974
:101100000120D96B9360D160DA63002383F31188E7
:10111000704700BFAFF30080AFF30080AFF30080F3
:10112000F8B540F6D013C2F200039A69202383F386
:101130001188D46B2368E168A342D1631CD0176C7B
:1011400049B10868884203D08068874238BF0746A3
:10115000C9680029F5D11D68DE6B976018462560C7
:1011600000216C60A360E660DC63FFF759FB00239D
:1011700083F311882046F8BD0021A160002383F38A
:1011800011882046F8BD00BFAFF30080AFF30080A8
:1011900040F6D013C2F20003996970B5CC6B236896
:1011A000E268A342CA6318D00E6C4AB1106890423C
:1011B00003D08068864238BF0646D268002AF5D13F
:1011C0001A68DD6B8E60184622605460A360E5608B
:1011D000DC63FFF7CDFA204670BD0021A1602046F8
:1011E00070BD00BFAFF30080AFF30080AFF30080AD
:1011F00040F6D013C2F2000370B59C69202383F33C
:101200001188E36BC3B100251A68D9689A42E1637B
:10121000104608BF9D6008D01168D66B19604B60FE
:101220009A60DE60D363FFF7A3FAE36B002BEBD188
:10123000206CA060FFF764FB002383F3118870BD6E
:1012400040600060704700BFAFF30080AFF30080E4
:1012500008B50246202383F311880068904205D028
:101260000368002113605A60FFF7DAFA002383F362
:10127000118808BDAFF30080AFF30080AFF30080AA
:1012800008B503460068984206D002681A605360A9
:10129000FFF76EFA0023436208BD00BFAFF3008082
:1012A00038B504460068A0420AD06FF00105036813
:1012B00023605C60FFF75CFA45622068A042F6D1CB
:1012C00038BD00BFAFF30080AFF30080AFF3008004
:1012D00008B5202383F31188FFF7E2FFFFF710FB27
:1012E000002383F3118808BDAFF30080AFF30080C3
:1012F00040F6D01370B5C2F2000305469C69FFF7B3
:1013000047FF656206462B462A4603E09068A168BF
:10131000884210D312689542F8D15A6823606260FF
:1013200014605C600520FFF73BFA646A3046FFF703
:101330005FFE204670BD1346EFE700BFAFF30080AD
:1013400008B5202383F31188FFF7D2FF002383F32E
:10135000118808BDAFF30080AFF30080AFF30080C9
:10136000F8B504460E46FFF713FF40F6D013C2F25D
:1013700000030546986927464462234603E09968BE
:101380008268914213D31B689C42F8D17C68076045
:1013900044602060786031460520FFF719FA044662
:1013A000013002D02846FFF723FE2046F8BD1F4635
:1013B000ECE700BFAFF30080AFF30080AFF3008035
:1013C00008B5202383F31188FFF7CAFF002383F3B6
:1013D000118808BDAFF30080AFF30080AFF3008049
:1013E00070B4202383F3118840F6D013C2F20003B7
:1013F0009D69066800240E60234601604D608A6086
:10140000CC6083F3118870BC704700BFAFF30080DD
:10141000202383F31188024602E0994207D01A463E
:1014200013688342F9D1002383F3118870470B6856
:101430001360002383F31188704700BFAFF300806F
:1014400010B4202383F3118840F6D013C2F20003B6
:10145000996900238A6B22EA00048C6383F3118864
:10146000104010BC704700BFAFF30080AFF30080A6
:10147000202383F3118840F6D013C2F200039A6947
:101480000023916B0843906383F31188704700BF7A
:1014900008B5826B037F0A43082B82630CD0092BAB
:1014A00000D008BD436A02EA03018B42F9D1FFF77D
:1014B0005FF90022426208BD436A1A42F7D108BDB3
:1014C00008B5202383F31188FFF7E2FFFFF718FA2E
:1014D000002383F3118808BDAFF30080AFF30080D1
:1014E00070B504680546A0420E460AD0E1686068FF
:1014F00041EA0603E360A168FFF7CAFF2468A5423A
:10150000F4D170BDAFF30080AFF30080AFF3008083
:1015100008B5202383F31188FFF7E2FFFFF7F0F906
:10152000002383F3118808BDAFF30080AFF3008080
:10153000F8B50D46074641B10024012606FA04F32A
:101540002B4203D10134002DF8D1F8BD57F82420E7
:10155000204625EA030501349047002DEED1F4E73B
:1015600038B540F6D013C2F200039C69054620232B
:1015700083F31188A36B10EA030206D1606208208E
:10158000FFF70EF9A36B05EA03025042104023EA6D
:101590000001A163002383F3118838BDAFF30080FD
:1015A00038B540F6D013C2F200039C6905462023EB
:1015B00083F31188A36B184006D108206562FFF7FA
:1015C000EFF8A36B05EA030023EA0001A1630023FF
:1015D00083F3118838BD00BFAFF30080AFF3008004
:1015E00038B540F6D013C2F200039D6904462023AB
:1015F00083F31188AB6B00EA0302824204D0686275
:101600000920FFF7CDF8AB6B23EA0400A8630023A1
:1016100083F31188204638BDAFF30080AFF300801C
:1016200040F6D013C2F2000370B59E690546202330
:1016300083F31188B36B10EA03040ED121B923465A
:1016400083F31188204670BD70620820FFF7C0F850
:101650000028F4DBB36B05EA03046242144023EA7A
:101660000400B063002383F31188204670BD00BFDF
:1016700040F6D013C2F2000370B59E6904462023E1
:1016800083F31188B36B10EA03050ED121B92B4601
:1016900083F31188284670BD70620820FFF798F820
:1016A0000028F4DBB36B04EA030523EA0500B0630A
:1016B000002383F31188284670BD00BFAFF300807C
:1016C00038B540F6D013C2F200039D6904462023CA
:1016D00083F31188AB6B00EA030282420ED029B972
:1016E0000B4683F311880C46204638BD68620920FA
:1016F000FFF76EF80028A8BFAB6B07DB23EA0400F6
:10170000A863002383F31188204638BD002383F3A8
:1017100011881C46F8E700BFAFF30080AFF30080EC
:1017200070B540F6D012C2F200029469202383F310
:10173000118800F12C056562067F036B0C2E256075
:101740006163636004631C6007D00A20FFF728F818
:10175000606A002383F3118870BDFFF709F80A203F
:10176000FFF71EF8606A002383F3118870BD00BF85
:1017700010B5202383F3118840F6D014C2F2000480
:10178000A3691A4652F82C0F904208D00168D9621A
:101790004A600B220277002383F3118810BD0C20CE
:1017A000FEF7FEFFA3691A4652F82C0FEEE700BFC2
:1017B00008B5202383F31188FFF732F8002383F361
:1017C000118808BDAFF30080AFF30080AFF3008055
:1017D00038B50B46044601EB82051C301146E36028
:1017E000A36084E82800FFF793FA04F110000021B9
:1017F000BDE83840FFF78CBAAFF30080AFF300804C
:1018000010B52023044683F3118803684268E3601F
:10181000D11AA3601C308910FFF782FA04F110007E
:101820000021FFF77DFAFFF76BF8002383F311889F
:1018300010BD00BFAFF30080AFF30080AFF30080B6
:1018400070B504460D461C301146FFF7E1FA064616
:1018500078B9A368626843F8045B9342A36028BF29
:10186000236804F1100028BFA360FFF721FBFFF7F6
:1018700047F8304670BD00BFAFF30080AFF3008083
:1018800008B5202383F31188FFF7DAFF002383F3E1
:10189000118808BDAFF30080AFF30080AFF3008084
:1018A000436A10B5002B10DD8268013B4468436237
:1018B00042F8041BA24228BF0368826028BF8360ED
:1018C0001030FFF7F5FA002010BD4FF0FF3010BDCB
:1018D00070B504460D461C301146FFF799FA0646CE
:1018E00060B9E3682268043B9342E36008D304F1E3
:1018F00010001D60FFF7DCFAFFF702F8304670BDFC
:101900006068031FE360F2E7AFF30080AFF300808D
:1019100008B5202383F31188FFF7DAFF002383F350
:10192000118808BDAFF30080AFF30080AFF30080F3
:10193000436A10B5002B10DDC2680468043A013B0D
:10194000A2424362C26002D243681A1FC2601030D2
:101950001160FFF7ADFA002010BD4FF0FF3010BD51
:1019600070B504460D4610301146FFF751FA064691
:1019700078B9E368626853F8041B04F11C009342D1
:101980002960E36024BF2368E360FFF791FAFEF764
:10199000B7FF304670BD00BFAFF30080AFF30080EB
:1019A00008B5202383F31188FFF7DAFF002383F3C0
:1019B000118808BDAFF30080AFF30080AFF3008063
:1019C000836910B5002B11DDC2685C1E8461436819
:1019D00052F8044B9A4228BF03680C60C26028BFCB
:1019E000C3601C30FFF764FA002010BD4FF0FF30D9
:1019F00010BD00BFAFF30080AFF30080AFF30080F5
:101A000010B4024671B140F6D010C2F200008369F2
:101A10000D205A62546883E814005360236010BCA0
:101A2000FEF7D6BE4FF0FF3010BC7047AFF300801A
:101A300010B4C361019B8A18002440600060846078
:101A400041618161C1600261036210BC704700BFE7
:101A500038B5C168044600680023A0426161A161F5
:101A6000A3600AD06FF00105026822605460FEF79F
:101A70007FFE456220688442F6D138BDAFF3008016
:101A8000426908B5034680698242986818D00130DF
:101A9000986002F8011B19695A618A4228BFDA6806
:101AA000186828BF5A61984208D002681A605360CB
:101AB000FEF75EFE00234362184608BD002008BD05
:101AC0000028E4D06FF0030008BD00BFAFF3008032
:101AD00070B5202304460D4683F31188C36903B112
:101AE0009847A668204629463EB9FFF789FF002897
:101AF000F7DA334683F3118870BDA369013EA6600F
:101B000013F8010B2269A361934224BFE368A36128
:101B1000002383F3118870BDAFF30080AFF3008022
:101B20002DE9F0471D4604460E469146D0F81C802C
:101B3000202383F311880027B8F1000F01D020463D
:101B4000C047D4F808A020462946BAF1000F09D1B1
:101B5000FFF756FF0028F4D0534683F31188384628
:101B6000BDE8F087A3690AF1FF31A16013F8010B0A
:101B7000F0552269A361934224BFE368A361002367
:101B800083F3118801374F45E9D0202383F311886F
:101B9000D2E700BFAFF30080AFF30080AFF3008067
:101BA00010B4C361019B8C18406000608260416189
:101BB0008161C1600461036210BC7047AFF30080B3
:101BC00038B501690446C3680068CA1AA042636157
:101BD000A361A2600AD06FF0010502682260546020
:101BE000FEF7C6FD456220688442F6D138BD00BFCD
:101BF000F8B504460D461646202383F31188A768DE
:101C0000204631463FB9FFF7FBFE0028F7DA3B4696
:101C100083F31188F8BD6369013FA76003F8015B96
:101C200022696361934224BFE3686361E3690BB196
:101C300020469847002383F311881846F8BD00BF5B
:101C40004169826910B591420346816816D04C1CE7
:101C50009C6012F8014B18699A61824228BFDA68C9
:101C6000186828BF9A61984206D002681A605360CB
:101C7000FEF77EFD00234362204610BD0029E6D01A
:101C80006FF0020010BD00BFAFF30080AFF3008023
:101C90002DE9F0471E4604460D461746D0F81C9025
:101CA000202383F311884FF00008D4F808A02046C1
:101CB0000AF1FF33BAF1000F21D0A36029786369DC
:101CC00003F8011B22696361934224BFE3686361E7
:101CD000B9F1000F00D0C847002383F31188013FFA
:101CE00008F1010814D00135202383F31188D4F8BA
:101CF00008A020460AF1FF33BAF1000FDDD12046DB
:101D00003146FFF77DFE0028CFD0534683F311887C
:101D10004046BDE8F08700BFAFF30080AFF300801E
:101D2000094945F2000C40F6F01240F6EC13C2F2FD
:101D3000000C21F00700C2F20002C2F200032CF0F6
:101D40000701106019607047C7130020AFF30080CF
:101D5000202383F3118840F6F01340F6EC1CC2F206
:101D60000003C2F2000C1A68DCF80010073020F003
:101D70000700891A88429ABF1018186000220023B1
:101D800083F3118810467047AFF30080AFF30080F3
:101D900040F6EC1240F6F011C2F20002C2F200016D
:101DA00010680B68C01A7047AFF30080AFF3008073
:101DB00040F6F813C2F2000341F651520021C0F67A
:101DC000000203F110001A609960D960FFF708B9AA
:101DD000002303608160C360083A10300B604A60E2
:101DE000FFF7FEB8AFF30080AFF30080AFF30080E1
:101DF000F8B540F6F814C2F20004002818BF0446F3
:101E0000073104F1100021F0070604F10805FFF77F
:101E100057F900E01D462B6803B35A689642F9D87B
:101E200006F108018A4216D34FF6F877CFF6FF770E
:101E3000D3F800E0C6EB070C0CEB02005F1843F888
:101E400001E078602F605E601D4645F8084BFFF7A3
:101E500067F92846F8BD1A682A60F5E7FFF760F9C8
:101E60002568002DF5D006F10800A8470546002892
:101E7000EFD000F1080580E850002846F8BD00BF0B
:101E800070B5064650F8080CA6F1080400F10805E4
:101E90001030FFF715F92B46591B484240EB010261
:101EA0009C4288BF42F0010272B11A6872B194423A
:101EB0000CD31346591B484240EB01029C4288BF99
:101EC00042F00102002AF0D11B68E5E756F8041C35
:101ED00046F8082C1C6001F1080256F8085CA018AE
:101EE000A8420AD05A6802F1080E03EB0E0C6445B2
:101EF00012D0BDE87040FFF713B94068A258081827
:101F0000083046F8040C46F8082C5A6802F1080E0E
:101F100003EB0E0C6445ECD156F8040C56F8081C83
:101F20001218083283E80600E3E700BFAFF3008031
:101F300038B540F6F814C2F20004002818BF044671
:101F400004F110000D46FFF7BBF8A3681A461C46C3
:101F50003BB10022144659681B6852180134002B0B
:101F6000F9D105B12A60FFF7DBF8204638BD00BF84
:101F70000023036041608260704700BFAFF30080C0
:101F800070B4002A35D0013A02F00105202383F312
:101F90001188046800230C60016083F31188436892
:101FA000C91832B365B1202383F311880468002374
:101FB0000C60016083F311884368013A194418D01A
:101FC000202383F31188046800230C60016083F3ED
:101FD00011884568013A4C19202383F3118806685B
:101FE00000234E51046083F311884168013A214473
:101FF000E6D170BC704700BFAFF30080AFF3008044
:1020000008B50246202383F31188006828B10368CD
:102010001360002383F3118808BD9368002BF8D068
:1020200050689847002383F3118808BDAFF3008000
:10203000202383F31188026800230A60016083F380
:1020400011887047AFF30080AFF30080AFF30080DA
:1020500041F21003C2F2000301221A60704700BF70
:1020600070B541F244064C25C2F2000630682D21BD
:102070000468013DA2689047306841F24404016859
:10208000C2F200048B682D219847013DEED12068F3
:1020900047F660710268C0F6000113680222984793
:1020A00070BD00BFAFF30080AFF30080AFF30080DE
:1020B000F0B585B000283AD04CF6CD426F466C465C
:1020C000CCF6CC42A2FB0013DB0803EB830CA0EBA5
:1020D0004C013031C9B2184604F8011B002BF1D174
:1020E000BC4222D9013C41F24406E307C2F2000699
:1020F00015D5306803689A689047306814F8011D58
:1021000003689A689047BC420FD0306814F8011CED
:102110000368651E9A68904715F8011C023C3068F8
:1021200003689A689047BC42EFD105B0F0BD41F218
:102130004400C2F2000000683021026893689847AA
:10214000F3E700BFAFF30080AFF30080AFF3008090
:1021500038B5017861B141F244050446C2F2000588
:10216000286802689368984714F8011F0029F7D17E
:1021700038BD00BFAFF30080AFF30080AFF3008045
:1021800008B5FFF7E5FF41F24400C2F20000006825
:1021900047F660710268C0F6000113680222984792
:1021A00008BD00BFAFF30080AFF30080AFF3008045
:1021B000202383F3118841F21402C2F20002116855
:1021C000002301F8010B116083F31188704700BFF1
:1021D00010B491B941F20C0441F2180141F2080225
:1021E0000123C2F20004C2F20001C2F20002106038
:1021F00023600B60184610BC70470020FBE700BF4F
:102200002DE9F00141F21404C2F20004236841F206
:102210004802C2F200029D1A15F0010F164615D0B1
:10222000934218D911F8015B1778561CAF420DD0B4
:1022300016E096F8008015F801CB7E1CE0450FD122
:1022400091F801C03F78691C674509D1B3420D463A
:1022500006F10107EDD80B7813B92260184610E09B
:1022600041F20C0441F2180141F208020123C2F2CA
:102270000004C2F20001C2F20002106023600B6091
:102280001846BDE8F0017047AFF30080AFF300805F
:1022900010B5044608461146FEF70AFA80B941F225
:1022A0000C0141F2180241F208030120C2F20001C0
:1022B000C2F20002C2F20003086010601C6010BD90
:1022C000002010BDAFF30080AFF30080AFF30080BB
:1022D00010B541F23004C2F20004206808B1FEF7E4
:1022E000CFFB606808B1FEF7CBFBA06808B1FEF732
:1022F000C7FBE06808B1FEF7C3FB206918B1BDE871
:102300001040FEF7BDBB10BDAFF30080AFF30080FF
:1023100038B541F23004C2F20004206818B1FEF76B
:102320002FFC00232360606841F23005C2F20005F3
:1023300018B1FEF725FC00206860A06841F2300566
:10234000C2F2000518B1FEF71BFC0021A960E0688D
:1023500041F23005C2F2000518B1FEF711FC00226F
:10236000EA60206941F23004C2F2000418B1FEF7BD
:1023700007FC0023236138BDAFF30080AFF300807A
:1023800030B44FF47A7404FB00F340F6D012C2F27A
:10239000000244F6D355A3F57A709469C1F2620540
:1023A000A5FB0031226A501C00EB9111236A934275
:1023B00034BF002001208A4208D28B422CBF002368
:1023C00000F00103002BF1D130BC70478B422CBFD1
:1023D000034640F00103002BE8D1F5E7AFF300809E
:1023E00008B50120FEF75CFB40F6C013C2F2000303
:1023F000D86808BDAFF30080AFF30080AFF3008072
:1024000041F2100110B5C2F2000100240C6020233B
:1024100083F311884FF47A7E0EFB00FC44F6D3520E
:10242000ACF57A70C1F26202A2FB002341F21C00FB
:10243000990942F251022346C2F200000131C0F66E
:102440000002FEF7FDF8234683F3118810BD00BF9C
:102450002DE9F04F41F24406C2F20006306048F622
:10246000481085B0C0F60000FFF78AFE47F664709A
:10247000C0F60000FFF784FE47F68070C0F600004B
:10248000FFF77EFE47F68470C0F60000FFF760FE9F
:1024900047F69870C0F60000FFF772FE47F6A87086
:1024A000C0F60000FFF754FE47F6BC70C0F600000F
:1024B000FFF766FE47F6D470C0F60000FFF748FE4F
:1024C00047F6E870C0F60000FFF75AFE47F6F470D2
:1024D000C0F60000FFF73CFE48F20800C0F600001E
:1024E000FFF74EFE48F21000C0F60000FFF730FE86
:1024F00048F22400C0F60000FFF742FE48F2300028
:10250000C0F60000FFF724FE48F24400C0F60000C9
:10251000FFF736FE48F25C00C0F60000FFF718FE39
:1025200048F27000C0F60000FFF72AFE48F29C0057
:10253000C0F60000FFF70CFE48F2B000C0F6000045
:10254000FFF71EFE48F64810C0F6000041F21805DD
:102550000395FFF715FE039B48F23011C2F200030A
:1025600003930398002248F2A01341F2140541F2AC
:10257000480B41F20C0A41F23007C0F6000102603C
:10258000C0F6000302910192C2F20005C2F2000BF4
:10259000C2F2000AC2F20007019998464A1C019251
:1025A0004FF0000958F8041B002971D0FFF758FDBF
:1025B00048F2C400C0F60000FFF7CAFD0198FFF71B
:1025C00077FD48F2D400C0F6000009F10109FFF7D9
:1025D000BFFD4846FFF76CFD48F2D800C0F600008A
:1025E000FFF7B6FD58F8044C2068FFF7B1FD48F23C
:1025F000DC00C0F60000FFF7C3FDC820FEF750FA6C
:1026000058F8044C00223A607A60BA60FA603A6185
:102610006368C5F800B0CAF8002003B19847E168C4
:102620008847A36803B19847FFF772FEDAF8000005
:10263000002850D048F2E000C0F60000FFF788FD07
:1026400041F2080CC2F2000CDCF80000FFF730FD8C
:1026500048F2F800C0F60000FFF77AFD2B685B45F2
:102660000CD941F24804C2F20004306814F8011B8E
:102670000268936898472A68A242F6D848F2FC009C
:10268000C0F60000FFF77CFD58F8041B00298DD12F
:10269000029850F8043F0290002B7FF47DAFFFF7C3
:1026A000DFFC48F64810C0F60000FFF769FD48F26D
:1026B0001410C0F60000FFF74BFD039803688BB9B8
:1026C00048F20C10C0F60000FFF75AFD039A10689C
:1026D00005B0BDE8F08F48F20010C0F60000FFF72B
:1026E0004FFD5FE748F22410C0F60000FFF748FDF9
:1026F000ECE700BFAFF30080AFF30080AFF30080E2
:10270000F8B540F6D014C2F20004A3699D686E1CAF
:102710003046FEF78DF9421B514241EB020107465C
:102720000120FFF755FD00B1F8BDA36902209A68AA
:10273000B11AD1F1000C4CEB0101FFF749FD002863
:10274000F2D13846FEF774F9311A484240EB0101E4
:102750000320FFF73DFD0028E6D1A269042091681F
:102760004B1B5A4242EB0301FFF732FD0028DBD13D
:10277000202383F31188A269034691688F1C976018
:1027800083F31188A069AF1C82680520D11B4B42DE
:1027900043EB0101FFF71CFD0028C5D13046FEF7D1
:1027A00047F9C5EB000CDCF1000040EB0C01062002
:1027B000FFF70EFD0028B7D1A369072099687A1AA0
:1027C000534243EB0201FFF703FD0028ACD1A2699D
:1027D0000820136CF11A4A4242EB0101FFF7F8FCA2
:1027E0000028A1D1EF1C3846FEF722F9301AD0F1AB
:1027F000000C4CEB00010920FFF7EAFC002893D104
:10280000A2690A209368F91AD1F1000E4EEB01017A
:10281000FFF7DEFC002887D1A4690B20236C40F66B
:10282000D014F91AD1F1000C4CEB0101FFF7D0FCE8
:10283000C2F2000400287FF477AF202383F31188CD
:10284000A26903469560156483F311886CE700BFA5
:10285000F0B540F6D017C2F20007B86947F64076E7
:10286000836842F63125C0F60006C0F6000548F23E
:10287000C01483B01A1F70682B46C0F600044FF4D2
:1028800098710094FEF7BCF8BC693168A26841F207
:102890003004C2F2000448F2D41E6060C0F6000E9C
:1028A000053A2B4608464FF49871CDF800E0FEF744
:1028B000A7F8BB6931699A6848F2C41C2060C0F669
:1028C000000C013A2B4608464FF49871CDF800C031
:1028D000FEF796F8BB69F1689A6848F2C81E206155
:1028E000C0F6000E2B460846023A4FF49871CDF818
:1028F00000E0FEF785F82023E06083F31188BB69D0
:10290000B0689A6848F2CC162B46C0F600064FF421
:102910009871033A0096FEF73BF8A060002383F31A
:102920001188A068FEF79CF8FFF7F2FC48F2D0117E
:102930000120C0F6000103B0BDE8F040FFF760BC25
:10294000F0B540F6D017C2F20007B86947F64076F6
:10295000826842F63125C0F60006C0F6000548F24E
:10296000D41483B0053A2B463068C0F600044FF407
:1029700098710094FEF744F8BC69D6F804C0A368C7
:1029800041F23004C2F2000448F2C01E20601A1F57
:10299000C0F6000E2B464FF498716046CDF800E06B
:1029A000FEF72EF8BA69D6F808C0936848F2CC1E34
:1029B0006060DA1EC0F6000E2B464FF49871604638
:1029C000CDF800E0FEF71CF8B969D6F80CC08A68AB
:1029D00048F2C81EC0F6000EA060023A60462B46C0
:1029E0004FF49871CDF800E0FEF70AF8BB6937693B
:1029F0009A6848F2C416E0604FF49871013A2B4689
:102A0000C0F6000638460096FDF7FAFF2061FFF792
:102A10007FFC48F2D0110120C0F6000103B0BDE8F0
:102A2000F040FFF7EDBB00BFAFF30080AFF30080D5
:102A300008B50078FFF7BCFB002008BDAFF30080AD
:102A400038B540F6C014C2F20004FFF7C9FCE568CF
:102A50006420FEF725F8012005F1640105F1650207
:102A6000FFF716FC00B138BDE5686420FEF718F8E2
:102A7000022005F1640105F16502FFF709FC002859
:102A8000F1D1E5684FF47A70FEF70AF805F57A712E
:102A900003204A1CFFF7FCFB0028E4D1E46804F1A2
:102AA00064052846FEF70CF80420294604F1650267
:102AB000BDE83840FFF7ECBBAFF30080AFF3008018
:102AC00040F60000C2F200000021FEF721B900BF6D
:102AD00040F60000C2F200000021FEF719B900BF65
:102AE00040F60000C2F200000021FEF711B900BF5D
:102AF00010B586B0002103A8FEF70AF9002103A84B
:102B0000FEF746F9059901200029CCBF00210121DB
:102B1000FFF75EFB08B106B010BD40F6D014C2F25C
:102B20000004A16947F640708A68C0F6000042F6CA
:102B300001434FF49871013AC0F60003006803ACFA
:102B40000094FDF75DFF41F23003C2F2000318600C
:102B500003A8FEF74DF9059902200029CCBF0021FA
:102B60000121FFF735FB0028D5D1202383F31188FD
:102B7000059B002B3DDDFDF7C3FE002383F3118889
:102B8000059903209942D4BF00210121FFF720FBC2
:102B90000028C0D1059A0420A2F1010EDEF1000C3C
:102BA0004CEB0E01FFF714FB0028B4D1202383F374
:102BB00011880598002818DDFDF7A2FE002383F395
:102BC0001188059903209942D4BF00210121FFF704
:102BD000FFFA00289FD1059A0520A2F1010359426E
:102BE00041EB0301FFF7F4FA95E703A8FEF760F95C
:102BF000E2E703A8FEF75CF9BDE700BFAFF3008092
:102C000008B5202383F311888368002B06DDFDF7C8
:102C100077FE002383F31188184608BDFEF748F9B4
:102C2000FDF76EFE002383F31188184608BD00BF30
:102C300010B540F60004C2F200042046FEF7D8F8B2
:102C40002046FEF715F9002010BD00BFAFF300804D
:102C500010B5044640F60000C2F20000FEF7C8F8C6
:102C60002078FFF7A5FA002010BD00BFAFF3008069
:102C700008B53220FDF714FF202383F3118840F6B6
:102C80000000C2F20000FEF713F9FDF739FE002341
:102C900083F31188184608BDAFF30080AFF30080BE
:102CA0002DE9F04340F6D016C2F20006B76947F6A8
:102CB0004078C0F60008B868D8F8009048F2C41709
:102CC00042F6514383B0421D4FF49871C0F60003A1
:102CD000C0F6000748460097FDF792FEB569D8F8A0
:102CE00004C0AC6841F23005C2F2000548F2C81ECB
:102CF00042F651432860C0F6000E621C4FF49871F2
:102D0000C0F600036046CDF800E0FDF779FEB36938
:102D1000D8F808C09A6848F2CC1E42F65143686061
:102D2000C0F6000E4FF498710332C0F600036046FF
:102D3000CDF800E0FDF764FEB169D8F80CC08C68EE
:102D400048F2C01E42F65143A860C0F6000E60462D
:102D5000221D4FF49871C0F60003CDF800E0FDF796
:102D60004FFEB369D8F810E09A6848F2D41442F6DE
:102D700051434FF498710232C0F60003E860C0F688
:102D8000000470460094FDF73BFE40F60004C2F2DA
:102D9000000428612046FEF76BF82046FEF768F82D
:102DA0002046FEF765F82046FEF762F82046FEF75B
:102DB0005FF8FFF7ADFA48F2D0110120C0F600012C
:102DC000FFF71EFA804610B103B0BDE8F083B0698A
:102DD00042F6514382684FF4987148460532C0F676
:102DE00000030097FDF70CFE2023286083F3118871
:102DF00002212046FEF76CF8434683F31188FFF763
:102E000087FAA2680220A2F1010EDEF1000141EB77
:102E10000E0103B0BDE8F043FFF7DAB9AFF300806D
:102E200010B540F6D01EC2F2000EDEF8181047F6BC
:102E300040708A68C0F6000042F6314382B0013229
:102E4000C0F6000300244FF4987100680094FDF769
:102E5000D7FD40F6000441F2300CC2F20004C2F289
:102E6000000CCCF8000021462046FEF781F82268CD
:102E70000120131B594241EB0301FFF7A9F908B1E7
:102E800002B010BDA3680220D3F1010138BF0021B8
:102E9000FFF79EF90028F3D121462046FEF768F897
:102EA00023680320191B4A4242EB0101FFF790F906
:102EB0000028E5D1A2680420D2F1010138BF002129
:102EC00002B0BDE81040FFF783B900BFAFF3008048
:102ED00070B540F60004C2F2000482B00021204622
:102EE000FDF7B6FFA0F1FF33594241EB030101208A
:102EF000FFF76EF908B102B070BD23680220191BFC
:102F00004A4242EB0101FFF763F90028F3D1A568BB
:102F10000320D5F1010138BF0021FFF759F905461B
:102F20000028E8D140F6D01EC2F2000EDEF81810DC
:102F300047F640708A68C0F6000042F67143013AD5
:102F4000C0F600034FF4987100680095FDF758FD36
:102F500041F2300CC2F2000C4FF4FA71CCF80000D0
:102F60002046FDF775FF0546FFF7D2F90420D5F19D
:102F7000010138BF0021FFF72BF90028BBD12168E0
:102F800005200A1B534243EB0201FFF721F90028F9
:102F9000B1D1A3680620D3F1010138BF0021FFF7AA
:102FA00017F90028A7D140F6C016FFF719FAC2F2A8
:102FB00000064120F668FFF7FBF84FF4FA7120464F
:102FC000FDF746FFA0F1FF3CDCF1000040EB0C01F7
:102FD0000720FFF7FDF800288DD123680820191B72
:102FE0004A4242EB0101FFF7F3F8002883D1A268BF
:102FF0000920D2F1010138BF0021FFF7E9F80028CC
:103000007FF479AF4220FFF7D3F84FF4FA712046EE
:10301000FDF71EFFA0F1FF31484240EB0101072000
:10302000FFF7D6F800287FF466AF216808200A1B56
:10303000534243EB0201FFF7CBF800287FF45BAF6C
:10304000A3680920D3F1010138BF0021FFF7C0F8C0
:1030500000287FF450AF4320FFF7AAF84FF4FA712D
:103060002046FDF7F5FEA0F1FF3CDCF1000040EB4F
:103070000C010720FFF7ACF800287FF43CAF236871
:103080000820191B4A4242EB0101FFF7A1F8002872
:103090007FF431AFA2680920D2F1010138BF0021CD
:1030A000FFF796F800287FF426AF4420FFF780F85A
:1030B0004FF4FA712046FDF7CBFEA0F1FF314842F4
:1030C00040EB01010720FFF783F800287FF413AFDE
:1030D000216808200A1B534243EB0201FFF778F8EE
:1030E00000287FF408AFA3680920D3F1010138BF9D
:1030F0000021FFF76DF800287FF4FDAE4520FFF7B3
:1031000057F84FF4FA712046FDF7A2FEA0F1FF3CFC
:10311000DCF1000242EB0C010720FFF759F8002810
:103120007FF4E9AE23680820191BD1F1000E4EEBA5
:103130000101FFF74DF800287FF4DDAEA2680920F9
:10314000D2F1010138BF0021FFF742F800287FF4D7
:10315000D2AE48F2D0110A20C0F60001FFF750F8B5
:1031600000287FF4C8AE06F51C62111D0B20093241
:1031700002B0BDE87040FFF78BB800BFAFF300802E
:1031800040F6D010F0B5C2F20000836947F64075F2
:103190009E68C0F6000548F2C41443F2B12383B020
:1031A000721C2868C0F600044FF49871C0F6000342
:1031B0000094FDF725FC41F23004D5F804E0C2F29A
:1031C000000448F2CC1743F281232060B21C704601
:1031D000C0F600074FF49871C0F600030097FDF7A2
:1031E0000FFCAF6843F2412348F2C8154FF49871C1
:1031F000F21CC0F600036060C0F60005384600957A
:10320000FDF7FEFB40F62C05C2F20005A060284643
:10321000FEF71EF82846FEF71BF8FFF779F848F28C
:1032200050310120C0F6000103B0BDE8F040FEF7C8
:10323000E7BF00BFAFF30080AFF30080AFF30080C3
:1032400010B5044640F61C00C2F20000FDF738FF3E
:103250002078FEF7ADFFFDF763FF002010BD00BF33
:1032600010B5044640F60C00C2F20000FDF728FF3E
:103270002078FEF79DFFFDF753FF002010BD00BF33
:1032800010B5044640F60C00C2F20000FDF718FF2E
:1032900040F62C00C2F20000FEF752F82078FEF74C
:1032A00087FFFDF73DFF002010BD00BFAFF300809A
:1032B00010B5044640F61C00C2F20000FDF700FF06
:1032C00040F60C00C2F20000FDF7FAFE40F62C00BA
:1032D0004FF0FF31C2F20000FEF772F82078FEF7DF
:1032E00067FFFDF71DFFFDF71BFF002010BD00BFAE
:1032F00040F62C0008B5C2F20000FDF7A1FF40F631
:103300000C00C2F20000FDF76BFE40F61C00C2F29A
:103310000000BDE80840FDF763BE00BFAFF30080CA
:1033200040F62C0008B5C2F20000FDF789FF40F618
:103330000C00C2F20000BDE80840FDF751BE00BF1E
:1033400040F62C0008B5C2F20000FDF779FF40F608
:103350000C00C2F20000BDE80840FDF741BE00BF0E
:1033600040F60C00C2F20000FDF73ABEAFF3008059
:1033700040F60C0008B5C2F20000FDF731FE40F641
:103380001C00C2F20000BDE80840FDF729BE00BFE6
:1033900040F60C0008B5C2F20000FDF721FE40F631
:1033A0001C00C2F20000BDE80840FDF719BE00BFD6
:1033B00040F60C00C2F20000FDF712BEAFF3008031
:1033C00040F60C00C2F20000FDF70ABEAFF3008029
:1033D00040F6D010F0B5C2F20000836947F640769F
:1033E0009F6843F28125C0F60006C0F6000548F24A
:1033F000D41483B07A1C2B463068C0F600044FF416
:1034000098710094FDF7FCFA41F23004D6F804C03C
:10341000C2F2000448F2C01E2060C0F6000EBA1CC2
:103420002B464FF498716046CDF800E0FDF7E8FABE
:10343000D6F808C048F2CC1E6060C0F6000EFA1C38
:103440002B464FF498716046CDF800E0FDF7D8FAAE
:10345000D6F80CC048F2C81EA060C0F6000E604648
:103460003A1D2B464FF49871CDF800E0FDF7C8FAED
:10347000D6F810E048F2C4164FF498717A1D2B4626
:10348000E060C0F6000670460096FDF7B9FA2061CC
:1034900040F62C00C2F20000FDF71AFFFEF738FFDD
:1034A00048F2D0110120C0F6000103B0BDE8F040A1
:1034B000FEF7A6BEAFF30080AFF30080AFF300804D
:1034C00040F6D010F0B5C2F20000836947F64076AE
:1034D0009F6843F28125C0F60006C0F6000548F259
:1034E000D41483B07A1C2B463068C0F600044FF425
:1034F00098710094FDF784FA41F230047168C2F2C9
:10350000000448F2C01E2060C0F6000EBA1C2B4614
:1035100008464FF49871CDF800E0FDF771FAB168F4
:1035200048F2CC1CC0F6000C6060FA1C2B46084622
:103530004FF49871CDF800C0FDF762FAF16848F2D7
:10354000C81EA060C0F6000E3A1D2B4608464FF478
:103550009871CDF800E0FDF753FA326948F2C416CD
:10356000E0602B46C0F6000610464FF498717A1DB5
:103570000096FDF745FA2023206183F3118840F679
:103580002C04C2F200042046FDF77AFE2046FDF727
:1035900077FE2046FDF774FE2046FDF771FE2046BB
:1035A000FDF76EFEFDF7ACF9002383F31188FEF7FB
:1035B000AFFE48F2D0110120C0F6000103B0BDE813
:1035C000F040FEF71DBE00BFAFF30080AFF30080F8
:1035D000F0B540F6D017C2F20007BE6940F60C0005
:1035E00083B0B668C2F2000047F64075FDF768FD8B
:1035F000C0F6000548F2D41443F26123721C286817
:10360000C0F600044FF49871C0F600030094FDF773
:10361000F7F941F23004D5F804C0C2F2000448F2D0
:10362000C01E43F261232060C0F6000EB21C4FF4AE
:103630009871C0F600036046CDF800E0FDF7E0F9B0
:10364000D5F808C048F2CC1E43F261236060C0F692
:10365000000EF21C4FF49871C0F600036046CDF8DE
:1036600000E0FDF7CDF9D5F80CC048F2C81E43F2D2
:103670006123A060C0F6000E6046321D4FF49871C1
:10368000C0F60003CDF800E0FDF7BAF9D5F810E078
:1036900043F2612348F2C415721D4FF49871C0F6CD
:1036A0000003E060C0F6000570460095FDF7A8F93C
:1036B0002061FDF735FDFEF72BFEB96901208A6810
:1036C000931B594241EB0301FEF782FD08B103B0A1
:1036D000F0BD48F2D0110220C0F6000103B0BDE8F1
:1036E000F040FEF78DBD00BFAFF30080AFF3008068
:1036F000F8B540F6D015C2F2000540F60C04AB69EF
:10370000C2F2000420469E68FDF7EAFC0146012053
:10371000FEF75EFD00B1F8BD2046FDF7E1FCD0F1FB
:10372000010138BF00210220FEF752FD07460028A4
:10373000F1D1202383F31188FDF72AFD3B4683F363
:103740001188236803201A1B514241EB0201FEF746
:103750003FFD0028DFD1A1680420D1F1010138BF6D
:103760000021FEF735FD0028D5D1AA690520916812
:103770008B1B5A4242EB0301FEF72AFD0028CAD1F7
:103780002046FDF79DFCFDF733FD22680620111B46
:103790004B4243EB0101FEF71BFD0028BBD1A368A0
:1037A0000720D3F1010138BF0021BDE8F840FEF742
:1037B0000FBD00BFAFF30080AFF30080AFF3008018
:1037C0002DE9F04740F6D014C2F20004A06947F694
:1037D00040768768C0F60006D6F8009007F1010829
:1037E00048F2C81543F6812382B0C0F600054FF4B5
:1037F00098714246C0F6000348460095FDF700F96F
:1038000041F23005D6F804A0C2F20005BE1C48F211
:10381000C41E43F661234FF498712860C0F6000E71
:103820003246C0F600035046CDF800E0FDF7E8F858
:10383000686040F61C00C2F20000FDF741FCA1697F
:1038400001208B68DA1B514241EB0201FEF7C0FCFC
:1038500010B102B0BDE8F0876420FDF721F9A1693D
:1038600002208B68C8EB030CDCF1000242EB0C0178
:10387000FEF7AEFC0028ECD140F60C00C2F20000CE
:10388000FDF71EFCA26903209168C8EB01035A42B0
:1038900042EB0301FEF79CFC0028DAD16420FDF71F
:1038A000FFF8A36904209A68911B4B4243EB010186
:1038B000FEF78EFC0028CCD1FDF732FCA369052071
:1038C0009A68C8EB0201D1F1000C4CEB0101FEF744
:1038D0007FFC0028BDD16420FDF7E2F8A369062033
:1038E0009A68C8EB0201D1F1000C4CEB0101FEF724
:1038F0006FFC0028ADD1FDF77BFCA16907208B6828
:10390000DA1B514241EB0201FEF762FC0028A0D114
:10391000FEF7FEFC48F2C01C43F68123C0F6000C03
:103920004FF498714246C0F600034846CDF800C0F7
:10393000FDF766F848F2CC1E43F661234FF4987108
:103940002860C0F6000E3246C0F600035046CDF89F
:1039500000E0FDF755F8686040F61C00C2F2000078
:10396000FDF7AEFBA26908209168CB1B5A4242EBDF
:103970000301FEF72DFC00287FF46BAF6420FDF7F8
:103980008FF8A36909209A68C8EB02014B4243EB08
:103990000101FEF71DFC00287FF45BAF40F60C0030
:1039A000C2F20000FDF78CFBA3690A209A68C8EBFD
:1039B0000201D1F1000C4CEB0101FEF709FC0028DB
:1039C0007FF447AF6420FDF76BF8A4690B20A26871
:1039D00040F6D014911B4D4245EB0101FEF7F8FB78
:1039E000C2F20004054600287FF433AF202383F39E
:1039F0001188FDF7CDFB2B4683F31188A3690C20BA
:103A00009A68C8EB02014B4243EB0101FEF7E0FB71
:103A100000287FF41EAF6420FDF742F8A3690D2053
:103A20009A68C8EB0201D1F1000C4CEB0101FEF7E2
:103A3000CFFB00287FF40DAFFDF7DAFBA3690E2062
:103A40009A68D11BD1F1000C4CEB0101FEF7C0FBD1
:103A500000287FF4FEAE02B0BDE8F047FEF758BC88
:103A600008B59620FDF71CF840F60C00C2F20000E5
:103A7000FDF726FBFDF754FB002008BDAFF30080E7
:103A800008B53220FDF70CF840F61C00C2F2000029
:103A9000FDF716FBFDF744FB002008BDAFF30080E7
:103AA0002DE9F04140F6D01682B0C2F20006FEF7D2
:103AB00097FCB06947F640758268C0F6000540F68D
:103AC000C01843F63153002728684FF49871053A1F
:103AD000C0F60003C2F20008D8F80C800097FCF78B
:103AE0008FFFB469D5F804E0A26841F23004C2F255
:103AF000000443F6E14320604FF498717046043AA5
:103B0000C0F600030097FCF77BFFB369D5F808C047
:103B10009A6843F6B14360604FF498716046033A87
:103B2000C0F600030097FCF76BFFB169D5F80CE015
:103B30008A6843F69143A0604FF498717046023A48
:103B4000C0F600030097FCF75BFFB3692D699A6824
:103B500043F661434FF49871E060013AC0F6000308
:103B600028460097FCF74CFF2061FEF7D1FB48F296
:103B7000D0110120C0F60001FEF742FB10B102B0E7
:103B8000BDE8F081022008F16E0108F1730202B075
:103B9000BDE8F041FEF77CBBAFF30080AFF30080DF
:103BA0002DE9F04140F6D01682B0C2F20006FEF7D1
:103BB00017FCB06947F640758268C0F6000540F60C
:103BC000C01443F6B15300272868C2F200044FF432
:103BD0009871013AC0F60003D4F80C800097FCF706
:103BE0000FFFB169D5F804E08A6841F23004C2F2EF
:103BF000000443F6915320604FF498717046023AE6
:103C0000C0F600030097FCF7FBFEB369AD689A6845
:103C100043F661534FF498716060033AC0F60003B5
:103C200028460097FCF7ECFEA060FEF771FB48F217
:103C300050310120C0F60001FEF7E2FA10B102B0E7
:103C4000BDE8F081022008F1640108F1690202B0C8
:103C5000BDE8F041FEF71CBBAFF30080AFF300807E
:103C600008B53220FCF71CFF40F61C00C2F2000031
:103C7000FDF726FA0A20FEF783FBFDF751FA4120F3
:103C8000FEF796FA002008BDAFF30080AFF3008086
:103C900008B52820FCF704FF1420FEF771FB422032
:103CA000FEF786FA002008BDAFF30080AFF3008076
:103CB00008B51420FCF7F4FE40F61C00C2F2000028
:103CC000FDF7FEF90A20FEF75BFBFDF729FA43201A
:103CD000FEF76EFA002008BDAFF30080AFF300805E
:103CE00008B50A20FCF7DCFE40F61C00C2F200001A
:103CF000FDF7E6F91420FEF743FB40F60C00C2F294
:103D00000000FDF7DDF90A20FEF73AFBFDF708FA9F
:103D10000A20FEF735FBFDF703FA4420FEF748FAC8
:103D2000002008BDAFF30080AFF30080AFF3008048
:103D300040F60C0008B5C2F20000FDF7C1F91E20E4
:103D4000FEF71EFBFDF7ECF94520FEF731FA0020E7
:103D500008BD00BFAFF30080AFF30080AFF3008079
:103D600040F60C0008B5C2F20000FDF7A9F92820C2
:103D7000FEF706FBFDF7D4F90A20FEF701FB43200E
:103D8000FEF716FA002008BDAFF30080AFF3008005
:103D900008B51420FCF784FE2820FEF7F1FA422033
:103DA000FEF706FA002008BDAFF30080AFF30080F5
:103DB00008B52820FCF774FE40F60C00C2F20000A3
:103DC000FDF77EF90A20FEF7DBFAFDF7A9F941209D
:103DD000FEF7EEF9002008BDAFF30080AFF30080DE
:103DE00040F6D01110B5C2F200018C6947F6407060
:103DF000A268C0F6000043F6716382B001324FF44E
:103E00009871C0F6000300680094FCF7F9FD41F2D8
:103E10003003C2F200031860FDF7AAFC446B214690
:103E2000FDF7C6FCE0B2FEF7C3F9FDF7A1FC446B59
:103E30002146FDF7BDFCE0B2FEF7BAF9FDF798FCAC
:103E4000446B2146FDF7B4FCE0B2FEF7B1F948F24D
:103E500050310120C0F6000102B0BDE81040FEF76D
:103E6000CFB900BFAFF30080AFF30080AFF30080A5
:103E700010B541210446FDF753FC42212046FDF7D1
:103E80004FFC20464321FDF74BFC002010BD00BF36
:103E900040F6340040F61821C2F20000C2F20001E0
:103EA0000522FDF795BC00BFAFF30080AFF30080A3
:103EB00070B540F63404C2F20004636A0120A3F135
:103EC0000502514282B041EB0201FEF781F9002860
:103ED00045D1422120464FF0FF32FDF7D1FCD0F111
:103EE000010138BF00210220FEF772F9B8BB43215F
:103EF00020464FF0FF32FDF7C3FCD0F1010138BF7F
:103F000000210220FEF764F948BB442120464FF00F
:103F1000FF32FDF7B5FCD0F1010138BF00210220CE
:103F2000FEF756F9D8B9452120464FF0FF32FDF78C
:103F3000A7FCD0F1010138BF00210220FEF748F9AB
:103F400068B9412120464FF0FF32FDF7E1FCD0F186
:103F5000010138BF00210320FEF73AF908B102B091
:103F600070BD582101222046FDF78AFCA0F1FF35E3
:103F7000684240EB05010420FEF72AF905460028B7
:103F8000EDD1202383F3118858212046FDF788FCCA
:103F90002B46024683F31188A2F1FF310520D1F1AF
:103FA000000C4CEB0101FEF713F90028D7D1582182
:103FB00001222046FDF7ACFCA0F1FF30434243EB69
:103FC00000010620FEF704F905460028C7D120238A
:103FD00083F3118858212046FDF7AAFC2B460246A0
:103FE00083F31188A2F1FF310720D1F1000C4CEBD3
:103FF0000101FEF7EDF80028B1D1202383F31188E9
:10400000646A0820D4F1010138BF0021FEF7E0F80E
:1040100040F634040646C2F2000418B1002383F3CC
:1040200011889CE7034683F31188202383F31188CA
:10403000A5690920A5F1050EDEF1000343EB0E0191
:10404000FEF7C6F8054618B1334683F3118886E7B4
:10405000034683F31188202383F31188A368E26861
:104060000A20D11AD1F1000C4CEB0101FEF7B0F897
:104070000346002840F0E58083F311884FF0FF32BB
:1040800001A92046FDF78CFCD0F1010138BF0021C9
:104090000B20FEF79DF800287FF461AF9DF8040027
:1040A000FEF786F801A920464FF0FF32FDF778FCB5
:1040B000D0F1010138BF00210B20FEF789F800285C
:1040C0007FF44DAF9DF80400FEF772F801A9204679
:1040D0004FF0FF32FDF764FCD0F1010138BF002141
:1040E0000B20FEF775F800287FF439AF9DF8040027
:1040F000FEF75EF801A920464FF0FF32FDF750FCB5
:10410000D0F1010138BF00210B20FEF761F8002833
:104110007FF425AF9DF80400FEF74AF801A9204678
:104120004FF0FF32FDF73CFCD0F1010138BF002118
:104130000B20FEF74DF800287FF411AF9DF8040026
:10414000FEF736F848F2D0110C20C0F60001FEF759
:1041500057F800287FF403AF472120464FF0FF3285
:10416000FDF78EFBD0F1010138BF00210D20FEF7D5
:104170002FF800287FF4F3AE40F63404C2F20004B6
:1041800001A920464FF0FF32FDF70AFCD0F10101F2
:1041900038BF00210E20FEF71BF800287FF4DFAEA9
:1041A0002368A2680F20991AD1F1000E4EEB01018D
:1041B000FEF70EF800287FF4D2AE2268E3681020E4
:1041C000D11AD1F1000E4EEB0101FEF701F80028E3
:1041D0007FF4C5AE012201A92046FDF7E1FBA0F165
:1041E000FF35684240EB05011120FDF7F1FF054660
:1041F00000287FF4B4AE202383F31188204601A960
:10420000FDF7DEFB2B46024683F31188A2F1FF3156
:104210001220D1F1000C4CEB0101FDF7D9FF05464E
:1042200000287FF49CAE202383F31188616A132059
:10423000A1F105035E4246EB0301FDF7C9FF064607
:1042400018B12B4683F3118889E6034683F311885E
:10425000202383F31188A5691420D5F1010138BF0B
:104260000021FDF7B5FF054600287FF4EDAE0346BB
:1042700083F31188202383F31188E168A368152054
:10428000C3EB010EDEF1000242EB0E01FDF7A0FFD1
:1042900003460028D5D183F31188202383F31188A6
:1042A00041212046FDF7FCFAD0F1010138BF002181
:1042B0001620FDF78DFF00287FF451AE42212046E5
:1042C000FDF7EEFAD0F1010138BF00211720FDF70C
:1042D0007FFF00287FF443AE40F63404C2F20004AE
:1042E00043212046FDF7DCFAD0F1010138BF00215F
:1042F0001820FDF76DFF00287FF431AE44212046E1
:10430000FDF7CEFAD0F1010138BF00211920FDF7E9
:104310005FFF054600287FF422AE20464521FDF7C9
:10432000BFFA2B46844683F311881A20DCF1010181
:1043300038BF0021FDF74CFF00287FF410AEE16884
:10434000A2681B208B1A5A4242EB0301FDF740FF83
:1043500000287FF404AE0525202383F3118840F65E
:104360003404C2F20004204601A9FDF729FB002312
:10437000844683F31188C3EB0C011C204B4243EBB2
:104380000101FDF725FF00287FF4E9AD9DF8040049
:10439000FDF70EFF013DDFD148F2D0111D20C0F620
:1043A0000001FDF72DFF00287FF4D9AD202383F312
:1043B0001188626A1E20A2F1050EDEF1000343EBB4
:1043C0000E01FDF705FF2B4683F3118800287FF4CB
:1043D000C6AD202383F31188A1691F20D1F101010B
:1043E00038BF0021FDF7F4FE2B4683F31188002827
:1043F0007FF4B5ADE168A3682020C3EB010CDCF1CC
:10440000000242EB0C01FDF7E3FE00287FF4A7ADAC
:10441000202383F3118845212046FDF789FAD0F146
:10442000010138BF00212120FDF7D2FE00287FF4D2
:1044300096AD44212046FDF77BFAD0F1010138BF4B
:1044400000212220FDF7C4FE00287FF488AD43211F
:104450002046FDF76DFAD0F1010138BF002123207D
:10446000FDF7B6FE00287FF47AAD42212046FDF725
:104470005FFAD0F1010138BF00212420FDF7A8FE2A
:1044800000287FF46CAD40F63404C2F200042046EC
:104490004121FDF74DFA0023844683F31188C3EBD5
:1044A0000C0325205A4242EB0301FDF791FE002840
:1044B0007FF455ADE168A3682620CA1A514241EB4A
:1044C0000201FDF785FE00287FF449AD0525202374
:1044D00083F3118840F63404C2F2000401A9204697
:1044E000FDF76EFA0023014683F31188CA1A2720CC
:1044F000D2F1000C4CEB0201FDF76AFE00287FF4BC
:104500002EAD9DF80400FDF753FE013DDFD148F2CA
:10451000D0112820C0F60001FDF772FE00287FF4BC
:104520001EAD202383F31188636A2920A3F1050EB1
:10453000DEF1000242EB0E01FDF74AFE2B4683F34B
:10454000118800287FF40BAD202383F31188A16923
:104550002A20D1F1010138BF0021FDF739FE2B4699
:1045600083F3118800287FF4FAACE168A2682B205D
:104570008B1A5A4242EB0301FDF72AFE00287FF412
:10458000EEAC2046FDF73CF9202383F31188626AE4
:104590002C20A2F105014B4243EB0101FDF718FE6F
:1045A0002B4683F3118800287FF4D9AC202383F3B2
:1045B0001188A3692D20D3F1010138BF0021FDF737
:1045C00007FE2B4683F3118800287FF4C8AC202314
:1045D00083F31188A36822682E20D11AD1F1000C30
:1045E0004CEB0101FDF7F4FD2B4683F31188002805
:1045F0007FF4B5AC202383F311882368E2682F2071
:10460000991AD1F1000E4EEB0101FDF7E1FD05E530
:104610004FF0FF30FCF714BFAFF30080AFF3008022
:104620004FF0FF30FCF70CBFAFF30080AFF300801A
:104630004FF0FF30FCF704BFAFF30080AFF3008012
:1046400040F65C0008B50021C2F20000FCF760FFF4
:104650003220FCF725FA40F66000C2F2000000218B
:10466000FCF756FF002008BDAFF30080AFF30080D9
:1046700010B504463220FCF713FA20460121FCF75E
:104680001FFF002010BD00BFAFF30080AFF300801C
:1046900010B540F65C0488B0C2F200040122204646
:1046A00069462460FCF79CFE204604A90222FCF720
:1046B00097FE21680120091B18BF0121FDF788FD25
:1046C00008B108B010BD20466946FCF7A1FE22687B
:1046D0000220111B18BF0121FDF77AFD0028F0D13F
:1046E000204604A9FCF794FE216803200B1BD3F19C
:1046F000000C4CEB0301FDF76BFD0028E1D148F203
:10470000B0500721C0F60000FCF712FF48F250310C
:104710000420C0F60001FDF773FDD2E7AFF300807F
:104720004320FDF745BD00BFAFF30080AFF300802D
:104730004220FDF73DBD00BFAFF30080AFF3008026
:104740004120FDF735BD00BFAFF30080AFF300801F
:1047500008B500214FF0FF30FCF762FFD0F10101F6
:1047600038BF00210120FDF733FD00B108BD01462F
:104770004FF0FF30FCF77CFFD0F1010138BF002182
:104780000220FDF725FD0028F0D101464FF0FF3053
:10479000FCF796FFD0F1010138BF00210320FDF79F
:1047A00017FD0028E2D10A214FF0FF30FCF738FF57
:1047B000D0F1010138BF00210420FDF709FD0028D8
:1047C000D4D10A214FF0FF30FCF752FFD0F10101A4
:1047D00038BF00210520FDF7FBFC0028C6D10A21C7
:1047E0004FF0FF30FCF76CFFD0F1010138BF002122
:1047F0000620BDE80840FDF7EBBC00BFAFF300802A
:104800002DE9F04305208BB0FCF732FE4FF0FF306E
:10481000FCF7A6FEA0F10100414241EB000101209E
:10482000FDF7D6FC10B10BB0BDE8F0834FF0FF30C0
:10483000FCF796FEA0F104035A4242EB030102206A
:10484000FDF7C6FC0028EED14FF0FF30FCF7F8FD75
:10485000D0F1010138BF00210320FDF7B9FC002889
:10486000E1D140F6D016C2F20006FDF7B9FD47F6D9
:104870004075B469C0F60005A768D5F8008044F219
:10488000716340F6C0157A1E4FF49871C0F60003AC
:10489000C2F200054046EF680094FCF7B1F841F21F
:1048A0003004C2F2000420604FF0FF30FCF758FEE5
:1048B00007F13201814607F137020420FDF7E8FCD9
:1048C0000028B0D1A9F101010520D1F1000C4CEB79
:1048D0000101FDF77DFC0028A5D14FF0FF30FCF76A
:1048E000AFFDD0F1010138BF00210620FDF770FCBB
:1048F000002898D1FDF70CFD0520FCF7B9FD4FF01D
:10490000FF30FCF74DFEA0F10502504240EB0201E2
:104910000720FDF75DFC002885D14FF0FF30FCF744
:104920008FFDD0F1010138BF00210820FDF750FCB8
:1049300000287FF478AFFDF753FDD6F818E044F275
:104940007163DEF808704FF498717A1EC0F60003A8
:104950004046EF68CDF800E0FCF752F820604FF0D9
:10496000FF30FCF71DFE07F13201814607F13702E7
:104970000920FDF78DFC00287FF455AFA9F1010156
:104980000A204B4243EB0101FDF722FC00287FF493
:104990004AAF4FF0FF30FCF753FDD0F1010138BFB3
:1049A00000210B20FDF714FC00287FF43CAF40F6FB
:1049B0005C0740F66009C2F20007C2F20009FDF789
:1049C000A7FC384602A901223F60C9F80090FCF715
:1049D00007FD06A904224846FCF702FDFDF700FD8D
:1049E000B26944F24163906848F2C416421E4FF423
:1049F0009871C0F60003C0F600064046ED680096C8
:104A0000FBF7FEFF20600520FCF7EAFD0C2005F116
:104A1000320105F13702FDF73BFC00287FF403AFBC
:104A20004FF0FF30FCF70CFDD0F1010138BF002141
:104A30000D20FDF7CDFB00287FF4F5AEFDF768FCF7
:104A4000384602A9FCF7E4FC484606A9FCF7E0FC5E
:104A50003A680E20D11B4B4243EB0101FDF7B8FB36
:104A600000287FF4E0AED9F800200F20C9EB020146
:104A70004B4243EB0101FDF7ABFBD4E6AFF3008003
:104A800070B582B0FDF784F901A90020FDF750FA56
:104A900010210020FDF7ACF9011C18BF01210446CC
:104AA0000120FDF795FB054608B102B070BD204618
:104AB000FDF7E6F96FF0FF012846FDF799F9D0F10F
:104AC000010138BF00210220FDF782FB0028ECD154
:104AD00041F2580001A9C2F20000FDF729FA41F2A3
:104AE00058001021C2F20000FDF782F9054641F29C
:104AF00058001021C2F20000FDF77AF9044641F295
:104B000058001021C2F20000FDF772F9064628464F
:104B1000FDF7B6F92046FDF7B3F93046FDF7B0F9D9
:104B200041F258006946C2F20000FDF701FAA0F117
:104B30000100414241EB00010320FDF749FB002841
:104B4000B3D141F258001021C2F20000FDF750F934
:104B5000044641F258001021C2F20000FDF748F966
:104B6000054641F258001021C2F20000FDF740F95D
:104B7000FDF786F92846FDF783F92046FDF780F911
:104B800041F258006946C2F20000FDF7D1F9A0F1E8
:104B900001035A4242EB03010420FDF719FB0028F0
:104BA00083D141F258001121C2F20000FDF720F933
:104BB000044641F258001021C2F20000FDF718F936
:104BC00005462046FDF75CF941F258006946C2F2FD
:104BD0000000FDF7ADF9A0F10201D1F1000C4CEBA2
:104BE00001010520FDF7F4FA00287FF45EAF41F2E1
:104BF00058001021C2F20000FDF7FAF8044641F215
:104C000058006946C2F20000FDF792F9012808BF7A
:104C100001460BD041F258006946C2F20000FDF790
:104C200087F9A0F10202504240EB02010620FDF795
:104C3000CFFA00287FF439AF2846FDF721F9204646
:104C4000FDF71EF941F258006946C2F20000FDF777
:104C50006FF9A0F101014B4243EB01010720FDF781
:104C6000B7FA00287FF421AF41F258001021C2F2B8
:104C70000000FDF7BDF8054641F258001021C2F2D0
:104C80000000FDF7B5F804462846FDF7F9F841F2B3
:104C900058006946C2F20000FDF74AF9A0F102028D
:104CA000504240EB02010820FDF792FA00287FF401
:104CB000FCAE41F258002021C2F20000FDF798F846
:104CC000FDF7DEF82046FDF7DBF841F258006946B3
:104CD000C2F20000FDF72CF9A0F101014B4243EBB9
:104CE00001010920FDF774FA00287FF4DEAE41F2DD
:104CF00058006946C2F20000FDF71AF941F2580067
:104D00000099C2F20000FDF773F8044641F2580022
:104D10006946C2F20000FDF70BF9D0F1010138BF7E
:104D200000210A20FDF754FA00287FF4BEAE204689
:104D3000FDF7A6F841F258006946C2F20000FDF7FF
:104D4000F7F8A0F1010CDCF1000040EB0C010B20A6
:104D5000FDF73EFA00287FF4A8AE9DE80A00C3EBF9
:104D6000010E0C20DEF1000242EB0E01FDF730FADD
:104D70009BE600BFAFF30080AFF30080AFF300808D
:104D800041F2580040F61821C2F20000C2F20001C0
:104D90004FF4BE62FDF71CB8AFF30080AFF30080A4
:104DA00000207047AFF30080AFF30080AFF30080C6
:104DB00040F66400C2F200004FF498710022FDF743
:104DC000D7B800BFAFF30080AFF30080AFF300802F
:104DD00038B547F64074C0F60004256840F6640014
:104DE00029460522C2F20000FDF7CAF840F6640029
:104DF000C2F20000FDF704F9011C18BF01210120D7
:104E0000FDF7E6F9002840F0BE8040F66400C2F2EB
:104E10000000FDF7F5F8011C18BF01210120FDF786
:104E2000D7F9002840F0AF8040F66400C2F20000DD
:104E3000FDF7E6F8011C18BF01210120FDF7C8F9B4
:104E4000002840F0A08040F66400C2F20000FDF7A8
:104E5000D7F8011C18BF01210120FDF7B9F900287E
:104E600040F0918040F66400C2F20000FDF7C8F8FF
:104E7000011C18BF01210120FDF7AAF9002840F00C
:104E8000828040F66400C2F20000FDF7B9F8D0F16C
:104E9000010138BF00210220FDF79AF9002872D1E4
:104EA00040F66400C2F200002946FDF7C1F840F662
:104EB0006400C2F200006168FDF7BAF840F66400D1
:104EC000C2F20000A168FDF7B3F840F66400C2F238
:104ED0000000E168FDF7ACF840F664002169C2F219
:104EE0000000FDF7A5F840F66400C2F20000FDF7EF
:104EF00087F8011C18BF01210320FDF769F900287C
:104F000041D140F66400C2F20000FDF779F8011CBF
:104F100018BF01210320FDF75BF9A0BB40F6640038
:104F2000C2F20000FDF76CF8011C18BF012103203C
:104F3000FDF74EF938BB40F66400C2F20000FDF701
:104F40005FF8011C18BF01210320FDF741F9D0B91A
:104F500040F66400C2F20000FDF752F8011C18BFD1
:104F600001210320FDF734F968B940F66400C2F26C
:104F70000000FDF745F8D0F1010138BF0021042001
:104F8000FDF726F900B138BD40F6640044F6A152A1
:104F90001021C0F60002C2F20000FCF7E9FF40F663
:104FA0006400C2F20000FDF72BF8D0F1010138BF18
:104FB00000210520BDE83840FDF70AB9AFF30080B5
:104FC00038B50546FBF77CFE002403461846AB4285
:104FD00008BF44F00104FBF783FE03460028F5D127
:104FE000204638BDAFF30080AFF30080AFF3008000
:104FF00040F6D01C10B5C2F2000CDCF8180048F2E4
:10500000C414826845F2411341F2880082B0013A2B
:10501000C0F600044FF49871C0F60003C2F200001D
:105020000094FBF705FE837F044601201A1A5142C3
:1050300041EB0201FDF7CCF808B102B010BD2046EB
:10504000FBF7BEFDA27F0220131A594241EB030178
:10505000FDF7BEF80028F0D12046FBF7C1FDA37F85
:105060000320A3F10101D1F1000C4CEB0101FDF78C
:10507000AFF80028E1D12046FFF7A2FF0146042047
:10508000FDF7A6F80028D8D12046FFF799FF014682
:105090000520FDF79DF80028CFD12046FBF7A0FDA5
:1050A000A27F0620D2F1010138BF0021FDF790F860
:1050B0000028C2D194F81CE00720DEF1010138BFBE
:1050C0000021FDF785F80028B7D12046FFF778FFCB
:1050D00001460820FDF77CF80028AED12046FFF7F6
:1050E0006FFF01460920FDF773F80028A5D1322093
:1050F000FBF7D6FC237F0A20A3F10E01D1F1000CAF
:105100004CEB0101FDF764F8002896D12046FFF72B
:1051100057FF01460B20FDF75BF800288DD1204694
:10512000FFF74EFFD0F1010138BF00210C2002B083
:10513000BDE81040FDF74CB8AFF30080AFF300803E
:1051400008B50078FDF734F8002008BDAFF3008003
:1051500041F2880040F61821C2F20000C2F20001BC
:105160004FF4BE62FCF734BEAFF30080AFF30080B3
:1051700041F2880040F61821C2F20000C2F200019C
:105180004FF4BE62FCF724BEAFF30080AFF30080A3
:1051900040F6D01038B5C2F2000047F6407483697B
:1051A000C0F6000441F278002168C2F200009D6858
:1051B000FCF73EFF41F278006168C2F20000FCF7A4
:1051C00037FF41F27800A168C2F20000FCF730FF1F
:1051D00041F27800E168C2F20000FCF729FF41F2D9
:1051E000780045F2411248F2C413691EC0F600026D
:1051F000C0F60003C2F20000FBF73AFD41F23004B2
:10520000C2F20004206045F2411241F2780048F2F7
:10521000C813A91EC0F60002C0F60003C2F20000C7
:10522000FBF726FD45F24112606048F2CC1341F2D3
:105230007800E91EC0F60002C0F60003C2F20000CA
:10524000FBF716FD45F24112A06048F2C01341F28F
:105250007800291FC0F60002C0F60003C2F2000069
:10526000FBF706FD45F24112E06048F2D41341F22B
:105270007800691FC2F20000C0F60002C0F6000309
:10528000FBF7F6FC2168206149B1616839B1A1687A
:1052900029B1E16819B1D0F1010138BF0021012025
:1052A000FCF796FF00B138BDFDF732F848F2906187
:1052B0000220C0F60001FCF7A3FF0028F3D141F261
:1052C0007800C2F20000FCF79BFE011C18BF012110
:1052D0000320FCF77DFF0028E5D141F27800C2F2FF
:1052E0000000FCF78DFE011C18BF01210320FCF714
:1052F0006FFF0028D7D141F27800C2F20000FCF71E
:105300007FFE011C18BF01210320FCF761FF00286C
:10531000C9D141F27800C2F20000FCF771FE011C15
:1053200018BF01210320FCF753FF0028BBD141F235
:105330007800C2F20000FCF763FED0F1010138BF33
:1053400000210420BDE83840FCF742BFAFF30080E5
:1053500041F27800C2F200004FF498710022FCF78D
:1053600007BE00BFAFF30080AFF30080AFF3008053
:10537000F0B540F6D010C2F20000836985B041F26A
:1053800088009D6803A9C2F20000FCF7D1FD48F235
:10539000C41441F2880045F24113C0F600044FF4F2
:1053A00098716A1EC0F60003C2F200000094FBF779
:1053B0003FFC41F23004C2F20004206048F2C816FB
:1053C00041F2880045F24113AA1EC0F60003C0F660
:1053D00000064FF49871C2F200000096FBF728FC1B
:1053E000606041F2880002A9C2F20000FCF7A0FD53
:1053F00041F288000299C2F20000FCF7F9FC48F281
:10540000CC17064645F2411341F288004FF49871DB
:10541000EA1EC0F60003C0F60007C2F200000097C3
:10542000FBF706FCA0603046FCF72AFD216829B195
:10543000616819B1A16800292CD000210120FCF776
:10544000C7FE08B105B0F0BDFCF762FF48F29861F5
:105450000220C0F60001FCF7D3FE0028F2D141F291
:10546000880002A9C2F20000FCF762FDA0F1010071
:10547000434243EB00010320FCF7AAFE0028E1D1E0
:10548000029A039B0420D11A4A4242EB0101FCF725
:105490009FFED7E7E268002AD0D12169D1F101014E
:1054A00038BF0021CAE700BFAFF30080AFF3008030
:1054B000704700BFAFF30080AFF30080AFF3008010
:1054C00040F6700008B50021C822C2F20000FCF7C7
:1054D0008FFB002008BD00BFAFF30080AFF300805A
:1054E00010B547F64073C0F60003196840F6700027
:1054F00045F2B14382B00024C2F200000422C0F69B
:1055000000030094FCF74CFB02B010BDAFF3008029
:1055100040F6940008B5C821C2F20000FCF7D8FAA2
:10552000002008BDAFF30080AFF30080AFF3008030
:1055300010B547F64073C0F60003196840F69400B2
:1055400045F2B14382B00024C2F200000422C0F64A
:1055500000030094FCF76CFA02B010BDAFF30080BA
:105560002DE9F041202382B083F3118840F67005C5
:10557000C2F200056A69AB6900219A4200F0A0807E
:105580000120FCF725FE064600286CD1034683F374
:10559000118840F67004C2F20004412120464FF009
:1055A000FF32FCF725FB422120464FF0FF32FCF78B
:1055B0001FFB432120464FF0FF32FCF719FB20462A
:1055C00044214FF0FF32FCF713FB202383F31188B3
:1055D000AD680220D5F1010138BF0021FCF7F8FDCC
:1055E0000546002845D1034683F31188202383F321
:1055F00011882046FCF724FB2B4683F31188C0B2A8
:10560000FCF7D6FD202383F311882046FCF718FB16
:105610002B4683F31188C0B2FCF7CAFD202383F325
:1056200011882046FCF70CFB2B4683F31188C0B28F
:10563000FCF7BEFD202383F311882046FCF700FB16
:105640002B4683F31188C0B2FCF7B2FD202383F30D
:1056500011886069A269904218BF294635D003209D
:10566000FCF7B6FD48B1002383F3118802B0BDE812
:10567000F081334683F31188F8E7034683F31188FA
:1056800048F290610420C0F60001FCF7B9FD054620
:105690000028EBD1202383F3118840F67004C2F276
:1056A00000042046FCF7CCFA033014BF002101218E
:1056B0000520FCF78DFD68B12B4683F31188D5E7F3
:1056C000A968003118BF01215AE7A368191C18BF47
:1056D0000121C4E7034683F3118847F64075C0F6FD
:1056E00000056E68082231462046FCF7D1FAA0F189
:1056F0000401D1F1000C4CEB01010620FCF768FD20
:1057000080460028B2D1202383F31188A7680720A0
:10571000D7F1010138BF0021FCF75AFD074618B147
:10572000434683F31188A1E7034683F3118840F6CB
:10573000D01EC2F2000EDEF8183028689D6845F2CF
:10574000C1434FF498716A1CC0F600030097FBF741
:1057500057F941F2300CC2F2000CCCF800002023C3
:1057600083F311882169E268A568881A431BA3F1B5
:1057700004020820554245EB0201FCF729FD0546CD
:1057800018B13B4683F3118870E7034683F3118811
:10579000FCF7BEFD202383F311882046FCF710FAA6
:1057A0002B4683F31188202383F311882069E16855
:1057B000A368C1EB000CC3EB0C020920514241EB82
:1057C0000201FCF705FD034600287FF475AF83F363
:1057D0001188022231462046FCF75AFAA0F1020352
:1057E0005A4242EB03010A20FCF7F2FC0346002870
:1057F0007FF43CAF314602222046FCF749FAA0F183
:105800000201484240EB01010B20FCF7E1FC0028BB
:105810007FF42CAF202383F31188A2680C20D2F1EF
:10582000010138BF0021FCF7D3FC002383F311886A
:1058300000287FF41BAF40F6700019460A22C2F21E
:105840000000FCF7D5F9A0F1FF3CDCF1000040EBD3
:105850000C010D2002B0BDE8F041FCF7B9BC00BF5F
:105860002DE9F043202383B083F3118840F694049C
:10587000C2F20004A1680120D1F1010138BF00216A
:10588000FCF7A6FC054630BB034683F311882023B2
:1058900083F3118841212046FCF7F2F8422120468B
:1058A000FCF7EEF843212046FCF7EAF820464421B5
:1058B000FCF7E6F82B4683F31188202383F3118845
:1058C0006269A3699A4218BF294658D00220FCF7A2
:1058D0007FFC064628B1002383F3118803B0BDE89E
:1058E000F083034683F31188202383F3118840F665
:1058F0009405C2F2000501462846FCF7C1F80430C1
:1059000014BF002101210320FCF762FC074690BB75
:10591000034683F311884FF0FF312846FCF7D8F88F
:10592000C0B2FCF745FC4FF0FF312846FCF7D0F839
:10593000C0B2FCF73DFC4FF0FF312846FCF7C8F839
:10594000C0B2FCF735FC4FF0FF312846FCF7C0F839
:10595000C0B2FCF72DFC202383F31188A968042032
:10596000D1F1010138BF0021FCF732FC60B13B46A8
:1059700083F31188B2E7334683F31188AEE7A0685A
:10598000011C18BF0121A1E7034683F3118848F2E7
:1059900090610520C0F60001FCF732FC06460028A5
:1059A0009CD1202383F3118841212846FCF768F815
:1059B00042212846FCF764F843212846FCF760F8AA
:1059C00028464421FCF75CF8334683F3118847F6F8
:1059D0004076C0F600067768082239462846FCF76C
:1059E0009FF8A0F104035A4242EB03010620FCF7A2
:1059F000EFFB804600287FF471AF202383F31188EA
:105A0000A9680720D1F1010138BF0021FCF7E0FBB4
:105A10008146002847D1034683F31188202383F36E
:105A2000118841212846FCF72BF842212846FCF733
:105A300027F843212846FCF723F828464421FCF7A1
:105A40001FF84B4683F31188022239462846FCF79B
:105A500067F8A0F10202504240EB02010820FCF777
:105A6000B7FB00287FF43AAF0222034639462846A6
:105A7000FCF756F8A0F102014B4243EB010109206B
:105A8000FCF7A6FB804600287FF428AF202383F391
:105A90001188AF680A20D7F1010138BF0021FCF757
:105AA00097FB074618B1434683F3118816E7034670
:105AB00083F31188202383F3118801462846FBF7DE
:105AC000DFFF2846FBF7C4FF3B4683F31188202302
:105AD00083F31188AA680B20D2F1010138BF00219D
